:0400000059EF00F0C4
:100008004E82FACF33F0FBCF34F0E9CF35F0EACFA8
:1000180036F0E1CF37F0E2CF38F0D9CF39F0DACF88
:100028003AF0F3CF3BF0F4CF3CF0F6CF3DF0F7CF0A
:100038003EF0F8CF3FF0F5CF40F0F2B4F2A40CD088
:10004800F29401D814D00500FA6E2750FD6E28509E
:10005800FE6EFF6AFA501200F2AC09D09DBA9EAA51
:1000680002D09E9A04D09DB89EA801D09E9840C008
:10007800F5FF3FC0F8FF3EC0F7FF3DC0F6FF3CC0AC
:10008800F4FF3BC0F3FF3AC0DAFF39C0D9FF38C0EC
:10009800E2FF37C0E1FF36C0EAFF35C0E9FF34C0F0
:0E00A800FBFF33C0FAFF4E92110089EF0DF0FE
:1010000000C0F9A4B0999282F880908883C6A18626
:101010008EBF0E32003C00460050005A006400C8EB
:10102000002C019001F4015802BC0220038403E863
:1010300003001BD18D940F013C95969484B403D08A
:10104000496A492A01D0496A4946494684504918A3
:10105000FB0B4918846E000E106E320E0F6EA9EC59
:101060000DF041C00DF042C00EF04850D96EDA6A62
:10107000020ED926780EDE6E000EDD6EA9EC0DF0A4
:101080000D50415E0E50425A0F50415C1050425874
:10109000D8B002D0000E120084B403D0496A492AA5
:1010A00001D0496A4946494684504918FB0B491802
:1010B000846E000E106E320E0F6EA9EC0DF041C062
:1010C0000DF042C00EF04850D96EDA6A020ED926F1
:1010D0007C0EDE6E000EDD6EA9EC0DF00D50415E53
:1010E0000E50425A0F50415C10504258D8A0D2D7EF
:1010F00084B403D0496A492A01D0496A494649461D
:1011000084504918FB0B4918846E000E106E320E85
:101110000F6EA9EC0DF041C00DF042C00EF048502A
:10112000D96EDA6A020ED926800EDE6E000EDD6EF2
:10113000A9EC0DF00D50415E0E50425A0F50415C2B
:1011400010504258D8A0A6D784B403D0496A492A7F
:1011500001D0496A4946494684504918FB0B491851
:10116000846E000E106E320E0F6EA9EC0DF041C0B1
:101170000DF042C00EF04850D96EDA6A020ED92640
:10118000840EDE6E000EDD6EA9EC0DF00D50415E9A
:101190000E50425A0F50415C10504258D8A07AD796
:1011A00084B403D0496A492A01D0496A494649466C
:1011B00084504918FB0B4918846E000E106E320ED5
:1011C0000F6EA9EC0DF041C00DF042C00EF048507A
:1011D000D96EDA6A020ED926880EDE6E000EDD6E3A
:1011E000A9EC0DF00D50415E0E50425A0F50415C7B
:1011F00010504258D8A04ED784B403D0496A492A27
:1012000001D0496A4946494684504918FB0B4918A0
:10121000846E030E106EE80E0F6EA9EC0DF041C047
:101220000DF042C00EF04850D96EDA6A020ED9268F
:101230008C0EDE6E000EDD6EA9EC0DF00D50415EE1
:101240000E50425A0F50415C10504258D8A022D73D
:10125000F5D6020E12004850D96EDA6A020ED9266F
:10126000000EDE6E000EDD6E15D74850D96EDA6ABC
:10127000020ED926DECF49F0DDCF4AF04A50000AEF
:10128000D8A4E9D74950000AD8B4D4D6780AD8B43B
:10129000F5D6040AD8B420D7FC0AD8B449D7040A32
:1012A000D8B472D70C0AD8B49BD7040AD8B4C4D720
:1012B000030AD8B4CED7CFD7E2D0000E8B6E000E83
:1012C0000F013A6F000E946E000E8A6EF00E396FA9
:1012D000F00E936EF00E8A161550010F496E49C03C
:1012E000F6FF100EF76EF86A0800F5CF8BFF8A80C4
:1012F000000E046E050E036EA9EC0DF041C001F066
:1013000042C002F04850D96EDA6A020ED926400E69
:10131000DE6E010EDD6EA9EC0DF00150415E025053
:10132000425A0350415C04504258D8B002D0000EDB
:1013300012001850D8A406D01750D8A403D01650C5
:10134000D8B42DD0F00E8A161650010F496E49C040
:10135000F6FF100EF76EF86A0800F5CF8BFF8A8251
:10136000000E046E050E036EA9EC0DF041C001F0F5
:1013700042C002F04850D96EDA6A020ED926470EF2
:10138000DE6E010EDD6EA9EC0DF00150415E0250E3
:10139000425A0350415C04504258D8A0C8D7185054
:1013A000D8A403D01750D8B42DD0F00E8A161750F9
:1013B000010F496E49C0F6FF100EF76EF86A08007B
:1013C000F5CF8BFF8A84000E046E050E036EA9EC28
:1013D0000DF041C001F042C002F04850D96EDA6A07
:1013E000020ED9264F0EDE6E010EDD6EA9EC0DF059
:1013F0000150415E0250425A0350415C0450425831
:10140000D8A095D71850D8B465D7F00E8A161850C2
:10141000010F496E49C0F6FF100EF76EF86A08001A
:10142000F5CF8BFF8A86000E046E050E036EA9ECC5
:101430000DF041C001F042C002F04850D96EDA6AA6
:10144000020ED926570EDE6E010EDD6EA9EC0DF0F0
:101450000150415E0250425A0350415C04504258D0
:10146000D8A065D737D7020E12004850D96EDA6A75
:10147000020ED926000EDE6E000EDD6E58D74850E3
:10148000D96EDA6A020ED926DECF49F0DDCF4AF0F6
:101490004A50000AD8B404D0010AD8B406D0E5D71F
:1014A0004950000AD8B409D7E0D74950400AD8B407
:1014B00032D7070AD8B467D7080AD8B497D7180A1A
:1014C000D8B4C4D70B0AD8B4CED7CFD797D08D9283
:1014D0000F013C939692000E2B6E010E2A6E2A503D
:1014E000D8B408D00E0E2B18D8A402D0000E06D007
:1014F0002B2A07D02B50D8A403D0010E2A6E01D07E
:101500002B0684B203D0496A492A01D0496A494668
:1015100084504918FD0B4918846E2B50020DF3506E
:10152000130F496E49C0F6FF100EF76EF86A0900F6
:10153000F5CF13F00A00F5CF14F0A9EC0DF041C07F
:1015400011F042C012F04850D96EDA6A020ED92664
:101550005A0EDE6E000EDD6EA9EC0DF01150415EEC
:101560001250425A1350415C14504258D8B002D025
:10157000000E120084B203D0496A492A01D0496A98
:10158000494684504918FD0B4918846E2B50020DB2
:10159000F350130F496E49C0F6FF100EF76EF86A4C
:1015A0000900F5CF13F00A00F5CF14F0A9EC0DF007
:1015B00041C011F042C012F04850D96EDA6A020EF2
:1015C000D9265E0EDE6E000EDD6EA9EC0DF0115018
:1015D000415E1250425A1350415C14504258D8A0F8
:1015E000C7D77DD7020E12004850D96EDA6A020EB4
:1015F000D926000EDE6E000EDD6EBAD74850D96EC9
:10160000DA6A020ED926DECF49F0DDCF4AF04A5021
:10161000000AD8A4E9D74950000AD8B458D75A0AC2
:10162000D8B49AD7040AD8B4D0D73C0AD8B4DAD7F9
:10163000DBD779D09D9C9E9CAF0EC06E000EC16E14
:101640009280C280C2824850D96EDA6A020ED926D0
:10165000D10EDE6E000EDD6EC2A202D0000E1200B0
:10166000000E4D6E000E4C6EC4504A6E496A4950D1
:101670004C124A504D12C3504C1219504C1804E1F0
:101680001A504D18D8B423D04CC01DF04DC01EF0D8
:101690004D5009E1330E4C5CD8B005D0000E1C6EE5
:1016A0000A0E1B6E0ED04CC041F04DC042F0000E31
:1016B000446E050E436E40EC0DF041C01BF042C07D
:1016C0001CF0010E2D6E4CC019F04DC01AF0010E29
:1016D000086E2C0E076EA9EC0DF041C005F042C05B
:1016E00006F04850D96EDA6A020ED926E40EDE6E94
:1016F000000EDD6EA9EC0DF00550415E0650425A19
:101700000750415C08504258D8A0A8D79BD7020E7A
:1017100012004850D96EDA6A020ED926000EDE6E2B
:10172000000EDD6E9BD74850D96EDA6A020ED926BC
:10173000DECF49F0DDCF4AF04A50000AD8A4E9D7FD
:101740004950000AD8B476D7D10AD8B485D7350A1B
:10175000D8B4D0D7030AD8B4DAD7DBD761D0485091
:10176000D96EDA6A020ED926FE0EDE6E000EDD6E2E
:101770002D04D8B402D0000E1200000E2D6E1DC034
:1017800041F01EC042F0000E446E050E436E40EC68
:101790000DF041C04CF042C04DF04D5008E10A0E32
:1017A0004C5CD8B004D0000E4D6E0A0E4C6E000E8C
:1017B000186E05D0E80E4C5E030E4D5A182AE80E3E
:1017C0004C5C030E4D58D8B0F5D7000E176E05D0FF
:1017D000640E4C5E000E4D5A172A4D50F9E1640E0E
:1017E0004C5CD8B0F5D7000E166E05D00A0E4C5ED4
:1017F000000E4D5A162A4D50F9E10A0E4C5CD8B035
:10180000F5D74CC015F0ABD7020E12004850D96E78
:10181000DA6A020ED926000EDE6E000EDD6EABD740
:101820004850D96EDA6A020ED926DECF49F0DDCFF4
:101830004AF04A50000AD8B404D0010AD8B409D0FA
:10184000E5D74950000AD8B48AD7FE0AD8B490D751
:10185000DDD74950170AD8B4D7D7D8D74ED0000E05
:101860008C6E000E0F013B6F000E956E010E8C6E9C
:10187000010E296E000E1C6E320E1B6E2950D8B45C
:1018800008D0D8908336800E8318D8A409D0000ED3
:1018900006D0D89083328304D8A402D0010E296EDA
:1018A0001BC00BF01CC00CF0A9EC0DF041C009F0FE
:1018B00042C00AF04850D96EDA6A020ED926B50E37
:1018C000DE6E000EDD6EA9EC0DF00950415E0A508F
:1018D000425A0B50415C0C504258D8B0CFD7000E42
:1018E0001200020E12004850D96EDA6A020ED92692
:1018F000000EDE6E000EDD6EF2D74850D96EDA6A49
:10190000020ED926DECF49F0DDCF4AF04A50000A58
:10191000D8A4E9D74950000AD8B4A1D7B50AD8B499
:10192000D2D70D0AD8B4DDD7DED7000E0001926FF2
:101930003AD09251060DF350600F946F9451D8B481
:1019400031D09451D96EDA6A040ED926DECF90F0E8
:10195000DDCF91F090519111D8B424D09451D96E2B
:10196000DA6A010ED926DF50936F020E9319D8B4AC
:1019700019D09305D8B416D094C048F001D809D036
:101980000500FA6E9051FD6E9151FE6EFF6AFA509D
:1019900012000001936F9451D96EDA6A010ED926B4
:1019A00093C0DFFF922B2F50925DD8B0BED7C1D726
:1019B000070E2F6401D01200000E456E0ED0455068
:1019C000060DF350640FD96EDA6ADE50411804E157
:1019D000DE504218D8B41200452A2F50455CD8A0DA
:1019E000EED72F50060DF350600F466E4650D96E5D
:1019F000DA6A2FC0DFFF4650D96EDA6A010ED926A7
:101A0000000EDF6E4650D96EDA6A040ED92641C048
:101A1000DEFF42C0DDFF4650D96EDA6A020ED926DB
:101A2000000EDE6E000EDD6E2F2A1200C3EC0DF0EC
:101A3000CC0E416E140E426ED8EC0CF0320E416E9C
:101A4000100E426ED8EC0CF05C0E416E180E426E19
:101A5000D8EC0CF0320E416E160E426ED8EC0CF043
:101A60005C0E416E170E426ED8EC0CF0B80E416E53
:101A7000120E426ED8EC0CF0B7EC0DF059EF00F0FE
:101A8000000E476E000E466E43504410D8B41CD072
:101A9000010E456E04D0D89043364436452A44AEF4
:101AA000FAD7D890463647364350415C44504258A6
:101AB000D8A005D04350415E4450425A4680D89049
:101AC00044324332452EEDD746C041F047C042F084
:101AD0001200000ED56ED59CD59AD586F00ED76E25
:101AE000930ED66E43504410D8B405D043C021F0B5
:101AF00044C022F004D0A80E216E1B0E226E340EBC
:101B0000416E1B0E426ECAEC0DF0F294F28AD58E35
:101B1000120000EE60F0300EEE6AE806FDE100EE25
:101B200001F0320EEE6AE806FDE14E904E920001A1
:101B300016EF0DF0F00ED76E930ED66E01D8120090
:101B40000500FA6E2150FD6E2250FE6EFF6AFA50BB
:101B50001200F2CF30F0F29E1FC043F020C044F0DC
:101B600030BEF28E43C041F044C042F01200D2ECCD
:101B70000DF09E0E436E1B0E446E69EC0DF0F28E5E
:101B800095EC0CF01200730ED36E040ED26E000EA4
:101B90009B6E120041C027F042C028F012001F4A7D
:0A1BA000202A1200D09E120012004D
:020000040020DA
:08000000FFFFFFFFFFFFFFFF00
:020000040030CA
:0E000000FF380E3CFF3D85FF0FC00FE00F40A4
:00000001FF
