:020000040000FA
:0400000059EF00F0C4
:100008005182FACF3BF0FBCF3CF0E9CF3DF0EACF8D
:100018003EF0E1CF3FF0E2CF40F0D9CF41F0DACF68
:1000280042F0F3CF43F0F4CF44F0F6CF45F0F7CFEA
:1000380046F0F8CF47F0F5CF48F0F2B4F2A40CD070
:10004800F29401D814D00500FA6E2750FD6E28509E
:10005800FE6EFF6AFA501200F2AC09D09DBA9EAA51
:1000680002D09E9A04D09DB89EA801D09E9848C000
:10007800F5FF47C0F8FF46C0F7FF45C0F6FF44C08C
:10008800F4FF43C0F3FF42C0DAFF41C0D9FF40C0CC
:10009800E2FF3FC0E1FF3EC0EAFF3DC0E9FF3CC0D0
:0E00A800FBFF3BC0FAFF51921100B7EF0DF0C5
:1010000000C0F9A4B0999282F880908883C6A18626
:101010008EBF0E32003C00460050005A006400C8EB
:10102000002C019001F4015802BC0220038403E863
:10103000030017D18D940F013C95969484B404D08D
:101040000001926B922B02D00001926B9247924763
:1010500084509219FB0B9219846E000E106E320EA2
:101060000F6ED7EC0DF049C00DF04AC00EF090C0E5
:10107000D9FF91C0DAFF780EDE6E000EDD6ED7EC80
:101080000DF00D50495E0E504A5A0F50495C1050F9
:101090004A58D8B002D0000E120084B404D0000127
:1010A000926B922B02D00001926B92479247845030
:1010B0009219FB0B9219846E000E106E320E0F6E99
:1010C000D7EC0DF049C00DF04AC00EF090C0D9FF2A
:1010D00091C0DAFF7C0EDE6E000EDD6ED7EC0DF0F7
:1010E0000D50495E0E504A5A0F50495C10504A58F4
:1010F000D8A0D1D784B404D00001926B922B02D037
:101100000001926B9247924784509219FB0B9219FF
:10111000846E000E106E320E0F6ED7EC0DF049C0CB
:101120000DF04AC00EF090C0D9FF91C0DAFF800EDA
:10113000DE6E000EDD6ED7EC0DF00D50495E0E50E8
:101140004A5A0F50495C10504A58D8A0A4D784B4CA
:1011500004D00001926B922B02D00001926B924757
:10116000924784509219FB0B9219846E000E106EF8
:10117000320E0F6ED7EC0DF049C00DF04AC00EF0E4
:1011800090C0D9FF91C0DAFF840EDE6E000EDD6ED6
:10119000D7EC0DF00D50495E0E504A5A0F50495C85
:1011A00010504A58D8A077D784B404D00001926B6D
:1011B000922B02D00001926B924792478450921971
:1011C000FB0B9219846E000E106E320E0F6ED7EC70
:1011D0000DF049C00DF04AC00EF090C0D9FF91C08B
:1011E000DAFF880EDE6E000EDD6ED7EC0DF00D50CE
:1011F000495E0E504A5A0F50495C10504A58D8A0C8
:101200004AD784B404D00001926B922B02D0000123
:10121000926B9247924784509219FB0B9219846EFD
:10122000030E106EE80E0F6ED7EC0DF049C00DF0F6
:101230004AC00EF090C0D9FF91C0DAFF8C0EDE6E6E
:10124000000EDD6ED7EC0DF00D50495E0E504A5A7F
:101250000F50495C10504A58D8A01DD7EFD6020E47
:10126000120090C0D9FF91C0DAFFDECF92F0DDCF3F
:1012700093F09351000AD8A419D09251000AD8B41F
:10128000D9D6780AD8B4FBD6040AD8B427D7FC0A32
:10129000D8B451D7040AD8B47BD70C0AD8B4A5D790
:1012A000040AD8B4CFD7030AD8B4D9D7010E120094
:1012B000D8D0000E8B6E000E0F013A6F000E946EA8
:1012C000000E8A6EF00E396FF00E936EF00E8A16D5
:1012D0001550010F0001926F92C0F6FF100EF76ECD
:1012E000F86A0800F5CF8BFF8A80000E046E050EA9
:1012F000036ED7EC0DF049C001F04AC002F090C077
:10130000D9FF91C0DAFF400EDE6E010EDD6ED7EC24
:101310000DF00150495E02504A5A0350495C045096
:101320004A58D8B002D0000E12001850D8A406D0E7
:101330001750D8A403D01650D8B42DD0F00E8A166A
:101340001650010F0001926F92C0F6FF100EF76E5B
:10135000F86A0800F5CF8BFF8A82000E046E050E36
:10136000036ED7EC0DF049C001F04AC002F090C006
:10137000D9FF91C0DAFF470EDE6E010EDD6ED7ECAD
:101380000DF00150495E02504A5A0350495C045026
:101390004A58D8A0C8D71850D8A403D01750D8B4EA
:1013A0002DD0F00E8A161750010F0001926F92C0D7
:1013B000F6FF100EF76EF86A0800F5CF8BFF8A84EF
:1013C000000E046E050E036ED7EC0DF049C001F05F
:1013D0004AC002F090C0D9FF91C0DAFF4F0EDE6E16
:1013E000010EDD6ED7EC0DF00150495E02504A5AF5
:1013F0000350495C04504A58D8A095D71850D8B427
:1014000065D7F00E8A161850010F0001926F92C036
:10141000F6FF100EF76EF86A0800F5CF8BFF8A868C
:10142000000E046E050E036ED7EC0DF049C001F0FE
:101430004AC002F090C0D9FF91C0DAFF570EDE6EAD
:10144000010EDD6ED7EC0DF00150495E02504A5A94
:101450000350495C04504A58D8A065D737D7020ECC
:10146000120090C0D9FF91C0DAFFDECF92F0DDCF3D
:1014700093F09351000AD8B404D0010AD8B406D02E
:1014800015D09251000AD8B414D710D09251400A06
:10149000D8B43DD7070AD8B472D7080AD8B4A2D7AF
:1014A000180AD8B4CFD70B0AD8B4D9D7010E120076
:1014B0008FD08D920F013C939692000E2B6E010EF1
:1014C0002A6E2A50D8B408D00E0E2B18D8A402D0F9
:1014D000000E06D02B2A07D02B50D8A403D0010E23
:1014E0002A6E01D02B0684B204D00001926B922B9D
:1014F00002D00001926B924784509219FD0B921911
:10150000846E2B50020DF350130F926F92C0F6FFB2
:10151000100EF76EF86A0900F5CF13F00A00F5CF48
:1015200014F0D7EC0DF049C011F04AC012F090C091
:10153000D9FF91C0DAFF5A0EDE6E000EDD6ED7ECD9
:101540000DF01150495E12504A5A1350495C145024
:101550004A58D8B002D0000E120084B204D0000164
:10156000926B922B02D00001926B92478450921999
:10157000FD0B9219846E2B50020DF350130F926FD6
:1015800092C0F6FF100EF76EF86A0900F5CF13F05F
:101590000A00F5CF14F0D7EC0DF049C011F04AC0A5
:1015A00012F090C0D9FF91C0DAFF5E0EDE6E000E21
:1015B000DD6ED7EC0DF01150495E12504A5A1350AF
:1015C000495C14504A58D8A0C6D77BD7020E1200E7
:1015D00090C0D9FF91C0DAFFDECF92F0DDCF93F05B
:1015E0009351000AD8A40DD09251000AD8B461D703
:1015F0005A0AD8B4A4D7040AD8B4DBD73C0AD8B462
:10160000E5D7010E12006ED09D9C9E9CAF0EC06E61
:10161000000EC16E9280C280C28290C0D9FF91C07C
:10162000DAFFD10EDE6E000EDD6EC2A202D0000E19
:101630001200000E0001966F000E956FC450936F5C
:10164000926B9251951393519613C3509513195061
:10165000951904E11A509619D8B423D095C01DF0FD
:1016600096C01EF0965109E1330E955DD8B005D0B5
:10167000000E1C6E0A0E1B6E0ED095C049F096C06F
:101680004AF0000E4C6E050E4B6E2FEC0DF049C06B
:101690001BF04AC01CF0010E2D6E95C019F096C0CB
:1016A0001AF0010E086E2C0E076ED7EC0DF049C033
:1016B00005F04AC006F090C0D9FF91C0DAFFE40EF1
:1016C000DE6E000EDD6ED7EC0DF00550495E065063
:1016D0004A5A0750495C08504A58D8A0A8D79CD706
:1016E000020E120090C0D9FF91C0DAFFDECF92F057
:1016F000DDCF93F09351000AD8A40DD09251000A87
:10170000D8B482D7D10AD8B490D7350AD8B4DBD7A9
:10171000030AD8B4E5D7010E120056D090C0D9FF05
:1017200091C0DAFFFE0EDE6E000EDD6E2D04D8B421
:1017300002D0000E1200000E2D6E1DC049F01EC01A
:101740004AF0000E4C6E050E4B6E2FEC0DF049C0AA
:1017500095F04AC096F0965108E10A0E955DD8B012
:1017600004D0000E966F0A0E956F000E186E05D00D
:10177000E80E955F030E965B182AE80E955D030E42
:101780009659D8B0F5D7000E176E05D0640E955F48
:10179000000E965B172A9651F9E1640E955DD8B05C
:1017A000F5D7000E166E05D00A0E955F000E965BFB
:1017B000162A9651F9E10A0E955DD8B0F5D795C075
:1017C00015F0ACD7020E120090C0D9FF91C0DAFF1D
:1017D000DECF92F0DDCF93F09351000AD8B404D05D
:1017E000010AD8B409D00CD09251000AD8B496D7C7
:1017F000FE0AD8B49BD704D09251170AD8B4E2D7C6
:10180000010E120043D0000E8C6E000E0F013B6FD4
:10181000000E956E010E8C6E010E296E000E1C6E70
:10182000320E1B6E2950D8B408D0D8908336800E63
:101830008318D8A409D0000E06D0D8908332830430
:10184000D8A402D0010E296E1BC00BF01CC00CF0F6
:10185000D7EC0DF049C009F04AC00AF090C0D9FF9A
:1018600091C0DAFFB50EDE6E000EDD6ED7EC0DF026
:101870000950495E0A504A5A0B50495C0C504A586C
:10188000D8B0D0D7000E1200020E120090C0D9FFBF
:1018900091C0DAFFDECF92F0DDCF93F09351000AD2
:1018A000D8A40AD09251000AD8B4ADD7B50AD8B49A
:1018B000DDD70D0AD8B4E8D7010E12004A50D96E10
:1018C000DA6ADF504C6E4C504B5CD8B012004B5073
:1018D000D8B412004B50906F916BFF0E926FFF0EB9
:1018E000936F4C50946F956B92519427935195231D
:1018F0009051941913E191519519D8A40FD04B50E0
:10190000020D4950F324D96EDA6A000EDE6E000E25
:10191000DD6E4A50D96EDA6ADF0612004BC04DF018
:101920004B50020D4950F324D96EDA6A000EDE6E78
:10193000000EDD6E13D04D50020D4950F324D96EC8
:10194000DA6A020ED9264D50020D4950F324E16E99
:10195000E26ADECFE6FFDDCFE5FF4D2A4C504D5C5D
:10196000D8B0D7D7E8D7000E00019C6F49D09C5162
:10197000020DF350800FD96EDA6ADECF90F0DDCF22
:1019800091F09C51020DF350800FD96EDA6A10EE7F
:1019900002F0DE50E126DD50E222E6CF97F0E5CFFF
:1019A00098F001D809D00500FA6E9751FD6E985154
:1019B000FE6EFF6AFA50120000019B6F9B05D8A4CF
:1019C0001ED09C51020DF350800FD96EDA6ADECF23
:1019D00099F0DDCF9AF0800E496E3A0E4A6E9CC0A7
:1019E0004BF05EEC0CF0330E496E390E4A6E030E6E
:1019F0004B6E99C04CF09AC04DF09FEC0DF09C2BB3
:101A00002F509C5DD8B0AFD7B2D7F1EC0DF0B00E2F
:101A10004F6E140E506E58EC0DF0320E4F6E100ECD
:101A2000506E58EC0DF0040E4F6E180E506E58ECC0
:101A30000DF0060E4F6E160E506E58EC0DF01A0E8D
:101A40004F6E170E506E58EC0DF0B00E4F6E120E1A
:101A5000506E58EC0DF0E5EC0DF059EF00F0000E73
:101A60004F6E000E4E6E4B504C10D8B41CD0010E71
:101A70004D6E04D0D8904B364C364D2A4CAEFAD72A
:101A8000D8904E364F364B50495C4C504A58D8A0EF
:101A900005D04B50495E4C504A5A4E80D8904C323B
:101AA0004B324D2EEDD74EC049F04FC04AF01200D8
:101AB000070E2F6401D012002F50040DF350600F59
:101AC0000001906F2F2A9051D96EDA6A020ED92642
:101AD0004FC0DEFF50C0DDFF9051D96EDA6A000EB4
:101AE000DE6E000EDD6E800E496E3A0E4A6E080EF6
:101AF0004B6E90C04CF04D6A9FEC0DF01200000E42
:101B0000D56ED59CD59AD586F00ED76E930ED66E2F
:101B10004B504C10D8B405D04BC021F04CC022F033
:101B200004D0040E216E1C0E226E900E496E1B0E08
:101B30004A6EF8EC0DF0F294F28AD58E12004A50FB
:101B4000D96EDA6ADF504E6E4B504E5CD8B0120040
:101B50004E50020D4950F324D96EDA6A4CC0DEFFB4
:101B60004DC0DDFF4A50D96EDA6ADF2A120000EE5E
:101B700060F0300EEE6AE806FDE100EE01F03A0E8C
:101B8000EE6AE806FDE151905192000105EF0DF07B
:101B9000F00ED76E930ED66E01D812000500FA6EC5
:101BA0002150FD6E2250FE6EFF6AFA501200F2CFF5
:101BB00030F0F29E1FC04BF020C04CF030BEF28ED1
:101BC0004BC049F04CC04AF0120000EC0EF0FA0E87
:101BD0004B6E1B0E4C6E7FEC0DF0F28EB3EC0CF0E6
:101BE0001200730ED36E040ED26E000E9B6E1200A6
:101BF00049C027F04AC028F012001F4A202A1200CC
:061C0000D09E120012004C
:020000040020DA
:08000000FFFFFFFFFFFFFFFF00
:020000040030CA
:0E000000FF380E3CFF3D85FF0FC00FE00F40A4
:00000001FF
