:020000040000FA
:0400000059EF00F0C4
:100008004582FACF01F0FBCF02F0E9CF03F0EACF47
:1000180004F0E1CF05F0E2CF06F0D9CF07F0DACF50
:1000280008F0F3CF09F0F4CF0AF0F6CF0BF0F7CFD2
:100038000CF0F8CF0DF0F5CF0EF0F2B4F2A40CD01E
:10004800F29401D814D00500FA6E3C50FD6E3D5074
:10005800FE6EFF6AFA501200F2AC09D09DBA9EAA51
:1000680002D09E9A04D09DB89EA801D09E980EC03A
:10007800F5FF0DC0F8FF0CC0F7FF0BC0F6FF0AC074
:10008800F4FF09C0F3FF08C0DAFF07C0D9FF06C0B4
:10009800E2FF05C0E1FF04C0EAFF03C0E9FF02C0B8
:0E00A800FBFF01C0FAFF459211001CEF0BF0A8
:101000000032003C00460050005A006400C8002C2A
:10101000019001F4015802BC0220038403E803009C
:1010200001D18A9A0F01399B939A81BA03D0146A2D
:10103000142A01D0146A143A144681501418DF0B94
:101040001418816E000E2F6E320E2E6E2AEC0BF0ED
:101050000FC02CF010C02DF01350D96EDA6A7F0E3D
:10106000DE6E000EDD6E2AEC0BF02C500F5E2D5064
:10107000105A2E500F5C2F501058D8A0120081BA71
:1010800003D0146A142A01D0146A143A1446815009
:101090001418DF0B1418816E000E2F6E320E2E6E98
:1010A0002AEC0BF00FC02CF010C02DF01350D96EAD
:1010B000DA6A830EDE6E000EDD6E2AEC0BF02C5029
:1010C0000F5E2D50105A2E500F5C2F501058D8A084
:1010D000120081BA03D0146A142A01D0146A143A97
:1010E000144681501418DF0B1418816E000E2F6EF9
:1010F000320E2E6E2AEC0BF00FC02CF010C02DF02B
:101100001350D96EDA6A870EDE6E000EDD6E2AECA1
:101110000BF02C500F5E2D50105A2E500F5C2F509C
:101120001058D8A0120081BA03D0146A142A01D032
:10113000146A143A144681501418DF0B1418816E87
:10114000000E2F6E320E2E6E2AEC0BF00FC02CF01C
:1011500010C02DF01350D96EDA6A8B0EDE6E000EC1
:10116000DD6E2AEC0BF02C500F5E2D50105A2E50D5
:101170000F5C2F501058D8A0120081BA03D0146A07
:10118000142A01D0146A143A144681501418DF0B43
:101190001418816E000E2F6E320E2E6E2AEC0BF09C
:1011A0000FC02CF010C02DF01350D96EDA6A8F0EDC
:1011B000DE6E000EDD6E2AEC0BF02C500F5E2D5013
:1011C000105A2E500F5C2F501058D8A0120081BA20
:1011D00003D0146A142A01D0146A143A14468150B8
:1011E0001418DF0B1418816E030E2F6EE80E2E6E8E
:1011F0002AEC0BF00FC02CF010C02DF01350D96E5C
:10120000DA6A930EDE6E000EDD6E2AEC0BF02C50C7
:101210000F5E2D50105A2E500F5C2F501058D8A032
:10122000120003D71350D96EDA6ADECF14F0DDCF87
:1012300015F01550000AD8A412001450000AD8B4B2
:10124000F0D67F0AD8B40FD7FC0AD8B436D7040A30
:10125000D8B45DD70C0AD8B484D7040AD8B4ABD7B5
:101260001C0AD8B4D2D7050A12008BD0010EF66E34
:10127000100EF76E000EF86E20EE60F01D0E0900E5
:10128000F5CFDEFFE806FBE20E0E00017F6F8A92CB
:101290000F0139939392000E406E010E3F6E3F5046
:1012A000D8B409D000017F514018D8A402D0000E54
:1012B00006D0402A07D04050D8A403D0010E3F6E7C
:1012C00001D0400681B203D0146A142A01D0146AF6
:1012D000144681501418FD0B1418816E4050020DF5
:1012E000F350600FD96EDA6ADECF32F0DDCF33F023
:1012F0002AEC0BF00FC030F010C031F01350D96E53
:10130000DA6A5E0EDE6E000EDD6E2AEC0BF03050F7
:101310000F5E3150105A32500F5C33501058D8A025
:10132000120081B203D0146A142A01D0146A144640
:1013300081501418FD0B1418816E4050020DF350AB
:10134000600FD96EDA6ADECF32F0DDCF33F02AECEF
:101350000BF00FC030F010C031F01350D96EDA6AC4
:10136000630EDE6E000EDD6E2AEC0BF030500F5E69
:101370003150105A32500F5C33501058D8A0120020
:101380008ED71350D96EDA6ADECF14F0DDCF15F0A8
:101390001550000AD8A412001450000AD8B466D719
:1013A0005E0AD8B4B2D73D0AD8B4DED7040A120018
:1013B00054D09D9C9E9CAF0EC06E000EC16E92805C
:1013C000C280C2821650D96EDA6ADF0EDE6E000E5F
:1013D000DD6EC2B21200C350C4CF17F0186A17C036
:1013E00018F0176A17101A6E18501B6E1B5009E17F
:1013F000330E1A5CD8B005D0000E356E0A0E346E6E
:101400000ED01AC00FF01BC010F0000E126E050EA9
:10141000116EC4EC0AF00FC034F010C035F0010EAC
:10142000276E5E0E266E2AEC0BF00FC024F010C063
:1014300025F01650D96EDA6AEF0EDE6E000EDD6E04
:101440002AEC0BF024500F5E2550105A26500F5CEA
:1014500027501058D8A01200B4D71650D96EDA6AA7
:10146000DECF17F0DDCF18F01850000AD8A4120014
:101470001750000AD8B49DD7DF0AD8B4AAD7300ACB
:10148000D8B4DED71D0A12003FD0000E8C6E000EBD
:101490000F013B6F000E956E010E8C6E010E3E6EBD
:1014A000000E356E320E346E3E50D8B408D0D8904F
:1014B0008336800E8318D8A409D0000E06D0D890A9
:1014C00083328304D8A402D0010E3E6E34C02AF0C9
:1014D00035C02BF02AEC0BF00FC028F010C029F01B
:1014E0001350D96EDA6AC10EDE6E000EDD6E2AEC84
:1014F0000BF028500F5E2950105A2A500F5C2B50C9
:101500001058D8A01200D0D71350D96EDA6ADECFA7
:1015100014F0DDCF15F01550000AD8A412001450B5
:10152000000AD8B4B2D7C10AD8B4E1D7050A12006C
:1015300038EC0BF047EC0BF0880E116E160E126EA5
:10154000EDEC0AF0F28E000E1F6E000E1E6E000E05
:10155000236E000E226E000E1D6E000E1C6E000E1D
:10156000216E000E206E1E0E136E35EC09F0220E59
:10157000136E10EC08F01C0E136E44EC0AF0200EF3
:10158000166ED8EC09F0EFD7000E146E000E136E35
:1015900011501210D8B41CD0010E156E04D0D89082
:1015A00011361236152A12AEFAD7D89013361436E1
:1015B00011500F5C12501058D8A005D011500F5E7A
:1015C0001250105A1380D89012321132152EEDD7C6
:1015D00013C00FF014C010F01200000ED56ED59C91
:1015E000D59AD586F00ED76E930ED66E1150121086
:1015F000D8B405D011C038F012C039F004D0920E22
:10160000386E160E396E1A0E0F6E160E106E3FECF7
:101610000BF0F294F28AD58E1200F00ED76E930E74
:10162000D66E01D812000500FA6E3850FD6E3950A2
:10163000FE6EFF6AFA5012000001816B806B00EEB3
:1016400024F0210EEE6AE806FDE145904592000186
:1016500098EF0AF0F2CF42F0F29E36C011F037C098
:1016600012F042BEF28E11C00FF012C010F0120044
:10167000730ED36E040ED26E000E9B6E12000FC05E
:101680003CF010C03DF01200364A372A1200D09EBE
:041690001200120032
:020000040020DA
:08000000FFFFFFFFFFFFFFFF00
:020000040030CA
:0E000000FF380E3CFF3D85FF0FC00FE00F40A4
:00000001FF
