:0400000059EF00F0C4
:100008004582FACF01F0FBCF02F0E9CF03F0EACF47
:1000180004F0E1CF05F0E2CF06F0D9CF07F0DACF50
:1000280008F0F3CF09F0F4CF0AF0F6CF0BF0F7CFD2
:100038000CF0F8CF0DF0F5CF0EF0F2B4F2A40CD01E
:10004800F29401D814D00500FA6E3C50FD6E3D5074
:10005800FE6EFF6AFA501200F2AC09D09DBA9EAA51
:1000680002D09E9A04D09DB89EA801D09E980EC03A
:10007800F5FF0DC0F8FF0CC0F7FF0BC0F6FF0AC074
:10008800F4FF09C0F3FF08C0DAFF07C0D9FF06C0B4
:10009800E2FF05C0E1FF04C0EAFF03C0E9FF02C0B8
:0E00A800FBFF01C0FAFF4592110044EF0BF080
:101000000032003C00460050005A006400C8002C2A
:10101000019001F4015802BC0220038403E803009C
:1010200009D18A9A0F01399B939A81BA03D0146A25
:10103000142A01D0146A143A144681501418DF0B94
:101040001418816E000E2F6E320E2E6E52EC0BF0C5
:101050000FC02CF010C02DF01350D96EDA6A7E0E3E
:10106000DE6E000EDD6E52EC0BF02C500F5E2D503C
:10107000105A2E500F5C2F501058D8A0120081BA71
:1010800003D0146A142A01D0146A143A1446815009
:101090001418DF0B1418816E000E2F6E320E2E6E98
:1010A00052EC0BF00FC02CF010C02DF01350D96E85
:1010B000DA6A820EDE6E000EDD6E52EC0BF02C5002
:1010C0000F5E2D50105A2E500F5C2F501058D8A084
:1010D000120081BA03D0146A142A01D0146A143A97
:1010E000144681501418DF0B1418816E000E2F6EF9
:1010F000320E2E6E52EC0BF00FC02CF010C02DF003
:101100001350D96EDA6A860EDE6E000EDD6E52EC7A
:101110000BF02C500F5E2D50105A2E500F5C2F509C
:101120001058D8A0120081BA03D0146A142A01D032
:10113000146A143A144681501418DF0B1418816E87
:10114000000E2F6E320E2E6E52EC0BF00FC02CF0F4
:1011500010C02DF01350D96EDA6A8A0EDE6E000EC2
:10116000DD6E52EC0BF02C500F5E2D50105A2E50AD
:101170000F5C2F501058D8A0120081BA03D0146A07
:10118000142A01D0146A143A144681501418DF0B43
:101190001418816E000E2F6E320E2E6E52EC0BF074
:1011A0000FC02CF010C02DF01350D96EDA6A8E0EDD
:1011B000DE6E000EDD6E52EC0BF02C500F5E2D50EB
:1011C000105A2E500F5C2F501058D8A0120081BA20
:1011D00003D0146A142A01D0146A143A14468150B8
:1011E0001418DF0B1418816E030E2F6EE80E2E6E8E
:1011F00052EC0BF00FC02CF010C02DF01350D96E34
:10120000DA6A920EDE6E000EDD6E52EC0BF02C50A0
:101210000F5E2D50105A2E500F5C2F501058D8A032
:10122000120003D71350D96EDA6A000EDE6E000E7C
:10123000DD6E12001350D96EDA6ADECF14F0DDCF06
:1012400015F01550000AD8A4EDD71450000AD8B4F0
:10125000E8D67E0AD8B407D7FC0AD8B42ED7040A39
:10126000D8B455D70C0AD8B47CD7040AD8B4A3D7BD
:101270001C0AD8B4CAD7070AD8B41200D3D793D05F
:10128000010EF66E100EF76E000EF86E20EE60F096
:101290001D0E0900F5CFDEFFE806FBE20E0E000191
:1012A0007F6F8A920F0139939392000E406E010E68
:1012B0003F6E3F50D8B409D000017F514018D8A4E8
:1012C00002D0000E06D0402A07D04050D8A403D048
:1012D000010E3F6E01D0400681B203D0146A142A79
:1012E00001D0146A144681501418FD0B1418816E35
:1012F0004050020DF350600FD96EDA6ADECF32F043
:10130000DDCF33F052EC0BF00FC030F010C031F0F5
:101310001350D96EDA6A5D0EDE6E000EDD6E52EC91
:101320000BF030500F5E3150105A32500F5C33507A
:101330001058D8A0120081B203D0146A142A01D028
:10134000146A144681501418FD0B1418816E405015
:10135000020DF350600FD96EDA6ADECF32F0DDCFC6
:1013600033F052EC0BF00FC030F010C031F01350DE
:10137000D96EDA6A620EDE6E000EDD6E52EC0BF094
:1013800030500F5E3150105A32500F5C33501058AD
:10139000D8A012008ED71350D96EDA6A000EDE6E16
:1013A000000EDD6E12001350D96EDA6ADECF14F033
:1013B000DDCF15F01550000AD8A4EDD71450000A5F
:1013C000D8B45ED75D0AD8B4AAD73F0AD8B4D6D766
:1013D000040AD8B41200DFD75CD09D9C9E9CAF0E4F
:1013E000C06E000EC16E9280C280C2821650D96E4D
:1013F000DA6ADE0EDE6E000EDD6EC2B21200C3507F
:10140000C4CF17F0186A17C018F0176A17101A6EB1
:1014100018501B6E1B5009E1330E1A5CD8B005D072
:10142000000E356E0A0E346E0ED01AC00FF01BC0BF
:1014300010F0000E126E050E116EECEC0AF00FC0EB
:1014400034F010C035F0010E276E5E0E266E52ECA1
:101450000BF00FC024F010C025F01650D96EDA6AD8
:10146000EE0EDE6E000EDD6E52EC0BF024500F5EC1
:101470002550105A26500F5C27501058D8A0120043
:10148000B4D71650D96EDA6A000EDE6E000EDD6E2D
:1014900012001650D96EDA6ADECF17F0DDCF18F0E1
:1014A0001850000AD8A4EDD71750000AD8B495D721
:1014B000DE0AD8B4A2D7300AD8B4D6D71F0AD8B417
:1014C0001200DFD747D0000E8C6E000E0F013B6F6D
:1014D000000E956E010E8C6E010E3E6E000E356E86
:1014E000320E346E3E50D8B408D0D8908336800E79
:1014F0008318D8A409D0000E06D0D8908332830474
:10150000D8A402D0010E3E6E34C02AF035C02BF0B4
:1015100052EC0BF00FC028F010C029F01350D96E18
:10152000DA6AC00EDE6E000EDD6E52EC0BF0285053
:101530000F5E2950105A2A500F5C2B501058D8A01B
:101540001200D0D71350D96EDA6A000EDE6E000E8C
:10155000DD6E12001350D96EDA6ADECF14F0DDCFE3
:1015600015F01550000AD8A4EDD71450000AD8B4CD
:10157000AAD7C00AD8B4D9D7030AD8B41200E2D780
:1015800060EC0BF06FEC0BF0D80E116E160E126EB5
:1015900015EC0BF0F28E000E1F6E000E1E6E000E8C
:1015A000236E000E226E000E1D6E000E1C6E000ECD
:1015B000216E000E206E1E0E136E3FEC09F0220EFF
:1015C000136E10EC08F01C0E136E62EC0AF0200E85
:1015D000166EECEC09F0EFD7000E146E000E136ED1
:1015E00011501210D8B41CD0010E156E04D0D89032
:1015F00011361236152A12AEFAD7D8901336143691
:1016000011500F5C12501058D8A005D011500F5E29
:101610001250105A1380D89012321132152EEDD775
:1016200013C00FF014C010F01200000ED56ED59C40
:10163000D59AD586F00ED76E930ED66E1150121035
:10164000D8B405D011C038F012C039F004D0E20E81
:10165000386E160E396E6A0E0F6E160E106E67EC2F
:101660000BF0F294F28AD58E1200F00ED76E930E24
:10167000D66E01D812000500FA6E3850FD6E395052
:10168000FE6EFF6AFA5012000001816B806B00EE63
:1016900024F0210EEE6AE806FDE145904592000136
:1016A000C0EF0AF0F2CF42F0F29E36C011F037C020
:1016B00012F042BEF28E11C00FF012C010F01200F4
:1016C000730ED36E040ED26E000E9B6E12000FC00E
:1016D0003CF010C03DF01200364A372A1200D09E6E
:0416E00012001200E2
:020000040020DA
:08000000FFFFFFFFFFFFFFFF00
:020000040030CA
:0E000000FF380E3CFF3D85FF0FC00FE00F40A4
:00000001FF
