:0400000059EF00F0C4
:100008004182FACF21F0FBCF22F0E9CF23F0EACFEB
:1000180024F0E1CF25F0E2CF26F0D9CF27F0DACFD0
:1000280028F0F3CF29F0F4CF2AF0F6CF2BF0F7CF52
:100038002CF0F8CF2DF0F5CF2EF0F2B4F2A40CD0BE
:10004800F29401D814D00500FA6E1750FD6E1850BE
:10005800FE6EFF6AFA501200F2AC09D09DBA9EAA51
:1000680002D09E9A04D09DB89EA801D09E982EC01A
:10007800F5FF2DC0F8FF2CC0F7FF2BC0F6FF2AC0F4
:10008800F4FF29C0F3FF28C0DAFF27C0D9FF26C034
:10009800E2FF25C0E1FF24C0EAFF23C0E9FF22C038
:0E00A800FBFF21C0FAFF41921100DBEF0BF0CD
:101000000032003C00460050005A006400C8002C2A
:10101000019001F4015802BC0220038403E803009C
:101020001BD18A9A0F01399B939A81BA03D0376AF0
:10103000372A01D0376A373A374681503718DF0BE5
:101040003718816E000E0C6E320E0B6EFBEC0BF03F
:101050002FC009F030C00AF03650D96EDA6A020E9D
:10106000D9267C0EDE6E000EDD6EFBEC0BF0095017
:101070002F5E0A50305A0B502F5C0C503058D8B0AD
:1010800002D0000E120081BA03D0376A372A01D08D
:10109000376A373A374681503718DF0B3718816E79
:1010A000000E0C6E320E0B6EFBEC0BF02FC009F035
:1010B00030C00AF03650D96EDA6A020ED926800E98
:1010C000DE6E000EDD6EFBEC0BF009502F5E0A5059
:1010D000305A0B502F5C0C503058D8A0D2D781BA60
:1010E00003D0376A372A01D0376A373A37468150FA
:1010F0003718DF0B3718816E000E0C6E320E0B6E38
:10110000FBEC0BF02FC009F030C00AF03650D96E5E
:10111000DA6A020ED926840EDE6E000EDD6EFBEC5E
:101120000BF009502F5E0A50305A0B502F5C0C50B8
:101130003058D8A0A6D781BA03D0376A372A01D051
:10114000376A373A374681503718DF0B3718816EC8
:10115000000E0C6E320E0B6EFBEC0BF02FC009F084
:1011600030C00AF03650D96EDA6A020ED926880EDF
:10117000DE6E000EDD6EFBEC0BF009502F5E0A50A8
:10118000305A0B502F5C0C503058D8A07AD781BA07
:1011900003D0376A372A01D0376A373A3746815049
:1011A0003718DF0B3718816E000E0C6E320E0B6E87
:1011B000FBEC0BF02FC009F030C00AF03650D96EAE
:1011C000DA6A020ED9268C0EDE6E000EDD6EFBECA6
:1011D0000BF009502F5E0A50305A0B502F5C0C5008
:1011E0003058D8A04ED781BA03D0376A372A01D0F9
:1011F000376A373A374681503718DF0B3718816E18
:10120000030E0C6EE80E0B6EFBEC0BF02FC009F01A
:1012100030C00AF03650D96EDA6A020ED926900E26
:10122000DE6E000EDD6EFBEC0BF009502F5E0A50F7
:10123000305A0B502F5C0C503058D8A022D7F5D61E
:10124000020E12003650D96EDA6A020ED926000E4E
:10125000DE6E000EDD6E15D73650D96EDA6A020EDC
:10126000D926DECF37F0DDCF38F03850000AD8A4C9
:10127000E9D73750000AD8B4D4D67C0AD8B4F5D60A
:10128000FC0AD8B420D7040AD8B449D70C0AD8B479
:1012900072D7040AD8B49BD71C0AD8B4C4D7030A9F
:1012A000D8B4CED7CFD79DD0010EF66E100EF76E04
:1012B000000EF86E20EE82F01D0E0900F5CFDEFF65
:1012C000E806FBE20E0E0001A16F8A920F0139932E
:1012D0009392000E1B6E010E1A6E1A50D8B409D0EC
:1012E0000001A1511B18D8A402D0000E06D01B2A61
:1012F00007D01B50D8A403D0010E1A6E01D01B06D4
:1013000081B203D0376A372A01D0376A3746815015
:101310003718FD0B3718816E1B50020DF350820FEA
:10132000D96EDA6ADECF0FF0DDCF10F0FBEC0BF0F8
:101330002FC00DF030C00EF03650D96EDA6A020EB2
:10134000D9265B0EDE6E000EDD6EFBEC0BF00D5051
:101350002F5E0E50305A0F502F5C10503058D8B0BE
:1013600002D0000E120081B203D0376A372A01D0B2
:10137000376A374681503718FD0B3718816E1B507E
:10138000020DF350820FD96EDA6ADECF0FF0DDCF97
:1013900010F0FBEC0BF02FC00DF030C00EF036500B
:1013A000D96EDA6A020ED926600EDE6E000EDD6E90
:1013B000FBEC0BF00D502F5E0E50305A0F502F5C8F
:1013C00010503058D8A0CDD788D7020E1200365012
:1013D000D96EDA6A020ED926000EDE6E000EDD6EC0
:1013E000C0D73650D96EDA6A020ED926DECF37F072
:1013F000DDCF38F03850000AD8A4E9D73750000ABA
:10140000D8B452D75B0AD8B4A0D73B0AD8B4D0D747
:10141000040AD8B4DAD7DBD766D09D9C9E9CAF0E69
:10142000C06E000EC16E9280C280C2823650D96EEC
:10143000DA6A020ED926DC0EDE6E000EDD6EC2A266
:1014400002D0000E1200C350C4CF37F0386A37C044
:1014500038F0376A37103A6E38503B6E3B5009E12E
:10146000330E3A5CD8B005D0000E126E0A0E116E23
:101470000ED03AC02FF03BC030F0000E326E050E99
:10148000316E74EC0BF02FC011F030C012F0010E71
:10149000046E5E0E036EFBEC0BF02FC001F030C04B
:1014A00002F03650D96EDA6A020ED926EC0EDE6EE4
:1014B000000EDD6EFBEC0BF001502F5E0250305A37
:1014C00003502F5C04503058D8A0BBD7AED7020EC3
:1014D00012003650D96EDA6A020ED926000EDE6E80
:1014E000000EDD6EAED73650D96EDA6A020ED926FE
:1014F000DECF37F0DDCF38F03850000AD8A4E9D776
:101500003750000AD8B489D7DC0AD8B498D7300A43
:10151000D8B4D0D7030AD8B4DAD7DBD74ED0000E70
:101520008C6E000E0F013B6F000E956E010E8C6EDF
:10153000010E196E000E126E320E116E1950D8B4D3
:1015400008D0D8908336800E8318D8A409D0000E16
:1015500006D0D89083328304D8A402D0010E196E2D
:1015600011C007F012C008F0FBEC0BF02FC005F023
:1015700030C006F03650D96EDA6A020ED926BE0E99
:10158000DE6E000EDD6EFBEC0BF005502F5E06509C
:10159000305A07502F5C08503058D8B0CFD7000EC3
:1015A0001200020E12003650D96EDA6A020ED926E7
:1015B000000EDE6E000EDD6EF2D73650D96EDA6A9E
:1015C000020ED926DECF37F0DDCF38F03850000AD2
:1015D000D8A4E9D73750000AD8B4A1D7BE0AD8B4E6
:1015E000D2D77F0AD8B4DDD7DED7000E3E6E39D011
:1015F0003E50060DF350640F406E4050D8B430D0CA
:101600004050D96EDA6A040ED926DECF3CF0DDCF29
:101610003DF03C503D10D8B423D04050D96EDA6A2A
:10162000010ED926DF503F6E020E3F18D8B418D0F5
:101630003F04D8B415D040C036F001D809D0050019
:10164000FA6E3C50FD6E3D50FE6EFF6AFA5012007D
:101650003F6E4050D96EDA6A010ED9263FC0DFFFD7
:101660003E2A1D503E5CD8B0C0D7C2D7040E1D64C0
:1016700001D01200000E336E0ED03350060DF35021
:10168000680FD96EDA6ADE502F1804E1DE50301888
:10169000D8B41200332A1D50335CD8A0EED71D50A9
:1016A000060DF350640F346E3450D96EDA6A1DC0E3
:1016B000DFFF3450D96EDA6A010ED926000EDF6ED4
:1016C0003450D96EDA6A040ED9262FC0DEFF30C03E
:1016D000DDFF3450D96EDA6A020ED926000EDE6EB6
:1016E000000EDD6E1D2A1200000E346E000E336EE9
:1016F00031503210D8B41CD0010E356E04D0D890C1
:1017000031363236352A32AEFAD7D89033363436BF
:1017100031502F5C32503058D8A005D031502F5E58
:101720003250305A3380D89032323132352EEDD7A4
:1017300033C02FF034C030F01200000ED56ED59CAF
:10174000D59AD586F00ED76E930ED66E31503210E4
:10175000D8B405D031C015F032C016F004D04C0E0C
:10176000156E180E166ED80E2F6E170E306E1CECFE
:101770000CF0F294F28AD58E120015EC0CF0A60E45
:101780002F6E120E306E36EC0BF0200E2F6E100EF8
:10179000306E36EC0BF01C0E2F6E150E306E36ECE4
:1017A0000BF0180E2F6E140E306E36EC0BF009ECA9
:1017B0000CF059EF00F000EE60F0220EEE6AE80641
:1017C000FDE100EE01F0200EEE6AE806FDE1419039
:1017D00041920001BDEF0BF0F00ED76E930ED66E66
:1017E00001D812000500FA6E1550FD6E1650FE6EFF
:1017F000FF6AFA501200F2CF1EF0F29E13C031F0D1
:1018000014C032F01EBEF28E31C02FF032C030F064
:10181000120024EC0CF0420E316E180E326E9DEC6C
:101820000BF0F28EF5EC0AF01200730ED36E040E7C
:10183000D26E000E9B6E12002FC017F030C018F051
:0E1840001200134A142A1200D09E1200120049
:020000040020DA
:08000000FFFFFFFFFFFFFFFF00
:020000040030CA
:0E000000FF380E3CFF3D85FF0FC00FE00F40A4
:00000001FF
