:020000040000FA
:0400000059EF00F0C4
:100008004182FACF01F0FBCF02F0E9CF03F0EACF4B
:1000180004F0E1CF05F0E2CF06F0D9CF07F0DACF50
:1000280008F0F3CF09F0F4CF0AF0F6CF0BF0F7CFD2
:100038000CF0F8CF0DF0F5CF0EF0F2B4F2A40CD01E
:10004800F29401D814D00500FA6E3550FD6E365082
:10005800FE6EFF6AFA501200F2AC09D09DBA9EAA51
:1000680002D09E9A04D09DB89EA801D09E980EC03A
:10007800F5FF0DC0F8FF0CC0F7FF0BC0F6FF0AC074
:10008800F4FF09C0F3FF08C0DAFF07C0D9FF06C0B4
:10009800E2FF05C0E1FF04C0EAFF03C0E9FF02C0B8
:0E00A800FBFF01C0FAFF419211000EEF0CF0B9
:101000000032003C00460050005A006400C8002C2A
:10101000019001F4015802BC0220038403E803009C
:101020000BD18A9A0F01399B939A81BA03D0186A1F
:10103000182A01D0186A183A184681501818DF0B80
:101040001818816E000E2A6E320E296E2EEC0CF0EE
:101050000FC027F010C028F016C0D9FF17C0DAFF64
:101060007F0EDE6E000EDD6E2EEC0CF027500F5E54
:101070002850105A29500F5C2A501058D8B002D06E
:10108000000E120081BA03D0186A182A01D0186A1B
:10109000183A184681501818DF0B1818816E000E88
:1010A0002A6E320E296E2EEC0CF00FC027F010C005
:1010B00028F016C0D9FF17C0DAFF830EDE6E000ECF
:1010C000DD6E2EEC0CF027500F5E2850105A295080
:1010D0000F5C2A501058D8A0D3D781BA03D0186A11
:1010E000182A01D0186A183A184681501818DF0BD0
:1010F0001818816E000E2A6E320E296E2EEC0CF03E
:101100000FC027F010C028F016C0D9FF17C0DAFFB3
:10111000870EDE6E000EDD6E2EEC0CF027500F5E9B
:101120002850105A29500F5C2A501058D8A0A8D720
:1011300081BA03D0186A182A01D0186A183A1846DA
:1011400081501818DF0B1818816E000E2A6E320EAF
:10115000296E2EEC0CF00FC027F010C028F016C03E
:10116000D9FF17C0DAFF8B0EDE6E000EDD6E2EEC9F
:101170000CF027500F5E2850105A29500F5C2A504F
:101180001058D8A07DD781BA03D0186A182A01D088
:10119000186A183A184681501818DF0B1818816E13
:1011A000000E2A6E320E296E2EEC0CF00FC027F0C6
:1011B00010C028F016C0D9FF17C0DAFF8F0EDE6E00
:1011C000000EDD6E2EEC0CF027500F5E2850105AEA
:1011D00029500F5C2A501058D8A052D781BA03D09A
:1011E000186A182A01D0186A183A18468150181837
:1011F000DF0B1818816E030E2A6EE80E296E2EEC96
:101200000CF00FC027F010C028F016C0D9FF17C08F
:10121000DAFF930EDE6E000EDD6E2EEC0CF0275022
:101220000F5E2850105A29500F5C2A501058D8A031
:1012300027D7FBD6020E120016C0D9FF17C0DAFF5F
:10124000DECF18F0DDCF19F01950000AD8A419D05C
:101250001850000AD8B4E5D67F0AD8B405D7FC0ADE
:10126000D8B42FD7040AD8B457D70C0AD8B47FD72C
:10127000040AD8B4A7D71C0AD8B4CFD7050AD8B463
:10128000D9D7010E120091D0010EF66E100EF76E36
:10129000000EF86E20EE8AF01D0E0900F5CFDEFF7D
:1012A000E806FBE20E0E0001A96F8A920F01399346
:1012B0009392000E396E010E386E3850D8B409D0B2
:1012C0000001A9513918D8A402D0000E06D0392A3D
:1012D00007D03950D8A403D0010E386E01D039069A
:1012E00081B203D0186A182A01D0186A18468150B2
:1012F0001818FD0B1818816E3950020DF3508A0F23
:10130000D96EDA6ADECF2DF0DDCF2EF02EEC0CF0A8
:101310000FC02BF010C02CF016C0D9FF17C0DAFF99
:101320005E0EDE6E000EDD6E2EEC0CF02B500F5EAE
:101330002C50105A2D500F5C2E501058D8B002D09F
:10134000000E120081B203D0186A182A01D0186A60
:10135000184681501818FD0B1818816E3950020D6F
:10136000F3508A0FD96EDA6ADECF2DF0DDCF2EF082
:101370002EEC0CF00FC02BF010C02CF016C0D9FFD3
:1013800017C0DAFF630EDE6E000EDD6E2EEC0CF081
:101390002B500F5E2C50105A2D500F5C2E501058B1
:1013A000D8A0CED78AD7020E120016C0D9FF17C018
:1013B000DAFFDECF18F0DDCF19F01950000AD8A4FB
:1013C0000DD01850000AD8B45FD75E0AD8B4ACD795
:1013D0003D0AD8B4DBD7040AD8B4E5D7010E120011
:1013E0005CD09D9C9E9CAF0EC06E000EC16E928024
:1013F000C280C28216C0D9FF17C0DAFFDF0EDE6ED0
:10140000000EDD6EC2A202D0000E1200C350C4CF87
:1014100018F0196A18C019F0186A18101B6E1950C4
:101420001C6E1C5009E1330E1B5CD8B005D0000EB9
:10143000306E0A0E2F6E0ED01BC00FF01CC010F0C5
:10144000000E126E050E116E69EC0BF00FC02FF03E
:1014500010C030F0010E0001636F5E0E626F2EEC63
:101460000CF00FC060F010C061F016C0D9FF17C0BB
:10147000DAFFEF0EDE6E000EDD6E2EEC0CF00001DA
:1014800060510F5E6151105A62510F5C63511058E8
:10149000D8A0BAD7AED7020E120016C0D9FF17C017
:1014A000DAFFDECF18F0DDCF19F01950000AD8A40A
:1014B0000DD01850000AD8B494D7DF0AD8B4A2D7F8
:1014C000300AD8B4DAD71D0AD8B4E5D7010E120015
:1014D00043D0000E8C6E000E0F013B6F000E956E18
:1014E000010E8C6E010E376E000E306E320E2F6EB6
:1014F0003750D8B408D0D8908336800E8318D8A43B
:1015000009D0000E06D0D89083328304D8A402D02C
:10151000010E376E2FC025F030C026F02EEC0CF0F7
:101520000FC023F010C024F016C0D9FF17C0DAFF97
:10153000C10EDE6E000EDD6E2EEC0CF023500F5E41
:101540002450105A25500F5C26501058D8B0D0D7D0
:10155000000E1200020E120016C0D9FF17C0DAFFEB
:10156000DECF18F0DDCF19F01950000AD8A40AD048
:101570001850000AD8B4ADD7C10AD8B4DDD7050ACF
:10158000D8B4E8D7010E12001050D96EDA6ADF50D5
:10159000186E1850115CD8B012001150D8B4120057
:1015A0001150126E136AFF0E146EFF0E156E185056
:1015B000166E176A14501626155017221250161858
:1015C00013E113501718D8A40FD01150020D0F506B
:1015D000F324D96EDA6A000EDE6E000EDD6E105056
:1015E000D96EDA6ADF06120011C019F01150020D2F
:1015F0000F50F324D96EDA6A000EDE6E000EDD6E37
:1016000013D01950020D0F50F324D96EDA6A020E6E
:10161000D9261950020D0F50F324E16EE26ADECF95
:10162000E6FFDDCFE5FF192A1850195CD8B0D7D7EF
:10163000E8D7000E226E48D02250020DF3507C0FE6
:10164000D96EDA6ADECF16F0DDCF17F02250020D28
:10165000F3507C0FD96EDA6A10EE02F0DE50E1260C
:10166000DD50E222E6CF1DF0E5CF1EF001D809D013
:101670000500FA6E1D50FD6E1E50FE6EFF6AFA5098
:101680001200216E2104D8A41ED02250020DF35066
:101690007C0FD96EDA6ADECF1FF0DDCF20F07C0E32
:1016A0000F6E400E106E22C011F0C4EC0AF0860ED0
:1016B0000F6E3F0E106E020E116E1FC012F020C092
:1016C00013F0F6EC0BF0222A3B50225CD8B0B1D7D5
:1016D000B3D7000E146E000E136E11501210D8B452
:1016E0001CD0010E156E04D0D89011361236152A72
:1016F00012AEFAD7D8901336143611500F5C125030
:101700001058D8A005D011500F5E1250105A1380F7
:10171000D89012321132152EEDD713C00FF014C02D
:1017200010F01200040E3B6401D012003B50040D77
:10173000F350680F176E3B2A1750D96EDA6A020E03
:10174000D92615C0DEFF16C0DDFF1750D96EDA6A44
:10175000000EDE6E000EDD6E7C0E0F6E400E106E03
:10176000050E116E17C012F0136AF6EC0BF01200A2
:10177000000ED56ED59CD59AD586F00ED76E930EF9
:10178000D66E11501210D8B405D011C033F012C06B
:1017900034F004D0B20E336E180E346E3E0E0F6E5F
:1017A000180E106E4FEC0CF0F294F28AD58E1200E7
:1017B00048EC0CF0860E156E120E166E92EC0BF0C5
:1017C000200E156E100E166E92EC0BF0D00E156EEC
:1017D000140E166E92EC0BF0E00E156E130E166ED4
:1017E00092EC0BF03CEC0CF059EF00F01050D96E7D
:1017F000DA6ADF50146E1150145CD8B01200145025
:10180000020D0F50F324D96EDA6A12C0DEFF13C046
:10181000DDFF1050D96EDA6ADF2A120000EE60F0A8
:101820002A0EEE6AE806FDE100EE23F01E0EEE6AD7
:10183000E806FDE1419041920001D8EF0BF0F00E77
:10184000D76E930ED66E01D812000500FA6E335093
:10185000FD6E3450FE6EFF6AFA501200F2CF3CF07B
:10186000F29E31C011F032C012F03CBEF28E11C0B7
:101870000FF012C010F0120057EC0CF0A80E116E11
:10188000180E126EB8EC0BF0F28E19EC0BF0120081
:10189000730ED36E040ED26E000E9B6E12000FC03C
:1018A00035F010C036F01200314A322A1200D09EB4
:0418B0001200120010
:020000040020DA
:08000000FFFFFFFFFFFFFFFF00
:020000040030CA
:0E000000FF380E3CFF3D85FF0FC00FE00F40A4
:00000001FF
