:020000040000FA
:0400000059EF00F0C4
:100008005082FACF34F0FBCF35F0E9CF36F0EACFA3
:1000180037F0E1CF38F0E2CF39F0D9CF3AF0DACF84
:100028003BF0F3CF3CF0F4CF3DF0F6CF3EF0F7CF06
:100038003FF0F8CF40F0F5CF41F0F2B4F2A40CD085
:10004800F29401D814D00500FA6E1550FD6E1650C2
:10005800FE6EFF6AFA501200F2AC09D09DBA9EAA51
:1000680002D09E9A04D09DB89EA801D09E9841C007
:10007800F5FF40C0F8FF3FC0F7FF3EC0F6FF3DC0A8
:10008800F4FF3CC0F3FF3BC0DAFF3AC0D9FF39C0E8
:10009800E2FF38C0E1FF37C0EAFF36C0E9FF35C0EC
:0E00A800FBFF34C0FAFF50921100F6EF0BF090
:1010000000C0F9A4B0999282F880908883C6A18626
:031010008EBF0090
:10101400D4D0000E8B6E000E0F013A6F000E946E4A
:10102400000E8A6EF00E396FF00E936EF00E8A1673
:101034000950010F4C6E4CC0F6FF100EF76EF86AA3
:101044000800F5CF8BFF8A80000E046E050E036E38
:1010540047EC0CF042C001F043C002F04AC0D9FF93
:101064004BC0DAFFBF0EDE6E000EDD6E47EC0CF0F7
:101074000150425E0250435A0350425C04504358AC
:10108400D8B002D0000E12000C50D8A406D00B50D9
:10109400D8A403D00A50D8B42CD0F00E8A160A5023
:1010A400010F4C6E4CC0F6FF100EF76EF86A080084
:1010B400F5CF8BFF8A82000E046E050E036E47EC9B
:1010C4000CF042C001F043C002F04AC0D9FF4BC04B
:1010D400DAFFC60EDE6E000EDD6E47EC0CF001503A
:1010E400425E0250435A0350425C04504358D8A015
:1010F400C9D70C50D8A403D00B50D8B42CD0F00EC0
:101104008A160B50010F4C6E4CC0F6FF100EF76E92
:10111400F86A0800F5CF8BFF8A84000E046E050E72
:10112400036E47EC0CF042C001F043C002F04AC029
:10113400D9FF4BC0DAFFCE0EDE6E000EDD6E47EC3B
:101144000CF00150425E0250435A0350425C04507A
:101154004358D8A097D70C50D8B468D7F00E8A1645
:101164000C50010F4C6E4CC0F6FF100EF76EF86A6F
:101174000800F5CF8BFF8A86000E046E050E036E01
:1011840047EC0CF042C001F043C002F04AC0D9FF62
:101194004BC0DAFFD60EDE6E000EDD6E47EC0CF0AF
:1011A4000150425E0250435A0350425C045043587B
:1011B400D8A068D73BD7020E12004AC0D9FF4BC053
:1011C400DAFFDECF4CF0DDCF4DF04D50000AD8A44D
:1011D40013D04C50000AD8B41CD7BF0AD8B446D791
:1011E400790AD8B47AD7080AD8B4A9D7180AD8B4CF
:1011F400D5D70D0AD8B4DFD7010E120067D04AC084
:10120400D9FF4BC0DAFF7E0EDE6E000EDD6E2A0EB5
:10121400426E61EC0CF00009D8B402D0000E12004A
:101224002A0E436E39EC0BF04C6E4C500001816F6A
:10123400826B000E0C6E05D0E80E815F030E825B9C
:101244000C2AE80E815D030E8259D8B0F5D7000E42
:101254000B6E05D0640E815F000E825B0B2A8251F7
:10126400F9E1640E815DD8B0F5D7000E0A6E05D0A1
:101274000A0E815F000E825B0A2A8251F9E10A0E8E
:10128400815DD8B0F5D781C009F0010E086EF40E67
:10129400076E47EC0CF042C005F043C006F04AC0AC
:1012A400D9FF4BC0DAFF930EDE6E000EDD6E47EC05
:1012B4000CF00550425E0650435A0750425C0850F9
:1012C4004358D8A0ABD79BD7020E12004AC0D9FF0F
:1012D4004BC0DAFFDECF4CF0DDCF4DF04D50000AAD
:1012E400D8A40DD04C50000AD8B489D77E0AD8B4FB
:1012F4008ED7ED0AD8B4DBD7060AD8B4E5D7010EE9
:101304001200010E4E6E47D04AC0D9FF4BC0DAFF1F
:101314003E0EDE6E000EDD6E1850D8A402D0000E14
:10132400120018064AC0D9FF4BC0DAFF400EDE6E29
:10133400000EDD6E2A0E426E28EC0CF00009D8A4D3
:10134400EED74AC0D9FF4BC0DAFF420EDE6E000E64
:10135400DD6E2A0E456E17C046F001EC0BF0000955
:10136400D8B4DDD7182A020E1726FD0E176402D052
:10137400000E176E000E4E6E4AC0D9FF4BC0DAFF46
:101384004B0EDE6E000EDD6E4E50D8A4BDD7030E9C
:101394001200020E12004AC0D9FF4BC0DAFFDECFA2
:1013A4004CF0DDCF4DF04D50000AD8A413D04C5072
:1013B400000AD8B4A9D73E0AD8B4AED77E0AD8B4A6
:1013C400B9D7020AD8B4C5D7090AD8B4DDD7050AF3
:1013D400D8B4DFD7010E1200010E4E6E47D04AC0BA
:1013E400D9FF4BC0DAFF5E0EDE6E000EDD6E1850C4
:1013F400D8A402D0000E120018064AC0D9FF4BC070
:10140400DAFF600EDE6E000EDD6E2A0E426E61ECB7
:101414000CF00009D8A4EED74AC0D9FF4BC0DAFFBC
:10142400620EDE6E000EDD6E2A0E456E4FC046F073
:1014340001EC0BF00009D8B4DDD7182A020E4F26B0
:101444004F28D8A402D0010E4F6E000E4E6E4AC033
:10145400D9FF4BC0DAFF6B0EDE6E000EDD6E4E5010
:10146400D8A4BDD7030E1200020E12004AC0D9FF41
:101474004BC0DAFFDECF4CF0DDCF4DF04D50000A0B
:10148400D8A413D04C50000AD8B4A9D75E0AD8B453
:10149400AED73E0AD8B4B9D7020AD8B4C5D7090A18
:1014A400D8B4DDD7050AD8B4DFD7010E12004350F3
:1014B400D96EDA6ADF504B6E4B50445CD8B01200E0
:1014C4004450D8B412004450456E466AFF0E476E2D
:1014D400FF0E486E4B50496E4A6A475049264850A1
:1014E4004A224550491813E146504A18D8A40FD04F
:1014F4004450020D4250F324D96EDA6A000EDE6EB7
:10150400000EDD6E4350D96EDA6ADF06120044C065
:101514004CF04450020D4250F324D96EDA6A000EA6
:10152400DE6E000EDD6E13D04C50020D4250F324DB
:10153400D96EDA6A020ED9264C50020D4250F324B9
:10154400E16EE26ADECFE6FFDDCFE5FF4C2A4B50C9
:101554004C5CD8B0D7D7E8D7000E0001886F4AD0CA
:101564008851020DF3501E0FD96EDA6ADECF4AF0AD
:10157400DDCF4BF08851020DF3501E0FD96EDA6A9D
:1015840010EE02F0DE50E126DD50E222E6CF83F0D9
:10159400E5CF84F001D809D00500FA6E8351FD6EC1
:1015A4008451FE6EFF6AFA5012000001876F8705AE
:1015B400D8A41ED08851020DF3501E0FD96EDA6ADA
:1015C400DECF85F0DDCF86F01E0E426E330E436E05
:1015D40088C044F059EC0AF02E0E426E320E436E6F
:1015E400020E446E85C045F086C046F010EC0CF047
:1015F4000001882B1A50885DD8B0AED7B1D745C04A
:1016040042F028EC0CF00009D8B402D0000E12000D
:101614004550D96EDA6A010ED926DF50476E45501F
:10162400D96EDA6ADF50486E4550D96EDA6A020E16
:10163400D926DF504724496E4850495CD8A002D0CF
:101644004850495E4550D96EDA6A030ED926DF50F8
:101654004924D96EDA6A46C0DFFF472A4550D96E5D
:10166400DA6A010ED92647C0DFFF010E120043C01B
:1016740042F061EC0CF00009D8B402D0000E120064
:101684004350D96EDA6A020ED926DF50466E4350B3
:10169400D96EDA6A030ED926DF504624D96EDA6A87
:1016A400DF50456E462A4350D96EDA6A010ED926B8
:1016B400DF064350D96EDA6ADE50465CD8A002D009
:1016C400000E466E4350D96EDA6A020ED92646C021
:1016D400DFFF455012006DEC0CF02A0E426E780EBE
:1016E400436E080EDAEC0BF0010E186E060E486E0F
:1016F400130E496E94EC0BF0DC0E486E130E496E1B
:1017040094EC0BF0000E486E120E496E94EC0BF044
:10171400140E486E100E496E94EC0BF055EC0CF060
:1017240059EF00F0050E1A6401D012001A50040D8E
:10173400F350600F4A6E1A2A4A50D96EDA6A020EC2
:10174400D92648C0DEFF49C0DDFF4A50D96EDA6AA7
:10175400000EDE6E000EDD6E1E0E426E330E436E04
:10176400060E446E4AC045F0466A10EC0CF01200B6
:10177400000ED56ED59CD59AD586F00ED76E930EF5
:10178400D66E44504510D8B405D044C00FF045C0BF
:1017940010F004D0FC0E0F6E180E106E700E426E18
:1017A400180E436E74EC0CF0F294F28AD58E12008B
:1017B400446E4250D96EDA6A44C0DFFF4250D96E9B
:1017C400DA6A020ED926000EDF6E4250D96EDA6A4A
:1017D400010ED926000EDF6E4250D96EDA6A030E6E
:1017E400D92643C0DFFF1200FE0EF66E180EF76E08
:1017F400000EF86E0900F5CF4FF000EE60F0200EF9
:10180400EE6AE806FDE100EE01F0330EEE6AE8064A
:10181400FDE15090509200016DEF0BF04350D96EF2
:10182400DA6ADF50476E4450475CD8B01200475024
:10183400020D4250F324D96EDA6A45C0DEFF46C079
:10184400DDFF4350D96EDA6ADF2A12004250D96EA6
:10185400DA6A4250E16EE26A010EE126DE50E65C8D
:10186400D8A002D0010E1200000E1200F00ED76EA6
:10187400930ED66E01D812000500FA6E0F50FD6E5D
:101884001050FE6EFF6AFA501200F2CF1BF0F29E67
:101894000DC044F00EC045F01BBEF28E44C042F0B1
:1018A40045C043F012007CEC0CF0F20E446E180EAE
:1018B400456EBAEC0BF0F28EAEEC0AF01200425018
:1018C400D96EDA6A010ED926DF50D8A402D0010EEF
:1018D4001200000E1200730ED36E040ED26E000EB0
:1018E4009B6E120042C015F043C016F012000D4A60
:0B18F4000E2A1200D09E12001200010C
:020000040020DA
:08000000FFFFFFFFFFFFFFFF00
:020000040030CA
:0E000000FF380E3CFF3D85FF0FC00FE00F40A4
:00000001FF
