:0400000059EF00F0C4
:100008004E82FACF2AF0FBCF2BF0E9CF2CF0EACFC3
:100018002DF0E1CF2EF0E2CF2FF0D9CF30F0DACFAC
:1000280031F0F3CF32F0F4CF33F0F6CF34F0F7CF2E
:1000380035F0F8CF36F0F5CF37F0F2B4F2A40CD0A3
:10004800F29401D814D00500FA6E1550FD6E1650C2
:10005800FE6EFF6AFA501200F2AC09D09DBA9EAA51
:1000680002D09E9A04D09DB89EA801D09E9837C011
:10007800F5FF36C0F8FF35C0F7FF34C0F6FF33C0D0
:10008800F4FF32C0F3FF31C0DAFF30C0D9FF2FC010
:10009800E2FF2EC0E1FF2DC0EAFF2CC0E9FF2BC014
:0E00A800FBFF2AC0FAFF4E92110003EF0CF08E
:1010000000C0F9A4B0999282F880908883C6A18626
:031010008EBF0090
:10101400E2D0000E8B6E000E0F013A6F000E946E3C
:10102400000E8A6EF00E396FF00E936EF00E8A1673
:101034000950010F436E43C0F6FF100EF76EF86AB5
:101044000800F5CF8BFF8A80000E046E050E036E38
:1010540043EC0CF038C001F039C002F04250D96EB4
:10106400DA6A020ED926BC0EDE6E000EDD6E43EC8B
:101074000CF00150385E0250395A0350385C045069
:101084003958D8B002D0000E12000C50D8A406D0A3
:101094000B50D8A403D00A50D8B42DD0F00E8A1621
:1010A4000A50010F436E43C0F6FF100EF76EF86A44
:1010B4000800F5CF8BFF8A82000E046E050E036EC6
:1010C40043EC0CF038C001F039C002F04250D96E44
:1010D400DA6A020ED926C30EDE6E000EDD6E43EC14
:1010E4000CF00150385E0250395A0350385C0450F9
:1010F4003958D8A0C8D70C50D8A403D00B50D8B4B2
:101104002DD0F00E8A160B50010F436E43C0F6FF2C
:10111400100EF76EF86A0800F5CF8BFF8A84000E74
:10112400046E050E036E43EC0CF038C001F039C0B8
:1011340002F04250D96EDA6A020ED926CB0EDE6E68
:10114400000EDD6E43EC0CF00150385E0250395A4B
:101154000350385C04503958D8A095D70C50D8B4F3
:1011640065D7F00E8A160C50010F436E43C0F6FF8C
:10117400100EF76EF86A0800F5CF8BFF8A86000E12
:10118400046E050E036E43EC0CF038C001F039C058
:1011940002F04250D96EDA6A020ED926D30EDE6E00
:1011A400000EDD6E43EC0CF00150385E0250395AEB
:1011B4000350385C04503958D8A065D737D7020E8D
:1011C40012004250D96EDA6A020ED926000EDE6E83
:1011D400000EDD6E58D74250D96EDA6A020ED92657
:1011E400DECF43F0DDCF44F04450000AD8A4E9D761
:1011F4004350000AD8B40DD7BC0AD8B438D77F0AF4
:10120400D8B46DD7080AD8B49DD7180AD8B4CAD7A9
:101214000B0AD8B4D4D7D5D772D04250D96EDA6A73
:10122400020ED9267B0EDE6E000EDD6E260E386EA3
:101234001DEC0CF00009D8B402D0000E1200260EEA
:101244003B6E48EC0BF0436E4350466E476A000E0B
:101254000C6E05D0E80E465E030E475A0C2AE80EC3
:10126400465C030E4758D8B0F5D7000E0B6E05D078
:10127400640E465E000E475A0B2A4750F9E1640E8D
:10128400465CD8B0F5D7000E0A6E05D00A0E465E4D
:10129400000E475A0A2A4750F9E10A0E465CD8B0B4
:1012A400F5D746C009F0010E086EF40E076E43EC44
:1012B4000CF038C005F039C006F04250D96EDA6A35
:1012C400020ED926900EDE6E000EDD6E43EC0CF09D
:1012D4000550385E0650395A0750385C0850395862
:1012E400D8A0ABD79AD7020E12004250D96EDA6A50
:1012F400020ED926000EDE6E000EDD6E9ED7425021
:10130400D96EDA6A020ED926DECF43F0DDCF44F07F
:101314004450000AD8A4E9D74350000AD8B47DD772
:101324007B0AD8B483D7EB0AD8B4D0D7020AD8B48E
:10133400DAD7DBD7010E456E55D04250D96EDA6A42
:10134400020ED9263B0EDE6E000EDD6E1850D8A4B8
:1013540002D0000E120018064250D96EDA6A020E4C
:10136400D9263D0EDE6E000EDD6E260E386EE8ECDC
:101374000BF00009D8A4EDD74250D96EDA6A020EF8
:10138400D9263F0EDE6E000EDD6E260E3D6E17C0B2
:101394003EF00DEC0BF00009D8B4DBD7182A020E8E
:1013A4001726FD0E176402D0000E176E000E456E50
:1013B4004250D96EDA6A020ED926480EDE6E000E4D
:1013C400DD6E4550D8A4B9D7030E1200020E1200E8
:1013D4004250D96EDA6A020ED926000EDE6E000E75
:1013E400DD6EB7D74250D96EDA6A020ED926DECF47
:1013F40043F0DDCF44F04450000AD8A4E9D7435069
:10140400000AD8B49AD73B0AD8B4A0D7060AD8B4ED
:10141400ACD7020AD8B4B9D7770AD8B4D2D7030A5A
:10142400D8B4D4D7D5D7010E456E55D04250D96E15
:10143400DA6A020ED9265B0EDE6E000EDD6E1850DF
:10144400D8A402D0000E120018064250D96EDA6AEF
:10145400020ED9265D0EDE6E000EDD6E260E386E8F
:101464001DEC0CF00009D8A4EDD74250D96EDA6A0D
:10147400020ED9265F0EDE6E000EDD6E260E3D6E68
:101484004DC03EF00DEC0BF00009D8B4DBD7182AA0
:10149400020E4D264D28D8A402D0010E4D6E000E2A
:1014A400456E4250D96EDA6A020ED926680EDE6E97
:1014B400000EDD6E4550D8A4B9D7030E1200020EFB
:1014C40012004250D96EDA6A020ED926000EDE6E80
:1014D400000EDD6EB7D74250D96EDA6A020ED926F5
:1014E400DECF43F0DDCF44F04450000AD8A4E9D75E
:1014F4004350000AD8B49AD75B0AD8B4A0D7060AD6
:10150400D8B4ACD7020AD8B4B9D7370AD8B4D2D72A
:10151400030AD8B4D4D7D5D7000E4A6E39D04A506E
:10152400060DF350600F4C6E4C50D8B430D04C5074
:10153400D96EDA6A040ED926DECF48F0DDCF49F041
:1015440048504910D8B423D04C50D96EDA6A010EF1
:10155400D926DF504B6E020E4B18D8B418D04B046A
:10156400D8B415D04CC042F001D809D00500FA6EA9
:101574004850FD6E4950FE6EFF6AFA5012004B6EE1
:101584004C50D96EDA6A010ED9264BC0DFFF4A2AC5
:101594001A504A5CD8B0C0D7C2D7050E1A6401D01D
:1015A4001200000E3C6E0ED03C50060DF350640F3A
:1015B400D96EDA6ADE50381804E1DE503918D8B42E
:1015C40012003C2A1A503C5CD8A0EED71A50060DE3
:1015D400F350600F3D6E3D50D96EDA6A1AC0DFFFDA
:1015E4003D50D96EDA6A010ED926000EDF6E3D50E9
:1015F400D96EDA6A040ED92638C0DEFF39C0DDFFA1
:101604003D50D96EDA6A020ED926000EDE6E000E47
:10161400DD6E1A2A12003D50D8B407D03DC038F010
:10162400E8EC0BF00009D8B402D0000E12003D50D3
:10163400D96EDA6A010ED926DF503F6E3D50D96E5D
:10164400DA6ADF50406E3D50D96EDA6A020ED9264E
:10165400DF503F24416E4050415CD8A002D040503E
:10166400415E3D50D96EDA6A030ED926DF5041241B
:10167400D96EDA6A3EC0DFFF3F2A3D50D96EDA6A7E
:10168400010ED9263FC0DFFF010E12003B50D8B433
:1016940007D03BC038F01DEC0CF00009D8B402D0E0
:1016A400000E12003B50D96EDA6A020ED926DF50C2
:1016B4003E6E3B50D96EDA6A030ED926DF503E24C3
:1016C400D96EDA6ADF503D6E3E2A3B50D96EDA6A33
:1016D400010ED926DF063B50D96EDA6ADE503E5C35
:1016E400D8A002D0000E3E6E3B50D96EDA6A020ECC
:1016F400D9263EC0DFFF3D5012005DEC0CF0260EF3
:10170400386E1E0E396E080EA6EC0BF0010E186E24
:10171400380E386E130E396ECFEC0AF02A0E386E7E
:10172400140E396ECFEC0AF01C0E386E120E396EA0
:10173400CFEC0AF0140E386E100E396ECFEC0AF0AE
:1017440051EC0CF059EF00F03A6E3850D8B4120056
:101754003950D8B412003850D96EDA6A3AC0DFFF73
:101764003850D96EDA6A020ED926000EDF6E385070
:10177400D96EDA6A010ED926000EDF6E3850D96EA2
:10178400DA6A030ED92639C0DFFF1200000ED56EC7
:10179400D59CD59AD586F00ED76E930ED66E3A5058
:1017A4003B10D8B405D03AC00FF03BC010F004D0C1
:1017B400DC0E0F6E180E106E680E386E180E396E31
:1017C40064EC0CF0F294F28AD58E12003850D8B43E
:1017D40012D03850D96EDA6A3850E16EE26A010EDE
:1017E400E126DE50E65CD8A002D0010E01D0000E46
:1017F4003B6E3C6A04D0000E3C6E010E3B6E3B50C7
:101804001200DE0EF66E180EF76E000EF86E09006A
:10181400F5CF4DF000EE60F0240EEE6AE806FDE12F
:1018240000EE01F0290EEE6AE806FDE14E904E92BC
:1018340000017FEF0BF03850D8B40ED03850D96E79
:10184400DA6A010ED926DF50D8A402D0010E01D0E5
:10185400000E396E3A6A04D0000E3A6E010E396EEB
:1018640039501200F00ED76E930ED66E01D81200C6
:101874000500FA6E0F50FD6E1050FE6EFF6AFA50AE
:101884001200F2CF1BF0F29E0DC03AF00EC03BF0F6
:101894001BBEF28E3AC038F03BC039F012006CEC3B
:1018A4000CF0D20E3A6E180E3B6EC8EC0BF0F28EB2
:1018B4008EEC0AF01200730ED36E040ED26E000E7C
:1018C4009B6E120038C015F039C016F012000D4A94
:0B18D4000E2A1200D09E12001200012C
:020000040020DA
:08000000FFFFFFFFFFFFFFFF00
:020000040030CA
:0E000000FF380E3CFF3D85FF0FC00FE00F40A4
:00000001FF
