:020000040000FA
:0400000059EF00F0C4
:100008005182FACF39F0FBCF3AF0E9CF3BF0EACF93
:100018003CF0E1CF3DF0E2CF3EF0D9CF3FF0DACF70
:1000280040F0F3CF41F0F4CF42F0F6CF43F0F7CFF2
:1000380044F0F8CF45F0F5CF46F0F2B4F2A40CD076
:10004800F29401D814D00500FA6E2150FD6E2250AA
:10005800FE6EFF6AFA501200F2AC09D09DBA9EAA51
:1000680002D09E9A04D09DB89EA801D09E9846C002
:10007800F5FF45C0F8FF44C0F7FF43C0F6FF42C094
:10008800F4FF41C0F3FF40C0DAFF3FC0D9FF3EC0D4
:10009800E2FF3DC0E1FF3CC0EAFF3BC0E9FF3AC0D8
:0E00A800FBFF39C0FAFF5192110061EF0DF01D
:10100000000E32003C00460050005A006400C80048
:101010002C019001F4015802BC0220038403E80370
:0110200000CF
:1010220017D18A9A0F01399B939A81BA04D0000191
:10103200906B902B02D00001906B903B90478150B7
:101042009019DF0B9019816E000E106E320E0F6E2A
:10105200A2EC0DF047C00DF048C00EF04EC0D9FF13
:101062004FC0DAFF890EDE6E000EDD6EA2EC0DF0CF
:101072000D50475E0E50485A0F50475C105048586A
:10108200D8B002D0000E120081BA04D00001906BD9
:10109200902B02D00001906B903B904781509019A9
:1010A200DF0B9019816E000E106E320E0F6EA2ECE5
:1010B2000DF047C00DF048C00EF04EC0D9FF4FC032
:1010C200DAFF8D0EDE6E000EDD6EA2EC0DF00D501D
:1010D200475E0E50485A0F50475C10504858D8A0EF
:1010E200D1D781BA04D00001906B902B02D00001BD
:1010F200906B903B904781509019DF0B9019816E55
:10110200000E106E320E0F6EA2EC0DF047C00DF005
:1011120048C00EF04EC0D9FF4FC0DAFF910EDE6E0E
:10112200000EDD6EA2EC0DF00D50475E0E50485AD7
:101132000F50475C10504858D8A0A4D781BA04D0A9
:101142000001906B902B02D00001906B903B904776
:1011520081509019DF0B9019816E000E106E320EC5
:101162000F6EA2EC0DF047C00DF048C00EF04EC05D
:10117200D9FF4FC0DAFF950EDE6E000EDD6EA2ECD7
:101182000DF00D50475E0E50485A0F50475C1050FC
:101192004858D8A077D781BA04D00001906B902B21
:1011A20002D00001906B903B904781509019DF0B69
:1011B2009019816E000E106E320E0F6EA2EC0DF0C1
:1011C20047C00DF048C00EF04EC0D9FF4FC0DAFF45
:1011D200990EDE6E000EDD6EA2EC0DF00D50475E34
:1011E2000E50485A0F50475C10504858D8A04AD762
:1011F20081BA04D00001906B902B02D00001906B59
:10120200903B904781509019DF0B9019816E030E2D
:10121200106EE80E0F6EA2EC0DF047C00DF048C044
:101222000EF04EC0D9FF4FC0DAFF9D0EDE6E000EEB
:10123200DD6EA2EC0DF00D50475E0E50485A0F5075
:10124200475C10504858D8A01DD7EFD6020E1200A6
:101252004EC0D9FF4FC0DAFFDECF90F0DDCF91F064
:101262009151000AD8A419D09051000AD8B4D9D605
:10127200890AD8B4FBD6040AD8B427D71C0AD8B432
:1012820051D7040AD8B47BD70C0AD8B4A5D7040A1C
:10129200D8B4CFD73D0AD8B4D9D7010E12008FD017
:1012A2008A920F0139939392000E256E010E246EDD
:1012B2002450D8B408D00E0E2518D8A402D0000E9F
:1012C20006D0252A07D02550D8A403D0010E246EBB
:1012D20001D0250681B204D00001906B902B02D080
:1012E2000001906B904781509019FD0B9019816E0F
:1012F2002550020DF350020F906F90C0F6FF100EB2
:10130200F76EF86A0900F5CF13F00A00F5CF14F072
:10131200A2EC0DF047C011F048C012F04EC0D9FF48
:101322004FC0DAFF6B0EDE6E000EDD6EA2EC0DF02A
:101332001150475E1250485A1350475C1450485897
:10134200D8B002D0000E120081B204D00001906B1E
:10135200902B02D00001906B904781509019FD0BA9
:101362009019816E2550020DF350020F906F90C0BC
:10137200F6FF100EF76EF86A0900F5CF13F00A00B7
:10138200F5CF14F0A2EC0DF047C011F048C012F0F6
:101392004EC0D9FF4FC0DAFF6F0EDE6E000EDD6E5B
:1013A200A2EC0DF01150475E1250485A1350475CA0
:1013B20014504858D8A0C6D77BD7020E12004EC090
:1013C200D9FF4FC0DAFFDECF90F0DDCF91F091511F
:1013D200000AD8A40DD09051000AD8B461D76B0A84
:1013E200D8B4A4D7040AD8B4DBD71C0AD8B4E5D73A
:1013F200010E120063D09D9C9E9CAF0EC06E000E2B
:10140200C16E9280C280C2824EC0D9FF4FC0DAFF45
:10141200E20EDE6E000EDD6EC2A202D0000E1200DF
:10142200000E0001946F000E936FC450916F906B89
:101432009051931391519413C350931393C017F087
:1014420094C018F0945109E1330E935DD8B005D0E1
:10145200000E166E0A0E156E0ED093C047F094C0A1
:1014620048F0000E4A6E050E496EF2EC0CF047C0D1
:1014720015F048C016F0010E276E010E086EF40E2C
:10148200076EA2EC0DF047C005F048C006F04EC052
:10149200D9FF4FC0DAFFF30EDE6E000EDD6EA2EC56
:1014A2000DF00550475E0650485A0750475C0850F9
:1014B2004858D8A0B3D7A7D7020E12004EC0D9FF02
:1014C2004FC0DAFFDECF90F0DDCF91F09151000AEC
:1014D200D8A40DD09051000AD8B48DD7E20AD8B45E
:1014E2009BD7110AD8B4DBD7050AD8B4E5D7010EC9
:1014F200120056D0000E8C6E000E0F013B6F000ED4
:10150200956E010E8C6E4EC0D9FF4FC0DAFF190ED8
:10151200DE6E010EDD6E2B04D8B402D0000E120076
:10152200000E2B6E0A0E5018D8A403D02AC08CFFCE
:10153200EAD7140E5018D8B40FD0E5D78C68E3D789
:101542007F0EE0D73F0EDED71F0EDCD70F0EDAD7A5
:10155200070ED8D7030ED6D728500001906F916B93
:101562009151000AD8A4CFD79051000AD8B4E6D737
:10157200010AD8B4E5D7030AD8B4E4D7010AD8B42B
:10158200E3D7070AD8B4E2D7010AD8B4E1D7030AED
:10159200D8B4E0D7010AD8B4B4D7B5D7020E120036
:1015A2004EC0D9FF4FC0DAFFDECF90F0DDCF91F011
:1015B2009151000AD8B404D0010AD8B406D00CD094
:1015C2009051000AD8B496D707D09051190AD8B4CE
:1015D200A2D7320AD8B4E2D7010E12004DD00F01C1
:1015E20039998A9893884EC0D9FF4FC0DAFF390ED5
:1015F200DE6E010EDD6E81A802D0000E1200000E1A
:10160200046E640E036EA2EC0DF047C001F048C0F8
:1016120002F04EC0D9FF4FC0DAFF3A0EDE6E010E65
:10162200DD6EA2EC0DF00150475E0250485A0350A5
:10163200475C04504858D8A0E0D781B8D4D70A0EE6
:101642005018D8B405D0000E0001946F0A0E04D0D1
:10165200000E0001946F140E936F93C050F04EC0B1
:10166200D9FF4FC0DAFF440EDE6E010EDD6E81A897
:10167200C4D7B9D7020E12004EC0D9FF4FC0DAFF4D
:10168200DECF90F0DDCF91F09151000AD8B404D0B2
:10169200010AD8B406D012D09051000AD8B49FD70C
:1016A2000DD09051390AD8B4A6D7030AD8B4B9D705
:1016B2007E0AD8B4DCD7030AD8B4DCD7010E1200F4
:1016C2004FD0010E2A6E010E236E000E166E320EE0
:1016D200156E4EC0D9FF4FC0DAFFB70EDE6E000E98
:1016E200DD6E0A0E5018D8B402D0000E120023503C
:1016F200D8B408D0D8902A36800E2A18D8A409D097
:10170200000E06D0D8902A322A04D8A402D0010EA4
:10171200236E0A0E5018D8A402D0010E2B6E15C0EB
:101722000BF016C00CF0A2EC0DF047C009F048C057
:101732000AF04EC0D9FF4FC0DAFFC60EDE6E000EB1
:10174200DD6EA2EC0DF00950475E0A50485A0B506C
:10175200475C0C504858D8A0C8D7BBD7020E12001D
:101762004EC0D9FF4FC0DAFFDECF90F0DDCF91F04F
:101772009151000AD8A40DD09051000AD8B4A1D733
:10178200B70AD8B4AED7710AD8B4DBD70F0AD8B427
:10179200E5D7010E12004850D96EDA6ADF50906F19
:1017A2009051495CD8B012004950D8B41200495047
:1017B2004A6E4B6AFF0E4C6EFF0E4D6E90514E6E8E
:1017C2004F6A4C504E264D504F224A504E1813E14C
:1017D2004B504F18D8A40FD04950020D4750F32454
:1017E200D96EDA6A000EDE6E000EDD6E4850D96EDA
:1017F200DA6ADF06120049C091F04950020D4750E3
:10180200F324D96EDA6A000EDE6E000EDD6E13D09E
:101812009151020D4750F324D96EDA6A020ED9268D
:101822009151020D4750F324E16EE26ADECFE6FFEA
:10183200DDCFE5FF912B9051915DD8B0D7D7E8D796
:10184200000E00019A6F4AD09A51020DF350800F98
:10185200D96EDA6ADECF4EF0DDCF4FF09A51020D2B
:10186200F350800FD96EDA6A10EE02F0DE50E126F4
:10187200DD50E222E6CF95F0E5CF96F001D809D00F
:101882000500FA6E9551FD6E9651FE6EFF6AFA5092
:1018920012000001996F9905D8A41ED09A51020D29
:1018A200F350800FD96EDA6ADECF97F0DDCF98F071
:1018B200800E476E380E486E9AC049F0CCEC0BF0A1
:1018C200310E476E370E486E030E496E97C04AF0CE
:1018D20098C04BF07BEC0DF000019A2B2D509A5DD5
:1018E200D8B0AED7B1D72CD04EC0D9FF4FC0DAFF97
:1018F200FD0EDE6E000EDD6E140E5018D8B402D04E
:10190200000E12004EC0D9FF4FC0DAFFFE0EDE6E8F
:10191200000EDD6E2704D8A4F3D7000E276E17C081
:1019220047F018C048F0000E4A6E8B0E496EF2EC7A
:101932000CF04750286E010E2B6ED6D7020E120005
:101942004EC0D9FF4FC0DAFFDECF90F0DDCF91F06D
:101952009151000AD8B404D0010AD8B40CD00FD0E7
:101962009051000AD8B4C0D7FD0AD8B4C5D7030A2B
:10197200D8B4D0D704D09051030AD8B4DFD7010E1F
:101982001200BCEC0DF0A00E4D6E120E4E6E1BEC52
:101992000DF0220E4D6E100E4E6E1BEC0DF0C20EAF
:1019A2004D6E160E4E6E1BEC0DF0F60E4D6E130EB6
:1019B2004E6E1BEC0DF0E80E4D6E180E4E6E1BECCB
:1019C2000DF0F40E4D6E140E4E6E1BEC0DF0DE0E8D
:1019D2004D6E150E4E6E1BEC0DF0B0EC0DF059EF86
:1019E20000F0000E4D6E000E4C6E49504A10D8B4F5
:1019F2001CD0010E4B6E04D0D89049364A364B2A81
:101A02004AAEFAD7D8904C364D364950475C4A50C8
:101A12004858D8A005D04950475E4A50485A4C8091
:101A2200D8904A3249324B2EEDD74CC047F04DC0C8
:101A320048F01200070E2D6401D012002D50040D43
:101A4200F350600F4F6E2D2A4F50D96EDA6A020E94
:101A5200D9264DC0DEFF4EC0DDFF4F50D96EDA6A87
:101A6200000EDE6E000EDD6E800E476E380E486E82
:101A7200080E496E4FC04AF04B6A7BEC0DF0120023
:101A8200000ED56ED59CD59AD586F00ED76E930EE4
:101A9200D66E49504A10D8B405D049C01BF04AC08E
:101AA2001CF004D09A0E1B6E1B0E1C6E260E476E87
:101AB2001B0E486EC3EC0DF0F294F28AD58E120022
:101AC2009C0EF66E1B0EF76E000EF86E0900F5CF37
:101AD20050F000EE60F0300EEE6AE806FDE100EE36
:101AE20001F0380EEE6AE806FDE1519051920001D4
:101AF200C2EF0CF04850D96EDA6ADF504C6E495092
:101B02004C5CD8B012004C50020D4750F324D96EF1
:101B1200DA6A4AC0DEFF4BC0DDFF4850D96EDA6A8E
:101B2200DF2A1200F00ED76E930ED66E01D8120085
:101B32000500FA6E1B50FD6E1C50FE6EFF6AFA50D5
:101B42001200F2CF2EF0F29E19C049F01AC04AF0EC
:101B52002EBEF28E49C047F04AC048F01200CBECCC
:101B62000DF0900E496E1B0E4A6E41EC0DF0F28E96
:101B720021EC0CF01200730ED36E040ED26E000E26
:101B82009B6E120047C021F048C022F01200194A91
:0B1B92001A2A1200D09E120012000A56
:020000040020DA
:08000000FFFFFFFFFFFFFFFF00
:020000040030CA
:0E000000FF380E3CFF3D85FF0FC00FE00F40A4
:00000001FF
