:0400000059EF00F0C4
:100008004D82FACF31F0FBCF32F0E9CF33F0EACFAF
:1000180034F0E1CF35F0E2CF36F0D9CF37F0DACF90
:1000280038F0F3CF39F0F4CF3AF0F6CF3BF0F7CF12
:100038003CF0F8CF3DF0F5CF3EF0F2B4F2A40CD08E
:10004800F29401D814D00500FA6E2150FD6E2250AA
:10005800FE6EFF6AFA501200F2AC09D09DBA9EAA51
:1000680002D09E9A04D09DB89EA801D09E983EC00A
:10007800F5FF3DC0F8FF3CC0F7FF3BC0F6FF3AC0B4
:10008800F4FF39C0F3FF38C0DAFF37C0D9FF36C0F4
:10009800E2FF35C0E1FF34C0EAFF33C0E9FF32C0F8
:0E00A800FBFF31C0FAFF4D92110058EF0DF032
:10100000000E32003C00460050005A006400C80048
:101010002C019001F4015802BC0220038403E80370
:0110200000CF
:101022001BD18A9A0F01399B939A81BA03D0476ADE
:10103200472A01D0476A473A474681504718DF0B93
:101042004718816E000E106E320E0F6E81EC0DF09D
:101052003FC00DF040C00EF04650D96EDA6A020E63
:10106200D926880EDE6E000EDD6E81EC0DF00D507D
:101072003F5E0E50405A0F503F5C10504058D8B05F
:1010820002D0000E120081BA03D0476A472A01D06B
:10109200476A473A474681504718DF0B4718816E27
:1010A200000E106E320E0F6E81EC0DF03FC00DF08F
:1010B20040C00EF04650D96EDA6A020ED9268C0E66
:1010C200DE6E000EDD6E81EC0DF00D503F5E0E50B7
:1010D200405A0F503F5C10504058D8A0D2D781BA26
:1010E20003D0476A472A01D0476A473A47468150A8
:1010F2004718DF0B4718816E000E106E320E0F6E0E
:1011020081EC0DF03FC00DF040C00EF04650D96E9C
:10111200DA6A020ED926900EDE6E000EDD6E81ECCA
:101122000DF00D503F5E0E50405A0F503F5C105074
:101132004058D8A0A6D781BA03D0476A472A01D01F
:10114200476A473A474681504718DF0B4718816E76
:10115200000E106E320E0F6E81EC0DF03FC00DF0DE
:1011620040C00EF04650D96EDA6A020ED926940EAD
:10117200DE6E000EDD6E81EC0DF00D503F5E0E5006
:10118200405A0F503F5C10504058D8A07AD781BACD
:1011920003D0476A472A01D0476A473A47468150F7
:1011A2004718DF0B4718816E000E106E320E0F6E5D
:1011B20081EC0DF03FC00DF040C00EF04650D96EEC
:1011C200DA6A020ED926980EDE6E000EDD6E81EC12
:1011D2000DF00D503F5E0E50405A0F503F5C1050C4
:1011E2004058D8A04ED781BA03D0476A472A01D0C7
:1011F200476A473A474681504718DF0B4718816EC6
:10120200030E106EE80E0F6E81EC0DF03FC00DF074
:1012120040C00EF04650D96EDA6A020ED9269C0EF4
:10122200DE6E000EDD6E81EC0DF00D503F5E0E5055
:10123200405A0F503F5C10504058D8A022D7F5D6E4
:10124200020E12004650D96EDA6A020ED926000E3C
:10125200DE6E000EDD6E15D74650D96EDA6A020ECA
:10126200D926DECF47F0DDCF48F04850000AD8A497
:10127200E9D74750000AD8B4D4D6880AD8B4F5D6EC
:10128200040AD8B420D71C0AD8B449D7040AD8B45F
:1012920072D70C0AD8B49BD7040AD8B4C4D7030AAD
:1012A200D8B4CED7CFD797D08A920F0139939392E1
:1012B200000E256E010E246E2450D8B408D00E0EF6
:1012C2002518D8A402D0000E06D0252A07D0255012
:1012D200D8A403D0010E246E01D0250681B203D01A
:1012E200476A472A01D0476A474681504718FD0B93
:1012F2004718816E2550020DF350020F476E47C00A
:10130200F6FF100EF76EF86A0900F5CF13F00A0027
:10131200F5CF14F081EC0DF03FC011F040C012F097
:101322004650D96EDA6A020ED9266A0EDE6E000EB9
:10133200DD6E81EC0DF011503F5E1250405A135099
:101342003F5C14504058D8B002D0000E120081B257
:1013520003D0476A472A01D0476A47468150471857
:10136200FD0B4718816E2550020DF350020F476E98
:1013720047C0F6FF100EF76EF86A0900F5CF13F0BA
:101382000A00F5CF14F081EC0DF03FC011F040C01F
:1013920012F04650D96EDA6A020ED9266E0EDE6E51
:1013A200000EDD6E81EC0DF011503F5E1250405A7E
:1013B20013503F5C14504058D8A0C7D77DD7020EB7
:1013C20012004650D96EDA6A020ED926000EDE6E7F
:1013D200000EDD6EBAD74650D96EDA6A020ED926F1
:1013E200DECF47F0DDCF48F04850000AD8A4E9D755
:1013F2004750000AD8B458D76A0AD8B49AD7040A10
:10140200D8B4D0D71C0AD8B4DAD7DBD76ED09D9C1B
:101412009E9CAF0EC06E000EC16E9280C280C282D0
:101422004650D96EDA6A020ED926E10EDE6E000E41
:10143200DD6EC2A202D0000E1200000E4B6E000E34
:101442004A6EC450486E476A47504A1248504B127F
:10145200C3504A124AC017F04BC018F04B5009E172
:10146200330E4A5CD8B005D0000E166E0A0E156E09
:101472000ED04AC03FF04BC040F0000E426E050E47
:10148200416E0FEC0DF03FC015F040C016F0010E9A
:10149200276E010E086EF40E076E81EC0DF03FC050
:1014A20005F040C006F04650D96EDA6A020ED9261F
:1014B200F20EDE6E000EDD6E81EC0DF005503F5E29
:1014C2000650405A07503F5C08504058D8A0B3D746
:1014D200A6D7020E12004650D96EDA6A020ED9263B
:1014E200000EDE6E000EDD6EA6D74650D96EDA6AA9
:1014F200020ED926DECF47F0DDCF48F04850000A71
:10150200D8A4E9D74750000AD8B481D7E10AD8B4A1
:1015120090D7130AD8B4D0D7070AD8B4DAD7DBD712
:1015220060D0000E8C6E000E0F013B6F000E956EA8
:10153200010E8C6E4650D96EDA6A020ED926180E4A
:10154200DE6E010EDD6E2B04D8B402D0000E120046
:10155200000E2B6E0A0E4C18D8A403D02AC08CFFA2
:10156200E9D7140E4C18D8B40FD0E4D78C68E2D760
:101572007F0EDFD73F0EDDD71F0EDBD70F0ED9D779
:10158200070ED7D7030ED5D72850476E486A485062
:10159200000AD8A4CFD74750000AD8B4E7D7010A27
:1015A200D8B4E6D7030AD8B4E5D7010AD8B4E4D749
:1015B200070AD8B4E3D7010AD8B4E2D7030AD8B4E9
:1015C200E1D7010AD8B4B4D7B5D7020E12004650FB
:1015D200D96EDA6A020ED926000EDE6E000EDD6EBC
:1015E200B5D74650D96EDA6A020ED926DECF47F059
:1015F200DDCF48F04850000AD8B404D0010AD8B46C
:1016020006D0E5D74750000AD8B48BD7E0D7475069
:10161200180AD8B498D7320AD8B4D7D7D8D758D05E
:101622000F0139998A9893884650D96EDA6A020E68
:10163200D926380EDE6E010EDD6E81A802D0000EB4
:101642001200000E046E640E036E81EC0DF03FC0BA
:1016520001F040C002F04650D96EDA6A020ED92675
:10166200390EDE6E010EDD6E81EC0DF001503F5E33
:101672000250405A03503F5C04504058D8A0DFD774
:1016820081B8D2D70A0E4C18D8B404D0000E4B6ED3
:101692000A0E03D0000E4B6E140E4A6E4AC04CF076
:1016A2004650D96EDA6A020ED926430EDE6E010E5C
:1016B200DD6E81A8C4D7B8D7020E12004650D96E8B
:1016C200DA6A020ED926000EDE6E000EDD6EB7D784
:1016D2004650D96EDA6A020ED926DECF47F0DDCF48
:1016E20048F04850000AD8B404D0010AD8B406D051
:1016F200E5D74750000AD8B493D7E0D74750380A05
:10170200D8B49BD7010AD8B4AFD77A0AD8B4D1D704
:10171200050AD8B4D1D7D2D75BD0010E2A6E010EFA
:10172200236E000E166E320E156E4650D96EDA6AB0
:10173200020ED926B60EDE6E000EDD6E0A0E4C18B3
:10174200D8B402D0000E12002350D8B408D0D890DA
:101752002A36800E2A18D8A409D0000E06D0D890B6
:101762002A322A04D8A402D0010E236E0A0E4C1883
:10177200D8A402D0010E2B6E15C00BF016C00CF0CF
:1017820081EC0DF03FC009F040C00AF04650D96E1E
:10179200DA6A020ED926C50EDE6E000EDD6E81EC0F
:1017A2000DF009503F5E0A50405A0B503F5C0C50FE
:1017B2004058D8A0C7D7B9D7020E12004650D96EEA
:1017C200DA6A020ED926000EDE6E000EDD6EBAD780
:1017D2004650D96EDA6A020ED926DECF47F0DDCF47
:1017E20048F04850000AD8A4E9D74750000AD8B4B4
:1017F20094D7B60AD8B4A2D7730AD8B4D0D70D0AF0
:10180200D8B4DAD7DBD738D04650D96EDA6A020EAE
:10181200D926FC0EDE6E000EDD6E140E4C18D8B406
:1018220002D0000E12004650D96EDA6A020ED92694
:10183200FD0EDE6E000EDD6E2704D8A4F2D7000E78
:10184200276E17C03FF018C040F0000E426E8B0E9C
:10185200416E0FEC0DF03F50286E010E2B6ED4D767
:10186200020E12004650D96EDA6A020ED926000E16
:10187200DE6E000EDD6ED5D74650D96EDA6A020EE4
:10188200D926DECF47F0DDCF48F04850000AD8B461
:1018920004D0010AD8B40CD0E5D74750000AD8B416
:1018A200B3D7FC0AD8B4B9D7010AD8B4C5D7DAD7A6
:1018B2004750020AD8B4D4D7D5D7000E0001926F90
:1018C2003AD09251060DF350600F946F9451D8B4F0
:1018D20031D09451D96EDA6A040ED926DECF90F057
:1018E200DDCF91F090519111D8B424D09451D96E9A
:1018F200DA6A010ED926DF50936F020E9319D8B41B
:1019020019D09305D8B416D094C046F001D809D0A6
:101912000500FA6E9051FD6E9151FE6EFF6AFA500B
:1019220012000001936F9451D96EDA6A010ED92622
:1019320093C0DFFF922B2D50925DD8B0BED7C1D796
:10194200070E2D6401D01200000E436E0ED04350DC
:10195200060DF350640FD96EDA6ADE503F1804E1C7
:10196200DE504018D8B41200432A2D50435CD8A050
:10197200EED72D50060DF350600F446E4450D96ED1
:10198200DA6A2DC0DFFF4450D96EDA6A010ED92619
:10199200000EDF6E4450D96EDA6A040ED9263FC0BB
:1019A200DEFF40C0DDFF4450D96EDA6A020ED9264E
:1019B200000EDE6E000EDD6E2D2A12009BEC0DF085
:1019C200A80E3F6E120E406EA1EC0CF0220E3F6E7E
:1019D200100E406EA1EC0CF01A0E3F6E170E406E08
:1019E200A1EC0CF00E0E3F6E140E406EA1EC0CF04A
:1019F200080E3F6E180E406EA1EC0CF0220E3F6EE8
:101A0200150E406EA1EC0CF0200E3F6E160E406ECD
:101A1200A1EC0CF08FEC0DF059EF00F0000E456ECA
:101A2200000E446E41504210D8B41CD0010E436ED9
:101A320004D0D89041364236432A42AEFAD7D890E3
:101A42004436453641503F5C42504058D8A005D0FC
:101A520041503F5E4250405A4480D8904232413217
:101A6200432EEDD744C03FF045C040F01200000EB7
:101A7200D56ED59CD59AD586F00ED76E930ED66EBE
:101A820041504210D8B405D041C01BF042C01CF0F6
:101A920004D0580E1B6E1B0E1C6EE40E3F6E1A0E07
:101AA200406EA2EC0DF0F294F28AD58E12005A0E1C
:101AB200F66E1B0EF76E000EF86E0900F5CF4CF0B5
:101AC20000EE60F0300EEE6AE806FDE100EE01F095
:101AD200300EEE6AE806FDE14D904D920001DFEF17
:101AE2000CF0F00ED76E930ED66E01D812000500E0
:101AF200FA6E1B50FD6E1C50FE6EFF6AFA50120009
:101B0200F2CF2EF0F29E19C041F01AC042F02EBE62
:101B1200F28E41C03FF042C040F01200AAEC0DF03C
:101B22004E0E416E1B0E426E38EC0DF0F28E5EECE4
:101B32000CF01200730ED36E040ED26E000E9B6E6A
:101B420012003FC021F040C022F01200194A1A2AA6
:091B52001200D09E120012000ADC
:020000040020DA
:08000000FFFFFFFFFFFFFFFF00
:020000040030CA
:0E000000FF380E3CFF3D85FF0FC00FE00F40A4
:00000001FF
