:020000040000FA
:0400000059EF00F0C4
:100008005082FACF2BF0FBCF2CF0E9CF2DF0EACFBE
:100018002EF0E1CF2FF0E2CF30F0D9CF31F0DACFA8
:1000280032F0F3CF33F0F4CF34F0F6CF35F0F7CF2A
:1000380036F0F8CF37F0F5CF38F0F2B4F2A40CD0A0
:10004800F29401D814D00500FA6E1550FD6E1650C2
:10005800FE6EFF6AFA501200F2AC09D09DBA9EAA51
:1000680002D09E9A04D09DB89EA801D09E9838C010
:10007800F5FF37C0F8FF36C0F7FF35C0F6FF34C0CC
:10008800F4FF33C0F3FF32C0DAFF31C0D9FF30C00C
:10009800E2FF2FC0E1FF2EC0EAFF2DC0E9FF2CC010
:0E00A800FBFF2BC0FAFF50921100FFEF0CF08F
:1010000000C0F9A4B0999282F880908883C6A18626
:071010008EBF141E28320000
:10101800D4D0000E8B6E000E0F013A6F000E946E46
:10102800000E8A6EF00E396FF00E936EF00E8A166F
:101038000950010F496E49C0F6FF100EF76EF86AA5
:101048000800F5CF8BFF8A80000E046E050E036E34
:101058003EEC0DF039C001F03AC002F047C0D9FFAC
:1010680048C0DAFFCD0EDE6E000EDD6E3EEC0DF0F0
:101078000150395E02503A5A0350395C04503A58CC
:10108800D8B002D0000E12000C50D8A406D00B50D5
:10109800D8A403D00A50D8B42CD0F00E8A160A501F
:1010A800010F496E49C0F6FF100EF76EF86A080086
:1010B800F5CF8BFF8A82000E046E050E036E3EECA0
:1010C8000DF039C001F03AC002F047C0D9FF48C05E
:1010D800DAFFD40EDE6E000EDD6E3EEC0DF0015030
:1010E800395E02503A5A0350395C04503A58D8A035
:1010F800C9D70C50D8A403D00B50D8B42CD0F00EBC
:101108008A160B50010F496E49C0F6FF100EF76E94
:10111800F86A0800F5CF8BFF8A84000E046E050E6E
:10112800036E3EEC0DF039C001F03AC002F047C042
:10113800D9FF48C0DAFFDC0EDE6E000EDD6E3EEC35
:101148000DF00150395E02503A5A0350395C045090
:101158003A58D8A097D70C50D8B468D7F00E8A164A
:101168000C50010F496E49C0F6FF100EF76EF86A71
:101178000800F5CF8BFF8A86000E046E050E036EFD
:101188003EEC0DF039C001F03AC002F047C0D9FF7B
:1011980048C0DAFFE40EDE6E000EDD6E3EEC0DF0A8
:1011A8000150395E02503A5A0350395C04503A589B
:1011B800D8A068D73BD7020E120047C0D9FF48C055
:1011C800DAFFDECF49F0DDCF4AF04A50000AD8A452
:1011D80013D04950000AD8B41CD7CD0AD8B446D782
:1011E800190AD8B47AD7080AD8B4A9D7380AD8B40B
:1011F800D5D70D0AD8B4DFD7010E1200010E986FAB
:101208007FD047C0D9FF48C0DAFF650EDE6E000EFA
:10121800DD6E210E396E58EC0DF00009D8B402D0FD
:10122800000E120047C0D9FF48C0DAFF670EDE6E15
:10123800000EDD6E210E3A6E940E3B6E040E3C6E6F
:10124800CDEC0AF00009D8B4EBD7000E00019A6F74
:10125800000E996F9951940FD96EDA6A9951940FCB
:10126800E16EE26AE750640FDF6E994B9A2B9ABFE2
:10127800F1D79A5104E1040E995DD8A0EBD747C085
:10128800D9FF48C0DAFF6E0EDE6E000EDD6E175015
:10129800D8B4C6D7170647C0D9FF48C0DAFF700EC2
:1012A800DE6E000EDD6E1D0E396E10EC0DF00009BD
:1012B800D8A4B6D747C0D9FF48C0DAFF720EDE6E91
:1012C800000EDD6E1D0E3C6E940E3D6E040E3E6EDD
:1012D800D2EC0BF00009D8B4A3D7172A000E0001EE
:1012E800986F47C0D9FF48C0DAFF780EDE6E000E4F
:1012F800DD6E9851D8A485D7030E1200020E120095
:1013080047C0D9FF48C0DAFFDECF49F0DDCF4AF049
:101318004A50000AD8A419D04950000AD8B471D745
:10132800650AD8B476D7020AD8B484D7090AD8B4DB
:10133800AED71E0AD8B4B7D7020AD8B4C3D70A0A98
:10134800D8B4D7D7030AD8B4D9D7010E1200120ED1
:10135800F66E100EF76E000EF86E0900F5CF4BF022
:101368000900F5CF4CF00900F5CF4DF00A00F5CF94
:101378004EF0010E4F6E64D047C0D9FF48C0DAFF67
:10138800400EDE6E000EDD6E210E396E10EC0DF093
:101398000009D8B402D0000E120047C0D9FF48C0D7
:1013A800DAFF420EDE6E000EDD6E210E3C6E4B0E35
:1013B8003D6E040E3E6ED2EC0BF00009D8B4EBD7AC
:1013C80047C0D9FF48C0DAFF450EDE6E000EDD6E5D
:1013D8001750D8B4E0D7170647C0D9FF48C0DAFF7E
:1013E800470EDE6E000EDD6E1D0E396E10EC0DF030
:1013F8000009D8A4D0D747C0D9FF48C0DAFF490EA2
:10140800DE6E000EDD6E1D0E3C6E4B0E3D6E040E44
:101418003E6ED2EC0BF00009D8B4BDD7172A000EE7
:101428004F6E47C0D9FF48C0DAFF4F0EDE6E000E80
:10143800DD6E4F50D8A4A0D7030E1200020E120082
:1014480047C0D9FF48C0DAFFDECF49F0DDCF4AF008
:101458004A50000AD8A419D04950000AD8B48CD7E9
:10146800400AD8B491D7020AD8B49FD7070AD8B48B
:10147800AFD7020AD8B4B8D70E0AD8B4C4D7060A68
:10148800D8B4D7D71D0AD8B4D9D7010E120066D060
:1014980047C0D9FF48C0DAFF8B0EDE6E000EDD6E46
:1014A8001D0E396E58EC0DF00009D8B402D0000EAC
:1014B80012001D0E3A6E23EC0CF0496E49504C6E2A
:1014C8004D6A000E0C6E05D0E80E4C5E030E4D5AA8
:1014D8000C2AE80E4C5C030E4D58D8B0F5D7000E18
:1014E8000B6E05D0640E4C5E000E4D5A0B2A4D5003
:1014F800F9E1640E4C5CD8B0F5D7000E0A6E05D041
:101508000A0E4C5E000E4D5A0A2A4D50F9E10A0E99
:101518004C5CD8B0F5D74CC009F0030E086EE80E45
:10152800076E3EEC0DF039C005F03AC006F047C032
:10153800D9FF48C0DAFFA00EDE6E000EDD6E3EEC6D
:101548000DF00550395E06503A5A0750395C08507C
:101558003A58D8A0ACD79CD7020E120047C0D9FF82
:1015680048C0DAFFDECF49F0DDCF4AF04A50000A22
:10157800D8A40DD04950000AD8B48AD78B0AD8B459
:101588008FD72B0AD8B4DBD7020AD8B4E5D7010E17
:1015980012003AC039F06BEC0DF03D6E3C503D5CEA
:1015A800D8B002D0000E12003A50D96EDA6ADF5075
:1015B800416E3A50D96EDA6A030ED926DF50426E70
:1015C8003A50D96EDA6A020ED926DF50466E3A5082
:1015D800D96EDA6A010ED926DF50436E000E456EC9
:1015E800000E446E3C50D8B421D042504624D96EE7
:1015F800DA6A3B504424E16EE26ADFCFE7FF462A0D
:1016080043064150465CD8A002D0000E466E444ABC
:10161800452A3C503D6E3E6A3D50445C4550800A28
:101628003F6E3E50800A3F58D8A0DFD73A50D96E57
:10163800DA6A020ED92646C0DFFF3A50D96EDA6A56
:10164800010ED92643C0DFFF405012003A50D96E30
:10165800DA6ADF50426E42503B5CD8B012003B5011
:10166800D8B412003B503C6E3D6AFF0E3E6EFF0E32
:101678003F6E4250406E416A3E5040263F504122E4
:101688003C50401813E13D504118D8A40FD03B50AE
:10169800020D3950F324D96EDA6A000EDE6E000EA0
:1016A800DD6E3A50D96EDA6ADF0612003BC043F0AD
:1016B8003B50020D3950F324D96EDA6A000EDE6E03
:1016C800000EDD6E13D04350020D3950F324D96E4D
:1016D800DA6A020ED9264350020D3950F324E16E1E
:1016E800E26ADECFE6FFDDCFE5FF432A4250435CE6
:1016F800D8B0D7D7E8D7000E0001A06F4AD0A051C4
:10170800020DF350780FD96EDA6ADECF47F0DDCFDD
:1017180048F0A051020DF350780FD96EDA6A10EE36
:1017280002F0DE50E126DD50E222E6CF9BF0E5CF65
:101738009CF001D809D00500FA6E9B51FD6E9C51B2
:10174800FE6EFF6AFA50120000019F6F9F05D8A431
:101758001ED0A051020DF350780FD96EDA6ADECF91
:101768009DF0DDCF9EF0780E396E2A0E3A6EA0C03D
:101778003BF02AEC0BF0250E396E290E3A6E020E5C
:101788003B6E9DC03CF09EC03DF0E7EC0CF00001C4
:10179800A02B1950A05DD8B0AED7B1D73CC039F056
:1017A80020EC0DF03F6E3E503F5CD8B002D0000EEA
:1017B80012003C50D96EDA6ADF50436E3C50D96E45
:1017C800DA6A030ED926DF50416E3C50D96EDA6AC8
:1017D800010ED926DF50426E3C50D96EDA6A020EED
:1017E800D926DF504224456E4350455CD8A002D02C
:1017F8004350455E000E446E3E50D8B417D03D505D
:101808004424D96EDA6A41504524E16EE26ADFCF9A
:10181800E7FF452A4350455CD8A002D04350455EB7
:10182800422A442A3E50445CD8A0E9D73C50D96E9D
:10183800DA6A010ED92642C0DFFF445012003AC0CE
:1018480039F058EC0DF00009D8B402D0000E12009F
:101858003A50D96EDA6A020ED926DF503D6E3A50F8
:10186800D96EDA6A030ED926DF503D24D96EDA6ABA
:10187800DF503C6E3D2A3A50D96EDA6A010ED926FD
:10188800DF063A50D96EDA6ADE503D5CD8A002D045
:10189800000E3D6E3A50D96EDA6A020ED9263DC066
:1018A800DFFF3C50120064EC0DF0210E396E8C0EF7
:1018B8003A6E080ECBEC0CF01D0E396E840E3A6EA3
:1018C800080ECBEC0CF0010E176E560E3F6E130E81
:1018D800406E85EC0CF0040E3F6E120E406E85ECE7
:1018E8000CF0960E3F6E140E406E85EC0CF0180E40
:1018F8003F6E100E406E85EC0CF04CEC0DF059EF7D
:1019080000F0050E196401D012001950040DF350AF
:10191800600F416E192A4150D96EDA6A020ED92633
:101928003FC0DEFF40C0DDFF4150D96EDA6A000ECD
:10193800DE6E000EDD6E780E396E2A0E3A6E060ED9
:101948003B6E41C03CF03D6AE7EC0CF01200000E23
:10195800D56ED59CD59AD586F00ED76E930ED66ED9
:101968003B503C10D8B405D03BC00FF03CC010F041
:1019780004D0F80E0F6E1A0E106E5E0E396E1A0E27
:101988003A6E72EC0DF0F294F28AD58E12003B6E2C
:101998003950D96EDA6A3BC0DFFF3950D96EDA6A3E
:1019A800020ED926000EDF6E3950D96EDA6A010EA2
:1019B800D926000EDF6E3950D96EDA6A030ED926A1
:1019C8003AC0DFFF12003A50D96EDA6ADF503E6E35
:1019D8003B503E5CD8B012003E50020D3950F32403
:1019E800D96EDA6A3CC0DEFF3DC0DDFF3A50D96EE1
:1019F800DA6ADF2A120000EE60F0340EEE6AE806BA
:101A0800FDE100EE01F02A0EEE6AE806FDE15090D5
:101A18005092000157EF0CF03950D96EDA6A3950FC
:101A2800E16EE26A010EE126DE50E65CD8A002D043
:101A3800010E1200000E12003950D96EDA6A010E3A
:101A4800D926DF503A6E3950D96EDA6ADF503B6ECC
:101A58003A503B5C1200F00ED76E930ED66E01D84A
:101A680012000500FA6E0F50FD6E1050FE6EFF6AF0
:101A7800FA501200F2CF1AF0F29E0DC03BF00EC0E1
:101A88003CF01ABEF28E3BC039F03CC03AF012006E
:101A98007AEC0DF0EE0E3B6E1A0E3C6EABEC0CF0D1
:101AA800F28E7FEC0BF012003950D96EDA6A010E13
:101AB800D926DF50D8A402D0010E1200000E120061
:101AC800730ED36E040ED26E000E9B6E1200395048
:101AD800D96EDA6A010ED926DF50120039C015F026
:101AE8003AC016F012000D4A0E2A1200D09E1200BB
:021AF8001200DA
:020000040020DA
:08000000FFFFFFFFFFFFFFFF00
:020000040030CA
:0E000000FF380E3CFF3D85FF0FC00FE00F40A4
:00000001FF
