:0400000059EF00F0C4
:100008005082FACF2DF0FBCF2EF0E9CF2FF0EACFB8
:1000180030F0E1CF31F0E2CF32F0D9CF33F0DACFA0
:1000280034F0F3CF35F0F4CF36F0F6CF37F0F7CF22
:1000380038F0F8CF39F0F5CF3AF0F2B4F2A40CD09A
:10004800F29401D814D00500FA6E1550FD6E1650C2
:10005800FE6EFF6AFA501200F2AC09D09DBA9EAA51
:1000680002D09E9A04D09DB89EA801D09E983AC00E
:10007800F5FF39C0F8FF38C0F7FF37C0F6FF36C0C4
:10008800F4FF35C0F3FF34C0DAFF33C0D9FF32C004
:10009800E2FF31C0E1FF30C0EAFF2FC0E9FF2EC008
:0E00A800FBFF2DC0FAFF5092110040EF0DF04B
:1010000000C0F9A4B0999282F880908883C6A18626
:071010008EBF141E28320000
:10101800E2D0000E8B6E000E0F013A6F000E946E38
:10102800000E8A6EF00E396FF00E936EF00E8A166F
:101038000950010F4B6E4BC0F6FF100EF76EF86AA1
:101048000800F5CF8BFF8A80000E046E050E036E34
:1010580060EC0DF03BC001F03CC002F04A50D96E84
:10106800DA6A020ED926CA0EDE6E000EDD6E60EC5C
:101078000DF001503B5E02503C5A03503B5C04505B
:101088003C58D8B002D0000E12000C50D8A406D09C
:101098000B50D8A403D00A50D8B42DD0F00E8A161D
:1010A8000A50010F4B6E4BC0F6FF100EF76EF86A30
:1010B8000800F5CF8BFF8A82000E046E050E036EC2
:1010C80060EC0DF03BC001F03CC002F04A50D96E14
:1010D800DA6A020ED926D10EDE6E000EDD6E60ECE5
:1010E8000DF001503B5E02503C5A03503B5C0450EB
:1010F8003C58D8A0C8D70C50D8A403D00B50D8B4AB
:101108002DD0F00E8A160B50010F4B6E4BC0F6FF18
:10111800100EF76EF86A0800F5CF8BFF8A84000E70
:10112800046E050E036E60EC0DF03BC001F03CC090
:1011380002F04A50D96EDA6A020ED926D90EDE6E4E
:10114800000EDD6E60EC0DF001503B5E02503C5A23
:1011580003503B5C04503C58D8A095D70C50D8B4E9
:1011680065D7F00E8A160C50010F4B6E4BC0F6FF78
:10117800100EF76EF86A0800F5CF8BFF8A86000E0E
:10118800046E050E036E60EC0DF03BC001F03CC030
:1011980002F04A50D96EDA6A020ED926E10EDE6EE6
:1011A800000EDD6E60EC0DF001503B5E02503C5AC3
:1011B80003503B5C04503C58D8A065D737D7020E83
:1011C80012004A50D96EDA6A020ED926000EDE6E77
:1011D800000EDD6E58D74A50D96EDA6A020ED9264B
:1011E800DECF4BF0DDCF4CF04C50000AD8A4E9D745
:1011F8004B50000AD8B40DD7CA0AD8B438D71B0A3E
:10120800D8B46DD7080AD8B49DD7380AD8B4CAD785
:10121800070AD8B4D4D7D5D7010E906F8FD04A50CB
:10122800D96EDA6A020ED926620EDE6E000EDD6E07
:10123800290E3B6E15EC0DF00009D8B402D0000E53
:1012480012004A50D96EDA6A020ED926640EDE6E92
:10125800000EDD6E290E3F6E8C0E406E040E416E40
:1012680008EC0BF00009D8B4EAD7000E0001926F21
:10127800000E916F91518C0FD96EDA6A91518C0FD3
:10128800E16EE26AE750640FDF6E914B922B92BFDA
:10129800F1D7925104E1040E915DD8A0EBD74A50E2
:1012A800D96EDA6A020ED9266B0EDE6E000EDD6E7E
:1012B8001750D8B4C4D717064A50D96EDA6A020E46
:1012C800D9266D0EDE6E000EDD6E250E3B6EFAEC35
:1012D8000CF00009D8A4B3D74A50D96EDA6A020EC6
:1012E800D9266F0EDE6E000EDD6E250E406E8C0E5A
:1012F800416E040E426E5FEC0BF00009D8B49FD724
:10130800172A000E0001906F4A50D96EDA6A020E51
:10131800D926750EDE6E000EDD6E9051D8A47FD7EB
:10132800030E1200020E12004A50D96EDA6A020E3B
:10133800D926000EDE6E000EDD6E81D74A50D96EBA
:10134800DA6A020ED926DECF4BF0DDCF4CF04C50D6
:10135800000AD8A4E9D74B50000AD8B460D7620A6B
:10136800D8B466D7060AD8B475D70F0AD8B4A0D7A8
:10137800060AD8B4AAD7020AD8B4B7D71A0AD8B472
:10138800CCD70D0AD8B4CED7CFD7120EF66E100E22
:10139800F76E000EF86E0900F5CF8CF00900F5CF56
:1013A8008DF00900F5CF8EF00A00F5CF8FF0010E11
:1013B800906F75D04A50D96EDA6A020ED9263D0E62
:1013C800DE6E000EDD6E290E3B6EFAEC0CF00009A5
:1013D800D8B402D0000E12004A50D96EDA6A020E52
:1013E800D9263F0EDE6E000EDD6E290E406E8C0E85
:1013F800416E040E426E5FEC0BF00009D8B4EAD7D8
:101408004A50D96EDA6A020ED926420EDE6E000EF6
:10141800DD6E1750D8B4DED717064A50D96EDA6A8F
:10142800020ED926440EDE6E000EDD6E250E3B6ED2
:10143800FAEC0CF00009D8A4CDD74A50D96EDA6A74
:10144800020ED926460EDE6E000EDD6E250E406EAB
:101458008C0E416E040E426E5FEC0BF00009D8B49E
:10146800B9D7172A000E0001906F4A50D96EDA6A70
:10147800020ED9264C0EDE6E000EDD6E9051D8A4F9
:1014880099D7030E1200020E12004A50D96EDA6A7A
:10149800020ED926000EDE6E000EDD6E9BD74A5076
:1014A800D96EDA6A020ED926DECF4BF0DDCF4CF0CA
:1014B8004C50000AD8A4E9D74B50000AD8B47AD7C0
:1014C8003D0AD8B480D7020AD8B48FD77D0AD8B4D9
:1014D800A0D7060AD8B4AAD7020AD8B4B7D70A0A36
:1014E800D8B4CCD7030AD8B4CED7CFD772D04A5005
:1014F800D96EDA6A020ED926880EDE6E000EDD6E0F
:10150800250E3B6E15EC0DF00009D8B402D0000E84
:101518001200250E3E6E37EC0CF04B6E4B504E6EA3
:101528004F6A000E0C6E05D0E80E4E5E030E4F5A41
:101538000C2AE80E4E5C030E4F58D8B0F5D7000EB3
:101548000B6E05D0640E4E5E000E4F5A0B2A4F509C
:10155800F9E1640E4E5CD8B0F5D7000E0A6E05D0DE
:101568000A0E4E5E000E4F5A0A2A4F50F9E10A0E33
:101578004E5CD8B0F5D74EC009F0030E086EE80EE1
:10158800076E60EC0DF03BC005F03CC006F04A5019
:10159800D96EDA6A020ED9269D0EDE6E000EDD6E59
:1015A80060EC0DF005503B5E06503C5A07503B5C22
:1015B80008503C58D8A0ABD79AD7020E12004A5010
:1015C800D96EDA6A020ED926000EDE6E000EDD6EC6
:1015D8009ED74A50D96EDA6A020ED926DECF4BF072
:1015E800DDCF4CF04C50000AD8A4E9D74B50000A84
:1015F800D8B47DD7880AD8B483D7150AD8B4D0D739
:10160800020AD8B4DAD7DBD73F50D8B403D0405059
:10161800D8A402D0000E12003FC03BF02CEC0DF015
:10162800426E4150425CD8A0F5D73F50D96EDA6A75
:10163800DF50436E3F50D96EDA6A030ED926DF5069
:10164800446E3F50D96EDA6A020ED926DF50466ED4
:101658003F50D96EDA6A010ED926DF50456E000E6A
:10166800476E4150D8B417D044504624D96EDA6A30
:1016780040504724E16EE26ADFCFE7FF462A45067D
:101688004350465CD8A002D0000E466E472A41500F
:10169800475CD8A0E9D73F50D96EDA6A020ED9263E
:1016A80046C0DFFF3F50D96EDA6A010ED92645C021
:1016B800DFFF475012004050D8B403D04150D8A49F
:1016C80002D0000E120040C03BF0DEEC0CF0436E7E
:1016D8004250435CD8A0F5D74050D96EDA6ADF5043
:1016E800476E4050D96EDA6A030ED926DF50456E30
:1016F8004050D96EDA6A010ED926DF50466E405046
:10170800D96EDA6A020ED926DF504624496E475050
:10171800495CD8A002D04750495E000E486E42503E
:10172800D8B417D041504824D96EDA6A45504924B4
:10173800E16EE26ADFCFE7FF492A4750495CD8A04B
:1017480002D04750495E462A482A4250485CD8A0F1
:10175800E9D74050D96EDA6A010ED92646C0DFFFB4
:1017680048501200000E0001956F3AD09551060DB1
:10177800F350600F976F9751D8B431D09751D96E05
:10178800DA6A040ED926DECF93F0DDCF94F09351B8
:101798009411D8B424D09751D96EDA6A010ED9269B
:1017A800DF50966F020E9619D8B419D09605D8B4A2
:1017B80016D097C04AF001D809D00500FA6E9351A7
:1017C800FD6E9451FE6EFF6AFA5012000001966F8A
:1017D8009751D96EDA6A010ED92696C0DFFF952B8C
:1017E8001950955DD8B0BED7C1D7050E196401D080
:1017F8001200000E3F6E0ED03F50060DF350640FDE
:10180800D96EDA6ADE503B1804E1DE503C18D8B4D1
:1018180012003F2A19503F5CD8A0EED71950060D88
:10182800F350600F406E4050D96EDA6A19C0DFFF7E
:101838004050D96EDA6A010ED926000EDF6E40508C
:10184800D96EDA6A040ED9263BC0DEFF3CC0DDFF44
:101858004050D96EDA6A020ED926000EDE6E000EEE
:10186800DD6E192A12003E50D8B407D03EC03BF0B6
:1018780015EC0DF00009D8B402D0000E12003E504D
:10188800D96EDA6A020ED926DF50416E3E50D96E03
:10189800DA6A030ED926DF504124D96EDA6ADF509E
:1018A800406E412A3E50D96EDA6A010ED926DF060B
:1018B8003E50D96EDA6ADE50415CD8A002D0000EE4
:1018C800416E3E50D96EDA6A020ED92641C0DFFF5A
:1018D800405012007AEC0DF0290E3B6E1D0E3C6E46
:1018E800080E9CEC0CF0250E3B6E840E3C6E080E28
:1018F8009CEC0CF0010E176E920E3B6E130E3C6EB4
:10190800F9EC0BF0200E3B6E120E3C6EF9EC0BF06E
:10191800F40E3B6E140E3C6EF9EC0BF0180E3B6E99
:10192800100E3C6EF9EC0BF06EEC0DF059EF00F078
:101938003D6E3B50D8B412003C50D8B412003B5016
:10194800D96EDA6A3DC0DFFF3B50D96EDA6A020E03
:10195800D926000EDF6E3B50D96EDA6A010ED92601
:10196800000EDF6E3B50D96EDA6A030ED9263CC0F2
:10197800DFFF1200000ED56ED59CD59AD586F00EE5
:10198800D76E930ED66E3D503E10D8B405D03DC0EC
:101998000FF03EC010F004D0160E0F6E1B0E106E26
:1019A800A20E3B6E1A0E3C6E81EC0DF0F294F28A98
:1019B800D58E12003B50D8B413D03B50D96EDA6A9A
:1019C800DF503C6E3B50D96EDA6A010ED926DF50E3
:1019D8003D6E3D503C5C3E6E3F6AD8A03F0604D049
:1019E800000E3F6E000E3E6E3E5012003B50D8B4C3
:1019F80012D03B50D96EDA6A3B50E16EE26A010EB2
:101A0800E126DE50E65CD8A002D0010E01D0000E1F
:101A18003E6E3F6A04D0000E3F6E010E3E6E3E5091
:101A280012003B50D8B40ED03B50D96EDA6A010E82
:101A3800D926DF50D8A402D0010E01D0000E3C6E8A
:101A48003D6A04D0000E3D6E010E3C6E3C50120003
:101A58003B50D8B40BD03B50D96EDA6A010ED92668
:101A6800DF503C6E3C503D6E3E6A04D0000E3E6E28
:101A7800000E3D6E3D50120000EE60F02C0EEE6A36
:101A8800E806FDE100EE01F02C0EEE6AE806FDE145
:101A98005090509200016EEF0CF0F00ED76E930E3E
:101AA800D66E01D812000500FA6E0F50FD6E105068
:101AB800FE6EFF6AFA501200F2CF1AF0F29E0DC0C5
:101AC8003DF00EC03EF01ABEF28E3DC03BF03EC067
:101AD8003CF0120089EC0DF00C0E3D6E1B0E3E6EB4
:101AE800BEEC0CF0F28EB6EC0BF01200730ED36E57
:101AF800040ED26E000E9B6E12003BC015F03CC067
:101B080016F012000D4A0E2A1200D09E1200120082
:020000040020DA
:08000000FFFFFFFFFFFFFFFF00
:020000040030CA
:0E000000FF380E3CFF3D85FF0FC00FE00F40A4
:00000001FF
