:0400000059EF00F0C4
:100008004C82FACF30F0FBCF31F0E9CF32F0EACFB3
:1000180033F0E1CF34F0E2CF35F0D9CF36F0DACF94
:1000280037F0F3CF38F0F4CF39F0F6CF3AF0F7CF16
:100038003BF0F8CF3CF0F5CF3DF0F2B4F2A40CD091
:10004800F29401D814D00500FA6E2150FD6E2250AA
:10005800FE6EFF6AFA501200F2AC09D09DBA9EAA51
:1000680002D09E9A04D09DB89EA801D09E983DC00B
:10007800F5FF3CC0F8FF3BC0F7FF3AC0F6FF39C0B8
:10008800F4FF38C0F3FF37C0DAFF36C0D9FF35C0F8
:10009800E2FF34C0E1FF33C0EAFF32C0E9FF31C0FC
:0E00A800FBFF30C0FAFF4C92110090EF0CF0FD
:10100000000E32003C00460050005A006400C80048
:101010002C019001F4015802BC0220038403E80370
:0110200000CF
:1010220009D18A9A0F01399B939A81BA03D0436AF4
:10103200432A01D0436A433A434681504318DF0BA7
:101042004318816E000E106E320E0F6EB3EC0CF070
:101052003EC00DF03FC00EF04250D96EDA6A880EE3
:10106200DE6E000EDD6EB3EC0CF00D503E5E0E50E7
:101072003F5A0F503E5C10503F58D8A0120081BA20
:1010820003D0436A432A01D0436A433A434681501C
:101092004318DF0B4318816E000E106E320E0F6E76
:1010A200B3EC0CF03EC00DF03FC00EF04250D96ED2
:1010B200DA6A8C0EDE6E000EDD6EB3EC0CF00D50B3
:1010C2003E5E0E503F5A0F503E5C10503F58D8A023
:1010D200120081BA03D0436A432A01D0436A433AD9
:1010E200434681504318DF0B4318816E000E106E89
:1010F200320E0F6EB3EC0CF03EC00DF03FC00EF09E
:101102004250D96EDA6A900EDE6E000EDD6EB3ECDE
:101112000CF00D503E5E0E503F5A0F503E5C105088
:101122003F58D8A0120081BA03D0436A432A01D0A3
:10113200436A433A434681504318DF0B4318816E9A
:10114200000E106E320E0F6EB3EC0CF03EC00DF0BE
:101152003FC00EF04250D96EDA6A940EDE6E000E77
:10116200DD6EB3EC0CF00D503E5E0E503F5A0F5048
:101172003E5C10503F58D8A0120081BA03D0436A97
:10118200432A01D0436A433A434681504318DF0B56
:101192004318816E000E106E320E0F6EB3EC0CF01F
:1011A2003EC00DF03FC00EF04250D96EDA6A980E82
:1011B200DE6E000EDD6EB3EC0CF00D503E5E0E5096
:1011C2003F5A0F503E5C10503F58D8A0120081BACF
:1011D20003D0436A432A01D0436A433A43468150CB
:1011E2004318DF0B4318816E030E106EE80E0F6E6C
:1011F200B3EC0CF03EC00DF03FC00EF04250D96E81
:10120200DA6A9C0EDE6E000EDD6EB3EC0CF00D5051
:101212003E5E0E503F5A0F503E5C10503F58D8A0D1
:10122200120003D74250D96EDA6A000EDE6E000E4B
:10123200DD6E12004250D96EDA6ADECF43F0DDCFA6
:1012420044F04450000AD8A4EDD74350000AD8B461
:10125200E8D6880AD8B407D7040AD8B42ED71C0A0D
:10126200D8B455D7040AD8B47CD70C0AD8B4A3D7BB
:10127200040AD8B4CAD7030AD8B41200D3D78DD07F
:101282008A920F0139939392000E256E010E246EFD
:101292002450D8B408D00E0E2518D8A402D0000EBF
:1012A20006D0252A07D02550D8A403D0010E246EDB
:1012B20001D0250681B203D0436A432A01D0436A92
:1012C200434681504318FD0B4318816E2550020D91
:1012D200F350020F436E43C0F6FF100EF76EF86A2A
:1012E2000900F5CF13F00A00F5CF14F0B3EC0CF0BF
:1012F2003EC011F03FC012F04250D96EDA6A6A0E57
:10130200DE6E000EDD6EB3EC0CF011503E5E12503C
:101312003F5A13503E5C14503F58D8A0120081B27D
:1013220003D0436A432A01D0436A4346815043189B
:10133200FD0B4318816E2550020DF350020F436ED0
:1013420043C0F6FF100EF76EF86A0900F5CF13F0EE
:101352000A00F5CF14F0B3EC0CF03EC011F03FC020
:1013620012F04250D96EDA6A6E0EDE6E000EDD6E3B
:10137200B3EC0CF011503E5E12503F5A13503E5CDB
:1013820014503F58D8A0120083D74250D96EDA6A5F
:10139200000EDE6E000EDD6E12004250D96EDA6A69
:1013A200DECF43F0DDCF44F04450000AD8A4EDD79D
:1013B2004350000AD8B464D76A0AD8B4A4D7040A3E
:1013C200D8B4D6D71C0AD8B41200DFD764D09D9CFB
:1013D2009E9CAF0EC06E000EC16E9280C280C28211
:1013E2004550D96EDA6AE00EDE6E000EDD6EC2B2D4
:1013F2001200000E4A6E000E496EC450476E466AD5
:101402004650491247504A12C350491249C017F078
:101412004AC018F04A5009E1330E495CD8B005D0F1
:10142200000E166E0A0E156E0ED049C03EF04AC06E
:101432003FF0000E416E050E406E47EC0CF03EC0D0
:1014420015F03FC016F0010E276E010E086EF40E65
:10145200076EB3EC0CF03EC005F03FC006F04550FD
:10146200D96EDA6AF10EDE6E000EDD6EB3EC0CF0B0
:1014720005503E5E06503F5A07503E5C08503F58AA
:10148200D8A01200ACD74550D96EDA6A000EDE6ED3
:10149200000EDD6E12004550D96EDA6ADECF46F0DC
:1014A200DDCF47F04750000AD8A4EDD74650000AD6
:1014B200D8B48DD7E00AD8B49AD7110AD8B4D6D7FF
:1014C200050AD8B41200DFD758D0000E8C6E000E79
:1014D2000F013B6F000E956E010E8C6E3E50D96E61
:1014E200DA6A170EDE6E010EDD6E2B04D8A412002E
:1014F200000E2B6E0A0E4B18D8A403D02AC08CFF04
:10150200EDD7140E4B18D8B40FD0E8D78C68E6D7B5
:101512007F0EE3D73F0EE1D71F0EDFD70F0EDDD7C9
:10152200070EDBD7030ED9D728503F6E406A4050D2
:10153200000AD8A4D3D73F50000AD8B4E7D7010A8B
:10154200D8B4E6D7030AD8B4E5D7010AD8B4E4D7A9
:10155200070AD8B4E3D7010AD8B4E2D7030AD8B449
:10156200E1D7010AD8B4B8D7B9D73E50D96EDA6AF2
:10157200000EDE6E000EDD6E12003E50D96EDA6A8B
:10158200DECF3FF0DDCF40F04050000AD8B404D0A7
:10159200010AD8B406D0E9D73F50000AD8B495D78B
:1015A200E4D73F50170AD8B4A0D73E0AD8B41200E5
:1015B200DCD74CD00F0139998A9893884250D96E62
:1015C200DA6A370EDE6E010EDD6E81B81200000E91
:1015D200046E640E036EB3EC0CF03EC001F03FC02B
:1015E20002F04250D96EDA6A380EDE6E010EDD6EFE
:1015F200B3EC0CF001503E5E02503F5A03503E5C89
:1016020004503F58D8A0120081B8D8D70A0E4B1800
:10161200D8B404D0000E476E0A0E03D0000E476EF7
:10162200140E466E46C04BF04250D96EDA6A420E34
:10163200DE6E010EDD6E81A81200C0D74250D96E57
:10164200DA6A000EDE6E000EDD6E12004250D96EB6
:10165200DA6ADECF43F0DDCF44F04450000AD8B45A
:1016620004D0010AD8B406D0E9D74350000AD8B44E
:10167200A1D7E4D74350370AD8B4A7D70F0AD8B4B2
:10168200B7D77A0AD8B4D7D7070AD8B41200D6D7B0
:1016920051D0010E2A6E010E236E000E166E320E0E
:1016A200156E4250D96EDA6AB60EDE6E000EDD6E2F
:1016B2000A0E4B18D8A412002350D8B408D0D890E0
:1016C2002A36800E2A18D8A409D0000E06D0D89047
:1016D2002A322A04D8A402D0010E236E0A0E4B1815
:1016E200D8A402D0010E2B6E15C00BF016C00CF060
:1016F200B3EC0CF03EC009F03FC00AF04250D96E84
:10170200DA6AC50EDE6E000EDD6EB3EC0CF0095027
:101712003E5E0A503F5A0B503E5C0C503F58D8A0D8
:101722001200BFD74250D96EDA6A000EDE6E000E8A
:10173200DD6E12004250D96EDA6ADECF43F0DDCFA1
:1017420044F04450000AD8A4EDD74350000AD8B45C
:10175200A0D7B60AD8B4ACD7730AD8B4D6D70D0A74
:10176200D8B41200DFD72ED04550D96EDA6AFB0EFC
:10177200DE6E000EDD6E140E4B18D8A4120045501A
:10178200D96EDA6AFC0EDE6E000EDD6E2704D8A476
:101792001200000E276E17C03EF018C03FF0000E78
:1017A200416E8B0E406E47EC0CF03E50286E010EDF
:1017B2002B6EDAD74550D96EDA6A000EDE6E000E55
:1017C200DD6E12004550D96EDA6ADECF46F0DDCF0B
:1017D20047F04750000AD8B404D0010AD8B40CD05C
:1017E200E9D74650000AD8B4BFD7FB0AD8B4C3D74A
:1017F200070AD8B4CBD7DED74650010AD8B41200B4
:10180200D9D7C1EC0CF0D0EC0CF09A0E406E190E48
:10181200416E70EC0CF0F28E000E0001636F000E50
:10182200626F000E6D6F000E6C6F000E656F000E22
:10183200646F000E676F000E666F000E696F000E18
:10184200686F000E616F000E606F000E6B6F000E0E
:101852006A6F620E426E40EC09F06C0E426E11EC41
:1018620008F0640E426E49EC0BF0660E456EE7EC32
:1018720009F0680E456EB4EC0BF0600E3E6E65EC3E
:101882000AF06A0E426EDAEC0AF0E3D7000E446EFA
:10189200000E436E40504110D8B41CD0010E426E6F
:1018A20004D0D89040364136422A41AEFAD7D89079
:1018B2004336443640503E5C41503F58D8A005D094
:1018C20040503E5E41503F5A4380D89041324032B0
:1018D200422EEDD743C03EF044C03FF01200000E4E
:1018E200D56ED59CD59AD586F00ED76E930ED66E50
:1018F20040504110D8B405D040C01BF041C01CF08C
:1019020004D0A40E1B6E190E1C6E480E3E6E190EEC
:101912003F6EC8EC0CF0F294F28AD58E1200A60E3D
:10192200F66E190EF76E000EF86E0900F5CF4BF049
:1019320000EE01F02F0EEE6AE806FDE14C904C92AB
:10194200000102EF0CF0F00ED76E930ED66E01D8A6
:1019520012000500FA6E1B50FD6E1C50FE6EFF6AEF
:10196200FA501200F2CF2DF0F29E19C040F01AC0C8
:1019720041F02DBEF28E40C03EF041C03FF0120059
:10198200730ED36E040ED26E000E9B6E12003EC01A
:1019920021F03FC022F01200194A1A2A1200D09EEA
:0519A200120012000A12
:020000040020DA
:08000000FFFFFFFFFFFFFFFF00
:020000040030CA
:0E000000FF380E3CFF3D85FF0FC00FE00F40A4
:00000001FF
