:020000040000FA
:0400000059EF00F0C4
:100008004C82FACF30F0FBCF31F0E9CF32F0EACFB3
:1000180033F0E1CF34F0E2CF35F0D9CF36F0DACF94
:1000280037F0F3CF38F0F4CF39F0F6CF3AF0F7CF16
:100038003BF0F8CF3CF0F5CF3DF0F2B4F2A40CD091
:10004800F29401D814D00500FA6E2150FD6E2250AA
:10005800FE6EFF6AFA501200F2AC09D09DBA9EAA51
:1000680002D09E9A04D09DB89EA801D09E983DC00B
:10007800F5FF3CC0F8FF3BC0F7FF3AC0F6FF39C0B8
:10008800F4FF38C0F3FF37C0DAFF36C0D9FF35C0F8
:10009800E2FF34C0E1FF33C0EAFF32C0E9FF31C0FC
:0E00A800FBFF30C0FAFF4C9211004AEF0CF043
:10100000000E32003C00460050005A006400C80048
:101010002C019001F4015802BC0220038403E80370
:0110200000CF
:1010220001D18A9A0F01399B939A81BA03D0436AFC
:10103200432A01D0436A433A434681504318DF0BA7
:101042004318816E000E106E320E0F6E6DEC0CF0B6
:101052003EC00DF03FC00EF04250D96EDA6A890EE2
:10106200DE6E000EDD6E6DEC0CF00D503E5E0E502D
:101072003F5A0F503E5C10503F58D8A0120081BA20
:1010820003D0436A432A01D0436A433A434681501C
:101092004318DF0B4318816E000E106E320E0F6E76
:1010A2006DEC0CF03EC00DF03FC00EF04250D96E18
:1010B200DA6A8D0EDE6E000EDD6E6DEC0CF00D50F8
:1010C2003E5E0E503F5A0F503E5C10503F58D8A023
:1010D200120081BA03D0436A432A01D0436A433AD9
:1010E200434681504318DF0B4318816E000E106E89
:1010F200320E0F6E6DEC0CF03EC00DF03FC00EF0E4
:101102004250D96EDA6A910EDE6E000EDD6E6DEC23
:101112000CF00D503E5E0E503F5A0F503E5C105088
:101122003F58D8A0120081BA03D0436A432A01D0A3
:10113200436A433A434681504318DF0B4318816E9A
:10114200000E106E320E0F6E6DEC0CF03EC00DF004
:101152003FC00EF04250D96EDA6A950EDE6E000E76
:10116200DD6E6DEC0CF00D503E5E0E503F5A0F508E
:101172003E5C10503F58D8A0120081BA03D0436A97
:10118200432A01D0436A433A434681504318DF0B56
:101192004318816E000E106E320E0F6E6DEC0CF065
:1011A2003EC00DF03FC00EF04250D96EDA6A990E81
:1011B200DE6E000EDD6E6DEC0CF00D503E5E0E50DC
:1011C2003F5A0F503E5C10503F58D8A0120081BACF
:1011D20003D0436A432A01D0436A433A43468150CB
:1011E2004318DF0B4318816E030E106EE80E0F6E6C
:1011F2006DEC0CF03EC00DF03FC00EF04250D96EC7
:10120200DA6A9D0EDE6E000EDD6E6DEC0CF00D5096
:101212003E5E0E503F5A0F503E5C10503F58D8A0D1
:10122200120003D74250D96EDA6ADECF43F0DDCF27
:1012320044F04450000AD8A412004350000AD8B423
:10124200F0D6890AD8B40FD7040AD8B436D71C0A04
:10125200D8B45DD7040AD8B484D70C0AD8B4ABD7B3
:10126200040AD8B4D2D73D0A120085D08A920F015F
:1012720039939392000E256E010E246E2450D8B439
:1012820008D00E0E2518D8A402D0000E06D0252AAA
:1012920007D02550D8A403D0010E246E01D0250614
:1012A20081B203D0436A432A01D0436A4346815044
:1012B2004318FD0B4318816E2550020DF350020FA7
:1012C200436E43C0F6FF100EF76EF86A0900F5CFC1
:1012D20013F00A00F5CF14F06DEC0CF03EC011F0E3
:1012E2003FC012F04250D96EDA6A6B0EDE6E000E0B
:1012F200DD6E6DEC0CF011503E5E12503F5A1350F1
:101302003E5C14503F58D8A0120081B203D0436A09
:10131200432A01D0436A434681504318FD0B4318C8
:10132200816E2550020DF350020F436E43C0F6FF4B
:10133200100EF76EF86A0900F5CF13F00A00F5CF28
:1013420014F06DEC0CF03EC011F03FC012F04250B0
:10135200D96EDA6A6F0EDE6E000EDD6E6DEC0CF089
:1013620011503E5E12503F5A13503E5C14503F588B
:10137200D8A0120083D74250D96EDA6ADECF43F08A
:10138200DDCF44F04450000AD8A412004350000AB2
:10139200D8B46CD76B0AD8B4ACD7040AD8B4DED7A9
:1013A2001C0A12005CD09D9C9E9CAF0EC06E000E6B
:1013B200C16E9280C280C2824550D96EDA6AE10E55
:1013C200DE6E000EDD6EC2B21200000E4A6E000E1C
:1013D200496EC450476E466A4650491247504A12F7
:1013E200C350491249C017F04AC018F04A5009E1E7
:1013F200330E495CD8B005D0000E166E0A0E156E7B
:101402000ED049C03EF04AC03FF0000E416E050EBC
:10141200406E01EC0CF03EC015F03FC016F0010E1C
:10142200276E010E086EF40E076E6DEC0CF03EC0D6
:1014320005F03FC006F04550D96EDA6AF20EDE6E54
:10144200000EDD6E6DEC0CF005503E5E06503F5A0C
:1014520007503E5C08503F58D8A01200ACD7455008
:10146200D96EDA6ADECF46F0DDCF47F04750000A88
:10147200D8A412004650000AD8B495D7E10AD8B4CD
:10148200A2D7130AD8B4DED7070A120050D0000E32
:101492008C6E000E0F013B6F000E956E010E8C6E6E
:1014A2003E50D96EDA6A180EDE6E010EDD6E2B0426
:1014B200D8A41200000E2B6E0A0E4B18D8A403D02B
:1014C2002AC08CFFEDD7140E4B18D8B40FD0E8D732
:1014D2008C68E6D77F0EE3D73F0EE1D71F0EDFD72A
:1014E2000F0EDDD7070EDBD7030ED9D728503F6E7C
:1014F200406A4050000AD8A4D3D73F50000AD8B45B
:10150200E7D7010AD8B4E6D7030AD8B4E5D7010A67
:10151200D8B4E4D7070AD8B4E3D7010AD8B4E2D7DB
:10152200030AD8B4E1D7010AD8B4B8D7B9D73E5024
:10153200D96EDA6ADECF3FF0DDCF40F04050000ACC
:10154200D8B404D0010AD8A4120005D03F50000A32
:10155200D8A412009CD73F50180AD8B4A8D7320A90
:10156200120044D00F0139998A9893884250D96E5B
:10157200DA6A380EDE6E010EDD6E81B81200000EE0
:10158200046E640E036E6DEC0CF03EC001F03FC0C1
:1015920002F04250D96EDA6A390EDE6E010EDD6E4D
:1015A2006DEC0CF001503E5E02503F5A03503E5C1F
:1015B20004503F58D8A0120081B8D8D70A0E4B1851
:1015C200D8B404D0000E476E0A0E03D0000E476E48
:1015D200140E466E46C04BF04250D96EDA6A430E84
:1015E200DE6E010EDD6E81A81200C0D74250D96EA8
:1015F200DA6ADECF43F0DDCF44F04450000AD8B4BB
:1016020004D0010AD8A4120005D04350000AD8A47D
:101612001200A8D74350380AD8B4AFD7010AD8B4B9
:10162200BFD77A0AD8B4DFD7050A120049D0010E13
:101632002A6E010E236E000E166E320E156E425089
:10164200D96EDA6AB70EDE6E000EDD6E0A0E4B1828
:10165200D8A412002350D8B408D0D8902A36800ECD
:101662002A18D8A409D0000E06D0D8902A322A040B
:10167200D8A402D0010E236E0A0E4B18D8A402D0B1
:10168200010E2B6E15C00BF016C00CF06DEC0CF0B9
:101692003EC009F03FC00AF04250D96EDA6AC60E67
:1016A200DE6E000EDD6E6DEC0CF009503E5E0A50EF
:1016B2003F5A0B503E5C0C503F58D8A01200BFD787
:1016C2004250D96EDA6ADECF43F0DDCF44F04450A7
:1016D200000AD8A412004350000AD8B4A8D7B70A07
:1016E200D8B4B4D7710AD8B4DED70F0A12007BEC93
:1016F2000CF08AEC0CF00E0E406E190E416E2AECC4
:101702000CF0F28E000E0001636F000E626F000E8D
:101712006D6F000E6C6F000E656F000E646F000E31
:10172200676F000E666F000E696F000E686F000E25
:10173200616F000E606F000E6B6F000E6A6F620EBB
:10174200426E36EC09F06C0E426E11EC08F0640E3B
:10175200426E17EC0BF0660E456ED3EC09F0680E84
:10176200456EBDEC0BF0600E3E6E47EC0AF06A0E61
:10177200426EB2EC0AF0E3D726D04550D96EDA6A4F
:10178200FC0EDE6E000EDD6E140E4B18D8A4120095
:101792004550D96EDA6AFD0EDE6E000EDD6E27044C
:1017A200D8A41200000E276E17C03EF018C03FF0FA
:1017B200000E416E8B0E406E01EC0CF03E50286E16
:1017C200010E2B6EDAD74550D96EDA6ADECF46F0BB
:1017D200DDCF47F04750000AD8B404D0010AD8A49C
:1017E20012000BD04650000AD8B4C7D7FC0AD8B4AE
:1017F200CBD7010AD8A41200D2D74650020A12004F
:10180200000E446E000E436E40504110D8B41CD0FE
:10181200010E426E04D0D89040364136422A41AE83
:10182200FAD7D8904336443640503E5C41503F5838
:10183200D8A005D040503E5E41503F5A4380D890D8
:1018420041324032422EEDD743C03EF044C03FF019
:101852001200000ED56ED59CD59AD586F00ED76EA5
:10186200930ED66E40504110D8B405D040C01BF044
:1018720041C01CF004D0180E1B6E190E1C6EBC0E5B
:101882003E6E180E3F6E82EC0CF0F294F28AD58E08
:1018920012001A0EF66E190EF76E000EF86E09009F
:1018A200F5CF4BF000EE01F02F0EEE6AE806FDE1F7
:1018B2004C904C92000178EF0BF0F00ED76E930E25
:1018C200D66E01D812000500FA6E1B50FD6E1C5038
:1018D200FE6EFF6AFA501200F2CF2DF0F29E19C08E
:1018E20040F01AC041F02DBEF28E40C03EF041C021
:1018F2003FF01200730ED36E040ED26E000E9B6E7A
:1019020012003EC021F03FC022F01200194A1A2AEA
:091912001200D09E120012000A1E
:020000040020DA
:08000000FFFFFFFFFFFFFFFF00
:020000040030CA
:0E000000FF380E3CFF3D85FF0FC00FE00F40A4
:00000001FF
