:020000040000FA
:0400000059EF00F0C4
:100008005082FACF31F0FBCF32F0E9CF33F0EACFAC
:1000180034F0E1CF35F0E2CF36F0D9CF37F0DACF90
:1000280038F0F3CF39F0F4CF3AF0F6CF3BF0F7CF12
:100038003CF0F8CF3DF0F5CF3EF0F2B4F2A40CD08E
:10004800F29401D814D00500FA6E2150FD6E2250AA
:10005800FE6EFF6AFA501200F2AC09D09DBA9EAA51
:1000680002D09E9A04D09DB89EA801D09E983EC00A
:10007800F5FF3DC0F8FF3CC0F7FF3BC0F6FF3AC0B4
:10008800F4FF39C0F3FF38C0DAFF37C0D9FF36C0F4
:10009800E2FF35C0E1FF34C0EAFF33C0E9FF32C0F8
:0E00A800FBFF31C0FAFF5092110087EF0CF001
:10100000000E32003C00460050005A006400C80048
:101010002C019001F4015802BC0220038403E80370
:0110200000CF
:1010220001D18A9A0F01399B939A81BA03D0476AF8
:10103200472A01D0476A473A474681504718DF0B93
:101042004718816E000E106E320E0F6EB0EC0CF06F
:101052003FC00DF040C00EF04650D96EDA6A9A0ECB
:10106200DE6E000EDD6EB0EC0CF00D503F5E0E50E9
:10107200405A0F503F5C10504058D8A0120081BA1D
:1010820003D0476A472A01D0476A473A4746815008
:101092004718DF0B4718816E000E106E320E0F6E6E
:1010A200B0EC0CF03FC00DF040C00EF04650D96ECF
:1010B200DA6A9E0EDE6E000EDD6EB0EC0CF00D50A4
:1010C2003F5E0E50405A0F503F5C10504058D8A01F
:1010D200120081BA03D0476A472A01D0476A473AC9
:1010E200474681504718DF0B4718816E000E106E7D
:1010F200320E0F6EB0EC0CF03FC00DF040C00EF09F
:101102004650D96EDA6AA20EDE6E000EDD6EB0ECCB
:101112000CF00D503F5E0E50405A0F503F5C105085
:101122004058D8A0120081BA03D0476A472A01D09A
:10113200476A473A474681504718DF0B4718816E86
:10114200000E106E320E0F6EB0EC0CF03FC00DF0C0
:1011520040C00EF04650D96EDA6AA60EDE6E000E60
:10116200DD6EB0EC0CF00D503F5E0E50405A0F5049
:101172003F5C10504058D8A0120081BA03D0476A91
:10118200472A01D0476A473A474681504718DF0B42
:101192004718816E000E106E320E0F6EB0EC0CF01E
:1011A2003FC00DF040C00EF04650D96EDA6AAA0E6A
:1011B200DE6E000EDD6EB0EC0CF00D503F5E0E5098
:1011C200405A0F503F5C10504058D8A0120081BACC
:1011D20003D0476A472A01D0476A473A47468150B7
:1011E2004718DF0B4718816E030E106EE80E0F6E64
:1011F200B0EC0CF03FC00DF040C00EF04650D96E7E
:10120200DA6AAE0EDE6E000EDD6EB0EC0CF00D5042
:101212003F5E0E50405A0F503F5C10504058D8A0CD
:10122200120003D74650D96EDA6ADECF47F0DDCF1F
:1012320048F04850000AD8A412004750000AD8B417
:10124200F0D69A0AD8B40FD7040AD8B436D73C0AD3
:10125200D8B45DD7040AD8B484D70C0AD8B4ABD7B3
:10126200040AD8B4D2D71B0A120085D08A920F0181
:1012720039939392000E286E010E276E2750D8B430
:1012820008D00E0E2818D8A402D0000E06D0282AA4
:1012920007D02850D8A403D0010E276E01D028060B
:1012A20081B203D0476A472A01D0476A4746815034
:1012B2004718FD0B4718816E2850020DF350020F9C
:1012C200476E47C0F6FF100EF76EF86A0900F5CFB9
:1012D20013F00A00F5CF14F0B0EC0CF03FC011F09F
:1012E20040C012F04650D96EDA6A740EDE6E000EFD
:1012F200DD6EB0EC0CF011503F5E1250405A1350AC
:101302003F5C14504058D8A0120081B203D0476A03
:10131200472A01D0476A474681504718FD0B4718B4
:10132200816E2850020DF350020F476E47C0F6FF40
:10133200100EF76EF86A0900F5CF13F00A00F5CF28
:1013420014F0B0EC0CF03FC011F040C012F0465067
:10135200D96EDA6A780EDE6E000EDD6EB0EC0CF03D
:1013620011503F5E1250405A13503F5C1450405887
:10137200D8A0120083D74650D96EDA6ADECF47F082
:10138200DDCF48F04850000AD8A412004750000AA6
:10139200D8B46CD7740AD8B4ACD70C0AD8B4DED798
:1013A200F80A12005CD09D9C9E9CAF0EC06E000E8F
:1013B200C16E9280C280C2824650D96EDA6AFF0E36
:1013C200DE6E000EDD6EC2B21200000E4B6E000E1B
:1013D2004A6EC450486E476A47504A1248504B12F0
:1013E200C3504A124AC019F04BC01AF04B5009E1DF
:1013F200330E4A5CD8B005D0000E186E0A0E176E76
:101402000ED04AC03FF04BC040F0000E426E050EB7
:10141200416E23EC0CF03FC017F040C018F0010EF3
:101422002A6E010E086EF40E076EB0EC0CF03FC08F
:1014320005F040C006F04650D96EDA6A100EDE6E34
:10144200010EDD6EB0EC0CF005503F5E0650405AC6
:1014520007503F5C08504058D8A01200ACD7465005
:10146200D96EDA6ADECF47F0DDCF48F04850000A85
:10147200D8B404D0010AD8A4120008D04750000AF8
:10148200D8B491D7FF0AD8A412009DD74750100AAA
:10149200D8B4D8D7030A120050D0000E8C6E000EBA
:1014A2000F013B6F000E956E010E8C6E4650D96E89
:1014B200DA6A360EDE6E010EDD6E2E04D8A412003C
:1014C200000E2E6E0A0E4F18D8A403D02DC08CFF2A
:1014D200EDD7140E4F18D8B40FD0E8D78C68E6D7E2
:1014E2007F0EE3D73F0EE1D71F0EDFD70F0EDDD7FA
:1014F200070EDBD7030ED9D72B50476E486A4850E8
:10150200000AD8A4D3D74750000AD8B4E7D7010AB3
:10151200D8B4E6D7030AD8B4E5D7010AD8B4E4D7D9
:10152200070AD8B4E3D7010AD8B4E2D7030AD8B479
:10153200E1D7010AD8B4B8D7B9D74650D96EDA6A1A
:10154200DECF47F0DDCF48F04850000AD8B404D0CF
:10155200010AD8A4120005D04750000AD8A41200EC
:101562009CD74750360AD8B4A8D7710A120044D083
:101572000F0139998A9893884650D96EDA6A540EC7
:10158200DE6E010EDD6E81B81200000E046E640E76
:10159200036EB0EC0CF03FC001F040C002F04650C8
:1015A200D96EDA6A550EDE6E010EDD6EB0EC0CF00D
:1015B20001503F5E0250405A03503F5C0450405875
:1015C200D8A0120081B8D8D70A0E4F18D8B404D0C8
:1015D200000E4B6E0A0E03D0000E4B6E140E4A6EB6
:1015E2004AC04FF04650D96EDA6A5F0EDE6E010EC7
:1015F200DD6E81A81200C0D74650D96EDA6ADECFFE
:1016020047F0DDCF48F04850000AD8B404D0010AB0
:10161200D8A4120005D04750000AD8A41200A8D7B7
:101622004750540AD8B4AFD7010AD8B4BFD70A0A70
:10163200D8B4DFD73E0A120049D0010E2D6E010E3A
:10164200266E000E186E320E176E4650D96EDA6A8A
:10165200D00EDE6E000EDD6E0A0E4F18D8A41200F8
:101662002650D8B408D0D8902D36800E2D18D8A484
:1016720009D0000E06D0D8902D322D04D8A402D065
:10168200010E266E0A0E4F18D8A402D0010E2E6E3D
:1016920017C00BF018C00CF0B0EC0CF03FC009F012
:1016A20040C00AF04650D96EDA6ADF0EDE6E000ED6
:1016B200DD6EB0EC0CF009503F5E0A50405A0B5000
:1016C2003F5C0C504058D8A01200BFD74650D96E8C
:1016D200DA6ADECF47F0DDCF48F04850000AD8A4DE
:1016E20012004750000AD8B4A8D7D00AD8B4B4D749
:1016F2000F0AD8B4DED7390A120026D04650D96E66
:10170200DA6A1A0EDE6E010EDD6E140E4F18D8A4C0
:1017120012004650D96EDA6A1B0EDE6E010EDD6EC5
:101722002A04D8A41200000E2A6E19C03FF01AC073
:1017320040F0000E426E8B0E416E23EC0CF03F50D7
:101742002B6E010E2E6EDAD74650D96EDA6ADECFD4
:1017520047F0DDCF48F04850000AD8B404D0010A5F
:10176200D8A4120005D04750000AD8A41200C6D748
:1017720047501A0AD8B4C9D7010AD8B4D1D73B0AFC
:101782001200000E0001816F000E806F1DD080518B
:10179200040DF350600F466E8051040DF350620F3A
:1017A200D96EDA6ADECF4CF0DDCF4DF001D809D028
:1017B2000500FA6E4C50FD6E4D50FE6EFF6AFA50F7
:1017C20012000001804B812B24504C6E4D6A4C500C
:1017D200805D8151800A4E6E4D50800A4E58D8B0BD
:1017E200D0D7D5D7CAEC0CF06C0E3F6E120E406EFD
:1017F2006CEC0CF0220E3F6E100E406E6CEC0CF096
:101802003A0E3F6E160E406E6CEC0CF0A60E3F6E5A
:10181200130E406E6CEC0CF0FC0E3F6E160E406E1A
:101822006CEC0CF09A0E3F6E140E406E6CEC0CF0E9
:10183200700E3F6E150E406E6CEC0CF0BEEC0CF0B0
:1018420059EF00F0000E456E000E446E41504210FA
:10185200D8B41CD0010E436E04D0D8904136423623
:10186200432A42AEFAD7D8904436453641503F5CBF
:1018720042504058D8A005D041503F5E4250405A95
:101882004480D89042324132432EEDD744C03FF0DB
:1018920045C040F01200000ED56ED59CD59AD58673
:1018A200F00ED76E930ED66E41504210D8B405D0CA
:1018B20041C01BF042C01CF004D0B60E1B6E190EC4
:1018C2001C6E420E3F6E190E406ED1EC0CF0F2947B
:1018D200F28AD58E1200070E246401D01200245021
:1018E200040DF350600F416E242A4150D96EDA6A1A
:1018F200020ED9263FC0DEFF40C0DDFF4150D96E47
:10190200DA6A000EDE6E000EDD6E1200B80EF66EA2
:10191200190EF76E000EF86E0900F5CF4FF000EECB
:1019220060F0200EEE6AE806FDE100EE01F0300EF6
:10193200EE6AE806FDE1509050920001F3EF0BF0E1
:10194200F00ED76E930ED66E01D812000500FA6E15
:101952001B50FD6E1C50FE6EFF6AFA501200F2CF51
:1019620025F0F29E15C041F016C042F025BEF28E5F
:1019720041C03FF042C040F01200D9EC0CF0AC0E76
:10198200416E190E426E4CEC0CF0F28EC2EC0BF072
:101992001200730ED36E040ED26E000E9B6E1200F6
:1019A2003FC021F040C022F01200154A162A120050
:0719B200D09E120012000A92
:020000040020DA
:08000000FFFFFFFFFFFFFFFF00
:020000040030CA
:0E000000FF380E3CFF3D85FF0FC00FE00F40A4
:00000001FF
