:0400000059EF00F0C4
:100008004D82FACF32F0FBCF33F0E9CF34F0EACFAC
:1000180035F0E1CF36F0E2CF37F0D9CF38F0DACF8C
:1000280039F0F3CF3AF0F4CF3BF0F6CF3CF0F7CF0E
:100038003DF0F8CF3EF0F5CF3FF0F2B4F2A40CD08B
:10004800F29401D814D00500FA6E2750FD6E28509E
:10005800FE6EFF6AFA501200F2AC09D09DBA9EAA51
:1000680002D09E9A04D09DB89EA801D09E983FC009
:10007800F5FF3EC0F8FF3DC0F7FF3CC0F6FF3BC0B0
:10008800F4FF3AC0F3FF39C0DAFF38C0D9FF37C0F0
:10009800E2FF36C0E1FF35C0EAFF34C0E9FF33C0F4
:0E00A800FBFF32C0FAFF4D921100E9EF0CF0A1
:1010000000C0F9A4B0999282F880908883C6A18626
:101010008EBF0E32003C00460050005A006400C8EB
:10102000002C019001F4015802BC0220038403E863
:10103000030009D18D940F013C95969484B403D09C
:10104000456A452A01D0456A4546454684504518BB
:10105000FB0B4518846E000E106E320E0F6EDBEC2B
:101060000CF040C00DF041C00EF04450D96EDA6A69
:10107000790EDE6E000EDD6EDBEC0CF00D50405E86
:101080000E50415A0F50405C10504158D8A01200E9
:1010900084B403D0456A452A01D0456A4546454691
:1010A00084504518FB0B4518846E000E106E320EEE
:1010B0000F6EDBEC0CF040C00DF041C00EF0445060
:1010C000D96EDA6A7D0EDE6E000EDD6EDBEC0CF0A2
:1010D0000D50405E0E50415A0F50405C1050415828
:1010E000D8A0120084B403D0456A452A01D0456ACD
:1010F0004546454684504518FB0B4518846E000E46
:10110000106E320E0F6EDBEC0CF040C00DF041C0E3
:101110000EF04450D96EDA6A810EDE6E000EDD6E7E
:10112000DBEC0CF00D50405E0E50415A0F50405C0D
:1011300010504158D8A0120084B403D0456A452A03
:1011400001D0456A4546454684504518FB0B451875
:10115000846E000E106E320E0F6EDBEC0CF040C091
:101160000DF041C00EF04450D96EDA6A850EDE6E85
:10117000000EDD6EDBEC0CF00D50405E0E50415A5F
:101180000F50405C10504158D8A0120084B403D0D6
:10119000456A452A01D0456A45464546845045186A
:1011A000FB0B4518846E000E106E320E0F6EDBECDA
:1011B0000CF040C00DF041C00EF04450D96EDA6A18
:1011C000890EDE6E000EDD6EDBEC0CF00D50405E25
:1011D0000E50415A0F50405C10504158D8A0120098
:1011E00084B403D0456A452A01D0456A4546454640
:1011F00084504518FB0B4518846E030E106EE80EE4
:101200000F6EDBEC0CF040C00DF041C00EF044500E
:10121000D96EDA6A8D0EDE6E000EDD6EDBEC0CF040
:101220000D50405E0E50415A0F50405C10504158D6
:10123000D8A0120003D74450D96EDA6A000EDE6ED1
:10124000000EDD6E12004450D96EDA6ADECF45F032
:10125000DDCF46F04650000AD8A4EDD74550000A2D
:10126000D8B4E8D6790AD8B407D7040AD8B42ED7A8
:10127000FC0AD8B455D7040AD8B47CD70C0AD8B421
:10128000A3D7040AD8B4CAD71D0AD8B41200D3D73A
:10129000D4D0000E8B6E000E0F013A6F000E946ECC
:1012A000000E8A6EF00E396FF00E936EF00E8A16F5
:1012B0001550010F456E45C0F6FF100EF76EF86A27
:1012C0000800F5CF8BFF8A80000E046E050E036EBA
:1012D000DBEC0CF040C001F041C002F04450D96E8C
:1012E000DA6A430EDE6E010EDD6EDBEC0CF00150AF
:1012F000405E0250415A0350405C04504158D8A00F
:1013000012001850D8A406D01750D8A403D01650F5
:10131000D8B42BD0F00E8A161650010F456E45C07A
:10132000F6FF100EF76EF86A0800F5CF8BFF8A8281
:10133000000E046E050E036EDBEC0CF040C001F0F5
:1013400041C002F04450D96EDA6A4A0EDE6E010ED8
:10135000DD6EDBEC0CF00150405E0250415A035050
:10136000405C04504158D8A012001850D8A403D0B3
:101370001750D8B42BD0F00E8A161750010F456EB7
:1013800045C0F6FF100EF76EF86A0800F5CF8BFF28
:101390008A84000E046E050E036EDBEC0CF040C078
:1013A00001F041C002F04450D96EDA6A520EDE6E8E
:1013B000010EDD6EDBEC0CF00150405E0250415A34
:1013C0000350405C04504158D8A012001850D8B4C3
:1013D0006DD7F00E8A161850010F456E45C0F6FF06
:1013E000100EF76EF86A0800F5CF8BFF8A86000EA4
:1013F000046E050E036EDBEC0CF040C001F041C042
:1014000002F04450D96EDA6A5A0EDE6E010EDD6EBD
:10141000DBEC0CF00150405E0250415A0350405C3E
:1014200004504158D8A0120041D74450D96EDA6A0E
:10143000000EDE6E000EDD6E12004450D96EDA6AC8
:10144000DECF45F0DDCF46F04650000AD8B404D0D8
:10145000010AD8B406D0E9D74550000AD8B419D744
:10146000E4D74550430AD8B440D7090AD8B471D755
:10147000180AD8B49FD7080AD8B4CAD7050AD8B46E
:101480001200D3D78DD08D920F013C939692000E0F
:101490002B6E010E2A6E2A50D8B408D00E0E2B18CF
:1014A000D8A402D0000E06D02B2A07D02B50D8A4E7
:1014B00003D0010E2A6E01D02B0684B203D0456AF8
:1014C000452A01D0456A454684504518FD0B45180C
:1014D000846E2B50020DF350130F456E45C0F6FF7E
:1014E000100EF76EF86A0900F5CF13F00A00F5CF79
:1014F00014F0DBEC0CF040C011F041C012F044508D
:10150000D96EDA6A5B0EDE6E000EDD6EDBEC0CF07F
:101510001150405E1250415A1350405C14504158D3
:10152000D8A0120084B203D0456A452A01D0456A8A
:10153000454684504518FD0B4518846E2B50020D0E
:10154000F350130F456E45C0F6FF100EF76EF86AA4
:101550000900F5CF13F00A00F5CF14F0DBEC0CF026
:1015600040C011F041C012F04450D96EDA6A5F0EEB
:10157000DE6E000EDD6EDBEC0CF01150405E1250A2
:10158000415A1350405C14504158D8A0120083D7E0
:101590004450D96EDA6A000EDE6E000EDD6E120067
:1015A0004450D96EDA6ADECF45F0DDCF46F04650C2
:1015B000000AD8A4EDD74550000AD8B464D75B0A16
:1015C000D8B4A4D7040AD8B4D6D73C0AD8B41200E9
:1015D000DFD76FD09D9C9E9CAF0EC06E000EC16E7B
:1015E0009280C280C2824750D96EDA6AD20EDE6E15
:1015F000000EDD6EC2B21200000E4C6E000E4B6E7D
:10160000C450496E486A48504B1249504C12C3505E
:101610004B1219504B1804E11A504C18D8B423D06F
:101620004BC01DF04CC01EF04C5009E1330E4B5C1A
:10163000D8B005D0000E1C6E0A0E1B6E0ED04BC02B
:1016400040F04CC041F0000E436E050E426E83EC3C
:101650000CF040C01BF041C01CF0010E2D6E4BC0C1
:1016600019F04CC01AF0010E086E2C0E076EDBEC60
:101670000CF040C005F041C006F04750D96EDA6A60
:10168000E50EDE6E000EDD6EDBEC0CF00550405E0C
:101690000650415A0750405C08504158D8A01200EB
:1016A000A1D74750D96EDA6A000EDE6E000EDD6EED
:1016B00012004750D96EDA6ADECF48F0DDCF49F02C
:1016C0004950000AD8A4EDD74850000AD8B482D7B0
:1016D000D20AD8B48FD7370AD8B4D6D70D0AD8B41F
:1016E0001200DFD759D04750D96EDA6A000EDE6E8D
:1016F000010EDD6E2D04D8A41200000E2D6E1DC04B
:1017000040F01EC041F0000E436E050E426E83ECA9
:101710000CF040C04BF041C04CF04C5008E10A0EB8
:101720004B5CD8B004D0000E4C6E0A0E4B6E000E0F
:10173000186E05D0E80E4B5E030E4C5A182AE80EC0
:101740004B5C030E4C58D8B0F5D7000E176E05D081
:10175000640E4B5E000E4C5A172A4C50F9E1640E91
:101760004B5CD8B0F5D7000E166E05D00A0E4B5E56
:10177000000E4C5A162A4C50F9E10A0E4B5CD8B0B8
:10178000F5D74BC015F0AFD74750D96EDA6A000EC7
:10179000DE6E000EDD6E12004750D96EDA6ADECFC3
:1017A00048F0DDCF49F04950000AD8B404D0010A0E
:1017B000D8B406D0E9D74850000AD8B494D7E4D7B3
:1017C0004850000AD8B496D71A0AD8B41200DCD709
:1017D00047D0000E8C6E000E0F013B6F000E956E11
:1017E000010E8C6E010E296E000E1C6E320E1B6EE9
:1017F0002950D8B408D0D8908336800E8318D8A446
:1018000009D0000E06D0D89083328304D8A402D029
:10181000010E296E1BC00BF01CC00CF0DBEC0CF0B1
:1018200040C009F041C00AF04450D96EDA6AB60EE1
:10183000DE6E000EDD6EDBEC0CF00950405E0A50EF
:10184000415A0B50405C0C504158D8A01200D0D7E0
:101850004450D96EDA6A000EDE6E000EDD6E1200A4
:101860004450D96EDA6ADECF45F0DDCF46F04650FF
:10187000000AD8A4EDD74550000AD8B4AAD7B60AB2
:10188000D8B4D9D70F0AD8B41200E2D7F4EC0CF0D0
:1018900003EC0DF0000E426E1A0E436EACEC0CF031
:1018A000F28E000E0001656F000E646F000E6B6F0C
:1018B000000E6A6F000E616F000E606F000E676FA2
:1018C000000E666F000E636F000E626F000E696F90
:1018D000000E686F640E446E42EC0AF06A0E446EAD
:1018E00019EC08F0600E446EE8EC0BF0660E476EE3
:1018F000E9EC0AF0620E476E72EC0BF0680E446E73
:1019000048EC09F0E7D7000E466E000E456E4250D7
:101910004310D8B41CD0010E446E04D0D890423687
:101920004336442A43AEFAD7D8904536463642501D
:10193000405C43504158D8A005D04250405E4350CF
:10194000415A4580D89043324232442EEDD745C0AB
:1019500040F046C041F01200000ED56ED59CD59ADD
:10196000D586F00ED76E930ED66E42504310D8B483
:1019700005D042C021F043C022F004D00A0E216EEF
:101980001A0E226E980E406E190E416EFBEC0CF092
:10199000F294F28AD58E1200F00ED76E930ED66EA8
:1019A00001D812000500FA6E2150FD6E2250FE6E25
:1019B000FF6AFA501200F2CF2FF0F29E1FC042F0E1
:1019C00020C043F02FBEF28E42C040F043C041F031
:1019D000120000EE01F0310EEE6AE806FDE14D90D6
:1019E0004D92000146EF0CF0730ED36E040ED26ED2
:1019F000000E9B6E120040C027F041C028F012007C
:0C1A00001F4A202A1200D09E1200120083
:020000040020DA
:08000000FFFFFFFFFFFFFFFF00
:020000040030CA
:0E000000FF380E3CFF3D85FF0FC00FE00F40A4
:00000001FF
