:020000040000FA
:0400000059EF00F0C4
:100008005182FACF33F0FBCF34F0E9CF35F0EACFA5
:1000180036F0E1CF37F0E2CF38F0D9CF39F0DACF88
:100028003AF0F3CF3BF0F4CF3CF0F6CF3DF0F7CF0A
:100038003EF0F8CF3FF0F5CF40F0F2B4F2A40CD088
:10004800F29401D814D00500FA6E2750FD6E28509E
:10005800FE6EFF6AFA501200F2AC09D09DBA9EAA51
:1000680002D09E9A04D09DB89EA801D09E9840C008
:10007800F5FF3FC0F8FF3EC0F7FF3DC0F6FF3CC0AC
:10008800F4FF3BC0F3FF3AC0DAFF39C0D9FF38C0EC
:10009800E2FF37C0E1FF36C0EAFF35C0E9FF34C0F0
:0E00A800FBFF33C0FAFF51921100D8EF0CF0AD
:1010000000C0F9A4B0999282F880908883C6A18626
:101010008EBF3F065B4F666D7D077F6F777C395EC5
:101020007971400E32003C00460050005A006400C6
:10103000C8002C019001F4015802BC022003840373
:03104000E80300C2
:1010440001D18D940F013C95969484B403D0496AE0
:10105400492A01D0496A4946494684504918FB0B3C
:101064004918846E000E106E320E0F6EF8EC0CF000
:1010740041C00DF042C00EF04850D96EDA6A870EB6
:10108400DE6E000EDD6EF8EC0CF00D50415E0E507D
:10109400425A0F50415C10504258D8A0120084B4F8
:1010A40003D0496A492A01D0496A494649468450CD
:1010B4004918FB0B4918846E000E106E320E0F6E29
:1010C400F8EC0CF041C00DF042C00EF04850D96E5F
:1010D400DA6A8B0EDE6E000EDD6EF8EC0CF00D504D
:1010E400415E0E50425A0F50415C10504258D8A0F5
:1010F400120084B403D0496A492A01D0496A494696
:10110400494684504918FB0B4918846E000E106E32
:10111400320E0F6EF8EC0CF041C00DF042C00EF030
:101124004850D96EDA6A8F0EDE6E000EDD6EF8EC72
:101134000CF00D50415E0E50425A0F50415C10505D
:101144004258D8A0120084B403D0496A492A01D075
:10115400496A4946494684504918FB0B4918846E2C
:10116400000E106E320E0F6EF8EC0CF041C00DF054
:1011740042C00EF04850D96EDA6A930EDE6E000E4D
:10118400DD6EF8EC0CF00D50415E0E50425A0F50DB
:10119400415C10504258D8A0120084B403D0496A6C
:1011A400492A01D0496A4946494684504918FB0BEB
:1011B4004918846E000E106E320E0F6EF8EC0CF0AF
:1011C40041C00DF042C00EF04850D96EDA6A970E55
:1011D400DE6E000EDD6EF8EC0CF00D50415E0E502C
:1011E400425A0F50415C10504258D8A0120084B4A7
:1011F40003D0496A492A01D0496A4946494684507C
:101204004918FB0B4918846E030E106EE80E0F6E1E
:10121400F8EC0CF041C00DF042C00EF04850D96E0D
:10122400DA6A9B0EDE6E000EDD6EF8EC0CF00D50EB
:10123400415E0E50425A0F50415C10504258D8A0A3
:10124400120003D74850D96EDA6ADECF49F0DDCFF9
:101254004AF04A50000AD8A412004950000AD8B4EF
:10126400F0D6870AD8B40FD70C0AD8B436D7040AF4
:10127400D8B45DD71C0AD8B484D7040AD8B4ABD781
:101284000C0AD8B4D2D7390A1200CCD0000E8B6E17
:10129400000E0F013A6F000E946E000E8A6EF00E6F
:1012A400396FF00E936EF00E8A161550010F496EC9
:1012B40049C0F6FF100EF76EF86A0800F5CF8BFFF1
:1012C4008A80000E046E050E036EF8EC0CF041C02B
:1012D40001F042C002F04850D96EDA6A570EDE6E51
:1012E400010EDD6EF8EC0CF00150415E0250425AE2
:1012F4000350415C04504258D8A012001850D8A49E
:1013040006D01750D8A403D01650D8B42BD0F00E62
:101314008A161650010F496E49C0F6FF100EF76E7B
:10132400F86A0800F5CF8BFF8A82000E046E050E62
:10133400036EF8EC0CF041C001F042C002F04850DA
:10134400D96EDA6A5E0EDE6E010EDD6EF8EC0CF01C
:101354000150415E0250425A0350415C04504258CD
:10136400D8A012001850D8A403D01750D8B42BD04A
:10137400F00E8A161750010F496E49C0F6FF100E81
:10138400F76EF86A0800F5CF8BFF8A84000E046EAE
:10139400050E036EF8EC0CF041C001F042C002F0FF
:1013A4004850D96EDA6A670EDE6E010EDD6EF8EC17
:1013B4000CF00150415E0250425A0350415C04500B
:1013C4004258D8A012001850D8B46DD7F00E8A161F
:1013D4001850010F496E49C0F6FF100EF76EF86AF7
:1013E4000800F5CF8BFF8A86000E046E050E036E8F
:1013F400F8EC0CF041C001F042C002F04850D96E44
:10140400DA6A6F0EDE6E010EDD6EF8EC0CF0015040
:10141400415E0250425A0350415C04504258D8A0E5
:10142400120041D74850D96EDA6ADECF49F0DDCFD9
:101434004AF04A50000AD8B404D0010AD8A41200D1
:1014440005D04950000AD8A4120020D74950570AA1
:10145400D8B448D7090AD8B479D7390AD8B4A7D7A1
:10146400080AD8B4D2D71C0A120085D08D920F0175
:101474003C939692000E2E6E010E2D6E2D50D8B414
:1014840008D00E0E2E18D8A402D0000E06D02E2A94
:1014940007D02E50D8A403D0010E2D6E01D02E06F5
:1014A40084B203D0496A492A01D0496A4946845022
:1014B4004918FD0B4918846E2E50020DF350240F69
:1014C400496E49C0F6FF100EF76EF86A0900F5CFB1
:1014D40013F00A00F5CF14F0F8EC0CF041C011F051
:1014E40042C012F04850D96EDA6A610EDE6E000E08
:1014F400DD6EF8EC0CF01150415E1250425A13505C
:10150400415C14504258D8A0120084B203D0496AF6
:10151400492A01D0496A494684504918FD0B4918A3
:10152400846E2E50020DF350240F496E49C0F6FF0D
:10153400100EF76EF86A0900F5CF13F00A00F5CF24
:1015440014F0F8EC0CF041C011F042C012F0485015
:10155400D96EDA6A650EDE6E000EDD6EF8EC0CF004
:101564001150415E1250425A1350415C145042587B
:10157400D8A0120083D74850D96EDA6ADECF49F07A
:10158400DDCF4AF04A50000AD8A412004950000A9C
:10159400D8B46CD7610AD8B4ACD7040AD8B4DED7AF
:1015A400080A120067D09D9C9E9CAF0EC06E000E70
:1015B400C16E9280C280C2824850D96EDA6AEF0E40
:1015C400DE6E000EDD6EC2B21200000E4D6E000E15
:1015D4004C6EC4504A6E496A49504C124A504D12DE
:1015E400C3504C121B504C1804E11C504D18D8B475
:1015F40023D04CC01FF04DC020F04D5009E1330EF4
:101604004C5CD8B005D0000E1E6E0A0E1D6E0ED0B6
:101614004CC041F04DC042F0000E446E050E436EC6
:1016240074EC0CF041C01DF042C01EF0010E306E8F
:101634004CC01BF04DC01CF0010E086E2C0E076E42
:10164400F8EC0CF041C005F042C006F04850D96EE9
:10165400DA6A020EDE6E010EDD6EF8EC0CF0055057
:10166400415E0650425A0750415C08504258D8A087
:101674001200A1D74850D96EDA6ADECF49F0DDCF27
:101684004AF04A50000AD8B404D0010AD8A412007F
:1016940008D04950000AD8B486D7EF0AD8A412005B
:1016A40092D74950020AD8B4D8D7070A120051D0A9
:1016B4004850D96EDA6A170EDE6E010EDD6E300404
:1016C400D8A41200000E306E1FC041F020C042F0BA
:1016D400000E446E050E436E74EC0CF041C04CF0E9
:1016E40042C04DF04D5008E10A0E4C5CD8B004D015
:1016F400000E4D6E0A0E4C6E000E186E05D0E80EEC
:101704004C5E030E4D5A182AE80E4C5C030E4D58DD
:10171400D8B0F5D7000E176E05D0640E4C5E000EDF
:101724004D5A172A4D50F9E1640E4C5CD8B0F5D7E8
:10173400000E166E05D00A0E4C5E000E4D5A162A87
:101744004D50F9E10A0E4C5CD8B0F5D74CC015F0F9
:10175400AFD74850D96EDA6ADECF49F0DDCF4AF010
:101764004A50000AD8B404D0010AD8A4120005D003
:101774004950000AD8A412009BD74950170AD8B47C
:101784009ED7270A12003FD0000E8C6E000E0F0168
:101794003B6F000E956E010E8C6E010E2C6E000ECA
:1017A4001E6E320E1D6E2C50D8B408D0D8908336DD
:1017B400800E8318D8A409D0000E06D0D8908332A6
:1017C4008304D8A402D0010E2C6E1DC00BF01EC0E1
:1017D4000CF0F8EC0CF041C009F042C00AF048509B
:1017E400D96EDA6ACE0EDE6E000EDD6EF8EC0CF009
:1017F4000950415E0A50425A0B50415C0C50425809
:10180400D8A01200D0D74850D96EDA6ADECF49F09A
:10181400DDCF4AF04A50000AD8A412004950000A09
:10182400D8B4B2D7CE0AD8B4E1D71B0A1200000E3E
:101834000001816F000E806F1DD08051040DF350A4
:10184400600F486E8051040DF350620FD96EDA6A4E
:10185400DECF4EF0DDCF4FF001D809D00500FA6E8F
:101864004E50FD6E4F50FE6EFF6AFA50120000019A
:10187400804B812B2A504E6E4F6A4E50805D8151B1
:10188400800A506E4F50800A5058D8B0D0D7D5D760
:1018940012EC0DF06E0E416E140E426EBDEC0CF0A7
:1018A400440E416E100E426EBDEC0CF08A0E416E79
:1018B400170E426EBDEC0CF0A80E416E150E426E72
:1018C400BDEC0CF0B20E416E160E426EBDEC0CF087
:1018D4008E0E416E120E426EBDEC0CF006EC0DF055
:1018E40059EF00F0000E476E000E466E4350441050
:1018F400D8B41CD0010E456E04D0D890433644367B
:10190400452A44AEFAD7D890463647364350415C10
:1019140044504258D8A005D04350415E4450425AE6
:101924004680D89044324332452EEDD746C041F02C
:1019340047C042F01200000ED56ED59CD59AD586CC
:10194400F00ED76E930ED66E43504410D8B405D023
:1019540043C021F044C022F004D0460E216E1A0E7A
:10196400226ED20E416E190E426E19EC0DF0F294F5
:10197400F28AD58E1200070E2A6401D012002A5072
:10198400040DF350600F436E2A2A4350D96EDA6A6D
:10199400020ED92641C0DEFF42C0DDFF4350D96E9E
:1019A400DA6A000EDE6E000EDD6E120000EE60F0EC
:1019B400200EEE6AE806FDE100EE01F0320EEE6A5A
:1019C400E806FDE15190519200014AEF0CF0F00E4F
:1019D400D76E930ED66E01D812000500FA6E215010
:1019E400FD6E2250FE6EFF6AFA501200F2CF2BF009
:1019F400F29E19C043F01AC044F02BBEF28E43C0CD
:101A040041F044C042F0120021EC0DF03C0E436E54
:101A14001A0E446E9DEC0CF0F28E19EC0CF01200D0
:101A2400730ED36E040ED26E000E9B6E120041C074
:101A340027F042C028F01200194A1A2A1200D09E38
:041A4400120012007A
:020000040020DA
:08000000FFFFFFFFFFFFFFFF00
:020000040030CA
:0E000000FF380E3CFF3D85FF0FC00FE00F40A4
:00000001FF
