:020000040000FA
:0400000059EF00F0C4
:100008004D82FACF32F0FBCF33F0E9CF34F0EACFAC
:1000180035F0E1CF36F0E2CF37F0D9CF38F0DACF8C
:1000280039F0F3CF3AF0F4CF3BF0F6CF3CF0F7CF0E
:100038003DF0F8CF3EF0F5CF3FF0F2B4F2A40CD08B
:10004800F29401D814D00500FA6E2750FD6E28509E
:10005800FE6EFF6AFA501200F2AC09D09DBA9EAA51
:1000680002D09E9A04D09DB89EA801D09E983FC009
:10007800F5FF3EC0F8FF3DC0F7FF3CC0F6FF3BC0B0
:10008800F4FF3AC0F3FF39C0DAFF38C0D9FF37C0F0
:10009800E2FF36C0E1FF35C0EAFF34C0E9FF33C0F4
:0E00A800FBFF32C0FAFF4D921100ADEF0CF0DD
:1010000000C0F9A4B0999282F880908883C6A18626
:101010008EBF0E32003C00460050005A006400C8EB
:10102000002C019001F4015802BC0220038403E863
:10103000030001D18D940F013C95969484B403D0A4
:10104000456A452A01D0456A4546454684504518BB
:10105000FB0B4518846E000E106E320E0F6E9FEC67
:101060000CF040C00DF041C00EF04450D96EDA6A69
:101070007A0EDE6E000EDD6E9FEC0CF00D50405EC1
:101080000E50415A0F50405C10504158D8A01200E9
:1010900084B403D0456A452A01D0456A4546454691
:1010A00084504518FB0B4518846E000E106E320EEE
:1010B0000F6E9FEC0CF040C00DF041C00EF044509C
:1010C000D96EDA6A7E0EDE6E000EDD6E9FEC0CF0DD
:1010D0000D50405E0E50415A0F50405C1050415828
:1010E000D8A0120084B403D0456A452A01D0456ACD
:1010F0004546454684504518FB0B4518846E000E46
:10110000106E320E0F6E9FEC0CF040C00DF041C01F
:101110000EF04450D96EDA6A820EDE6E000EDD6E7D
:101120009FEC0CF00D50405E0E50415A0F50405C49
:1011300010504158D8A0120084B403D0456A452A03
:1011400001D0456A4546454684504518FB0B451875
:10115000846E000E106E320E0F6E9FEC0CF040C0CD
:101160000DF041C00EF04450D96EDA6A860EDE6E84
:10117000000EDD6E9FEC0CF00D50405E0E50415A9B
:101180000F50405C10504158D8A0120084B403D0D6
:10119000456A452A01D0456A45464546845045186A
:1011A000FB0B4518846E000E106E320E0F6E9FEC16
:1011B0000CF040C00DF041C00EF04450D96EDA6A18
:1011C0008A0EDE6E000EDD6E9FEC0CF00D50405E60
:1011D0000E50415A0F50405C10504158D8A0120098
:1011E00084B403D0456A452A01D0456A4546454640
:1011F00084504518FB0B4518846E030E106EE80EE4
:101200000F6E9FEC0CF040C00DF041C00EF044504A
:10121000D96EDA6A8E0EDE6E000EDD6E9FEC0CF07B
:101220000D50405E0E50415A0F50405C10504158D6
:10123000D8A0120003D74450D96EDA6ADECF45F049
:10124000DDCF46F04650000AD8A412004550000AEF
:10125000D8B4F0D67A0AD8B40FD7040AD8B436D79F
:10126000FC0AD8B45DD7040AD8B484D70C0AD8B421
:10127000ABD7040AD8B4D2D71F0A1200CCD0000EC4
:101280008B6E000E0F013A6F000E946E000E8A6E88
:10129000F00E396FF00E936EF00E8A161550010F96
:1012A000456E45C0F6FF100EF76EF86A0800F5CFE0
:1012B0008BFF8A80000E046E050E036E9FEC0CF00F
:1012C00040C001F041C002F04450D96EDA6A440EC9
:1012D000DE6E010EDD6E9FEC0CF00150405E0250A0
:1012E000415A0350405C04504158D8A01200185095
:1012F000D8A406D01750D8A403D01650D8B42BD0F9
:10130000F00E8A161650010F456E45C0F6FF100EFE
:10131000F76EF86A0800F5CF8BFF8A82000E046E24
:10132000050E036E9FEC0CF040C001F041C002F0CE
:101330004450D96EDA6A4B0EDE6E010EDD6E9FEC04
:101340000CF00150405E0250415A0350405C045082
:101350004158D8A012001850D8A403D01750D8B4C0
:101360002BD0F00E8A161750010F456E45C0F6FFC0
:10137000100EF76EF86A0800F5CF8BFF8A84000E16
:10138000046E050E036E9FEC0CF040C001F041C0EE
:1013900002F04450D96EDA6A530EDE6E010EDD6E35
:1013A0009FEC0CF00150405E0250415A0350405CEB
:1013B00004504158D8A012001850D8B46DD7F00E80
:1013C0008A161850010F456E45C0F6FF100EF76ED5
:1013D000F86A0800F5CF8BFF8A86000E046E050EB2
:1013E000036E9FEC0CF040C001F041C002F044508D
:1013F000D96EDA6A5B0EDE6E010EDD6E9FEC0CF0CC
:101400000150405E0250415A0350405C0450415824
:10141000D8A0120041D74450D96EDA6ADECF45F029
:10142000DDCF46F04650000AD8B404D0010AD8A453
:10143000120005D04550000AD8A4120020D745500C
:10144000440AD8B448D70F0AD8B479D7180AD8B400
:10145000A7D7080AD8B4D2D73B0A120085D08D92FC
:101460000F013C939692000E2B6E010E2A6E2A50AD
:10147000D8B408D00E0E2B18D8A402D0000E06D077
:101480002B2A07D02B50D8A403D0010E2A6E01D0EE
:101490002B0684B203D0456A452A01D0456A4546E9
:1014A00084504518FD0B4518846E2B50020DF350E7
:1014B000130F456E45C0F6FF100EF76EF86A09006F
:1014C000F5CF13F00A00F5CF14F09FEC0CF040C0FC
:1014D00011F041C012F04450D96EDA6A5C0EDE6E33
:1014E000000EDD6E9FEC0CF01150405E1250415A20
:1014F0001350405C14504158D8A0120084B203D05D
:10150000456A452A01D0456A454684504518FD0B79
:101510004518846E2B50020DF350130F456E45C0D5
:10152000F6FF100EF76EF86A0900F5CF13F00A0007
:10153000F5CF14F09FEC0CF040C011F041C012F058
:101540004450D96EDA6A600EDE6E000EDD6E9FECDE
:101550000CF01150405E1250415A1350405C145030
:101560004158D8A0120083D74450D96EDA6ADECF32
:1015700045F0DDCF46F04650000AD8A41200455091
:10158000000AD8B46CD75C0AD8B4ACD73C0AD8B43B
:10159000DED7040A120067D09D9C9E9CAF0EC06EE1
:1015A000000EC16E9280C280C2824750D96EDA6A44
:1015B000D30EDE6E000EDD6EC2B21200000E4C6E57
:1015C000000E4B6EC450496E486A48504B12495049
:1015D0004C12C3504B1219504B1804E11A504C18BE
:1015E000D8B423D04BC01DF04CC01EF04C5009E1C4
:1015F000330E4B5CD8B005D0000E1C6E0A0E1B6E6D
:101600000ED04BC040F04CC041F0000E436E050EB2
:10161000426E47EC0CF040C01BF041C01CF0010EC4
:101620002D6E4BC019F04CC01AF0010E086E2C0E36
:10163000076E9FEC0CF040C005F041C006F047502B
:10164000D96EDA6AE60EDE6E000EDD6E9FEC0CF0EF
:101650000550405E0650415A0750405C08504158C2
:10166000D8A01200A1D74750D96EDA6ADECF48F071
:10167000DDCF49F04950000AD8A412004850000AB2
:10168000D8B48AD7D30AD8B497D7350AD8B4DED716
:101690000F0A120051D04750D96EDA6A010EDE6E81
:1016A000010EDD6E2D04D8A41200000E2D6E1DC09B
:1016B00040F01EC041F0000E436E050E426E47EC36
:1016C0000CF040C04BF041C04CF04C5008E10A0E09
:1016D0004B5CD8B004D0000E4C6E0A0E4B6E000E60
:1016E000186E05D0E80E4B5E030E4C5A182AE80E11
:1016F0004B5C030E4C58D8B0F5D7000E176E05D0D2
:10170000640E4B5E000E4C5A172A4C50F9E1640EE1
:101710004B5CD8B0F5D7000E166E05D00A0E4B5EA6
:10172000000E4C5A162A4C50F9E10A0E4B5CD8B008
:10173000F5D74BC015F0AFD74750D96EDA6ADECF78
:1017400048F0DDCF49F04950000AD8B404D0010A6E
:10175000D8A4120005D04850000AD8A412009BD784
:101760004850010AD8B49ED71A0A12003FD0000E82
:101770008C6E000E0F013B6F000E956E010E8C6E8D
:10178000010E296E000E1C6E320E1B6E2950D8B44D
:1017900008D0D8908336800E8318D8A409D0000EC4
:1017A00006D0D89083328304D8A402D0010E296ECB
:1017B0001BC00BF01CC00CF09FEC0CF040C009F0FB
:1017C00041C00AF04450D96EDA6AB70EDE6E000EE0
:1017D000DD6E9FEC0CF00950405E0A50415A0B50F0
:1017E000405C0C504158D8A01200D0D74450D96E5C
:1017F000DA6ADECF45F0DDCF46F04650000AD8A4C5
:1018000012004550000AD8B4B2D7B70AD8B4E1D70D
:101810000D0A1200B8EC0CF0C7EC0CF0880E426E0A
:10182000190E436E70EC0CF0F28E000E0001656F25
:10183000000E646F000E6B6F000E6A6F000E616F1A
:10184000000E606F000E676F000E666F000E636F14
:10185000000E626F000E696F000E686F640E446EBA
:101860002EEC0AF06A0E446E19EC08F0600E446E1D
:10187000B6EC0BF0660E476ECBEC0AF0620E476ECC
:101880004AEC0BF0680E446E3EEC09F0E7D7000E10
:10189000466E000E456E42504310D8B41CD0010E67
:1018A000446E04D0D89042364336442A43AEFAD729
:1018B000D890453646364250405C43504158D8A0F7
:1018C00005D04250405E4350415A4580D890433243
:1018D0004232442EEDD745C040F046C041F01200E0
:1018E000000ED56ED59CD59AD586F00ED76E930E88
:1018F000D66E42504310D8B405D042C021F043C048
:1019000022F004D0920E216E190E226E200E406E2F
:10191000190E416EBFEC0CF0F294F28AD58E1200D3
:10192000F00ED76E930ED66E01D812000500FA6E37
:101930002150FD6E2250FE6EFF6AFA501200F2CF67
:101940002FF0F29E1FC042F020C043F02FBEF28E57
:1019500042C040F043C041F0120000EE01F0310EF1
:10196000EE6AE806FDE14D904D9200010AEF0CF0A1
:10197000730ED36E040ED26E000E9B6E120040C02A
:1019800027F041C028F012001F4A202A1200D09EE2
:04199000120012002F
:020000040020DA
:08000000FFFFFFFFFFFFFFFF00
:020000040030CA
:0E000000FF380E3CFF3D85FF0FC00FE00F40A4
:00000001FF
